:020000040800F2
:10000000288100209D020008D1DF000881BC000883
:1000100015CB000889190008B1750108000000001F
:10002000000000000000000000000000810B01083B
:100030002545000800000000C1E500087124010802
:10004000B7020008B7020008B7020008B7020008AC
:10005000B7020008B7020008B7020008B70200089C
:10006000B7020008C9490008B7020008B702000833
:10007000813E0008B7020008B7020008B702000876
:10008000B7020008B7020008B7020008B70200086C
:100090008D190008B7020008B7020008B70200086F
:1000A000B70200087D250108B7020008B702000862
:1000B000B7020008B70200088D250108B702000842
:1000C000B7020008B7020008B7020008B70200082C
:1000D000B702000859360108B7020008693601085E
:1000E000B7020008B7020008B7020008B70200080C
:1000F000B70200089D250108B7020008B7020008F2
:10010000B7020008B7020008B7020008B7020008EB
:10011000B7020008B7020008B7020008B7020008DB
:10012000B7020008B7020008913E0008B7020008B5
:10013000B7020008B7020008B7020008B7020008BB
:10014000B70200089D190008B702000825E2000860
:10015000B7020008B7020008B7020008B70200089B
:10016000B7020008B7020008B7020008B70200088B
:10017000B7020008B7020008B7020008000000003C
:10018000B7020008B702000800F002F800F076F8A5
:1001900014A696E8000CB244B344DA4501D100F04D
:1001A0006DF8BAE80F000FA696E83000A5EB04053D
:1001B00004EB0607AAEB0704A7F101074FEA1515A0
:1001C0004FEA3414A4F10104AC4201D300F056F814
:1001D00013F0010F18BFFB1A43F0010300F001F800
:1001E000DBE71847A0FC0100C0FC01000A444FF007
:1001F000000C10F8013B13F0070408BF10F8014B86
:100200001D1108BF10F8015B641E05D010F8016BCA
:10021000641E01F8016BF9D113F0080F1EBF10F82E
:10022000014BAD1C0C1B09D16D1E58BF01F801CB51
:10023000FAD505E014F8016B01F8016B6D1EF9D5D4
:100240009142D6D37047000070470000002300247D
:1002500000250026103A28BF78C1FBD8520728BFD6
:1002600030C148BF0B6070471FB51EF0DEFB9DE834
:10027000030000F057FA1FBD10B510BD00F0C6FA1C
:100280001146FFF7F1FF18F061FE00F0E4FA03B445
:10029000FFF7F2FF03BC00F015FB000009488047A0
:1002A00009480047FEE7FEE7FEE7FEE7FEE7FEE758
:1002B000FEE7FEE7FEE7FEE704480549054A064B70
:1002C000704700006925010889010008287900208D
:1002D00028810020287D0020287D002070B506465A
:1002E00000F004FA056806F10B0020F00704B442A0
:1002F0009CBF002070BD2B466A68BAB11068A0424E
:1003000010D304F1080188423CBF5068586007D3FD
:100310005168101941601168091B01605860146030
:10032000101D70BD13465268002AE7D121462846A9
:1003300000F0E4F90028DED170BD70B50446051F59
:1003400000F0D4F90068002C14BF446870BD002C84
:1003500018BFAC423CBF20466468F8D301680A1855
:10036000AA4218BF456003D12A68054611440160BE
:1003700028684119A1421CBF6C6070BD616869604A
:1003800021680844286070BD53EA020C00F06980BF
:100390002DE9F04B4FF00006002B1FBFB3FA83F599
:1003A00003FA05F424FA05F65E4012BF1643B2FACA
:1003B00082F502FA05F4C5F120051EBF22FA05FCFC
:1003C00044EA0C04203556EA044C4FEA144418BFA2
:1003D000641C4FF000084FF00009904271EB030CD1
:1003E00039D3002919BFB1FA81F701FA07F6B0FA3B
:1003F00080F700FA07F6C7F120071EBF20FA07FCB6
:1004000046EA0C062037B6FBF4FCA7EB0507103FC5
:1004100007F01F0BCBF120062CFA06F60CFA0BFBAB
:1004200044BFB3460026202FA4BF5E464FF0000B0A
:100430005BEA060C08BF4FF0010B19EB0B0948EB08
:100440000608ABFB027C06FB02CC0BFB03CCC01BFB
:1004500071EB0C01C1E70B46024641464846BDE838
:10046000F08B13B5084318BF4FF0FF300146AFF3D0
:100470000080BDE81C40704770B50D460A46044632
:10048000002100F08FF908B1001B70BD284670BD37
:1004900040EA0103024630B59B0710D14FF001340A
:1004A00000E008C208C91D1B9D4315EAC41FF8D00F
:1004B00013F0FF0102F8011B0DD01B0AF8E711F839
:1004C000013B002B02F8013B05D011F8013B002B4A
:1004D00002F8013BF3D130BD032A40F2308010F026
:1004E000030C00F0158011F8013BBCF1020F6244CF
:1004F00098BF11F801CB00F8013B38BF11F8013B60
:10050000A2F1040298BF00F801CB38BF00F8013B0C
:1005100011F0030300F02580083AC0F0088051F87C
:10052000043B083A51F804CBA0E80810F5E7121D87
:100530005CBF51F8043B40F8043BAFF30080D207A6
:1005400024BF11F8013B11F801CB48BF11F8012B72
:1005500024BF00F8013B00F801CB48BF00F8012B95
:10056000704710B5203AC0F00B80B1E81850A0E8F1
:100570001850B1E81850A0E81850203ABFF4F5AF71
:100580005FEA027C24BFB1E81850A0E8185044BFCD
:1005900018C918C0BDE810405FEA827C24BF51F83A
:1005A000043B40F8043B08BF7047D20728BF31F82E
:1005B000023B48BF11F8012B28BF20F8023B48BF7F
:1005C00000F8012B704702F0FF0343EA032242EADE
:1005D000024200F024B84FF000020429C0F012805B
:1005E00010F0030C00F01B80CCF1040CBCF1020FE6
:1005F00018BF00F8012BA8BF20F8022BA1EB0C01BB
:1006000000F00DB85FEAC17C24BF00F8012B00F8B0
:10061000012B48BF00F8012B70474FF0000200B5D6
:10062000134694469646203922BFA0E80C50A0E815
:100630000C50B1F12001BFF4F7AF090728BFA0E8C3
:100640000C5048BF0CC05DF804EB890028BF40F88F
:10065000042B08BF704748BF20F8022B11F0804FD1
:1006600018BF00F8012B704730B44FF0013C50F830
:10067000042B51F8043BCCFA52F4D51A20D1FCB922
:1006800050F8042B51F8043BCCFA52F4D51A17D188
:10069000B4B950F8042B51F8043BCCFA52F4D51AF3
:1006A0000ED16CB950F8042B51F8043BCCFA52F43B
:1006B000D51A05D1002CDAD030BC4FF000007047BD
:1006C00029BAB1FA81F111F01801D1F1200084406A
:1006D000F2D1CA40CB4012F0FF0213F0FF0330BC4E
:1006E000D01A704770477047704700000048704745
:1006F000F0080020704770477047704738B50446CF
:100700000A4600206946AFF30080002808BF38BDC4
:1007100002460099204600F057F8012038BD01201C
:1007200000F06CB8F8B5AFF30080054600200C4629
:100730000C2000BF0646A819A0420DD932466946D2
:100740000020AFF30080070008BF00F057F80098C2
:10075000A04218BF0546C419FFF7C8FF0560074649
:10076000F01D20F007004619284600F00AF8B442B0
:1007700008BFF8BDA21B31463868BDE8F84000F05C
:1007800023B800210160416070470C20704710B50C
:1007900000F016F8006810BD10B5044600F010F81F
:1007A000046010BDCBB22AB101788B4203D0401C4B
:1007B000521EF9D10020704700487047E808002019
:1007C00000487047E8080020034640688C4600282F
:1007D00018BF88423CBF03464068F8D318681844E5
:1007E000884207D00CF1030020F00700001D411AD9
:1007F000521A0146081D0A60FFF79FBD10B500F0B0
:1008000039F8BDE8104000F02FB870477546FFF783
:10081000D3FFAE4605006946534620F007008546E3
:1008200018B020B5FFF748FDBDE820404FF00006A6
:100830004FF000074FF000084FF0000BAC46ACE85B
:10084000C009ACE8C009ACE8C009ACE8C00921F0B7
:1008500007018D46704710B50446AFF3008020466F
:10086000BDE81040FFF713BD002801D000F02AB802
:100870007047000010B5012805D0002103A000F04A
:1008800027F8012010BD09A1F8E70000534947529D
:10089000544D454D3A204F7574206F662068656150
:1008A00070206D656D6F7279000000003A20486518
:1008B0006170206D656D6F727920636F72727570F3
:1008C0007465640001491820ABBEFEE726000200F3
:1008D00070B505460C460A2000E06D1C00F011F8CA
:1008E00035B128780028F8D102E0641C00F009F83E
:1008F00014B120780028F8D1BDE870400A20AFF389
:10090000008008B569468DF800000320ABBE08BD25
:1009100081B08DED000AFFE79DED000A9FED141AEE
:10092000B4EE410AF1EE10FA09DDFFE79DED000A91
:100930009FED121A30EE010A8DED000AECE7FFE799
:100940009DED000A9FED0B1AB4EE410AF1EE10FA8C
:1009500009DAFFE79DED000A9FED071A30EE010A64
:100960008DED000AECE79DED000A01B0704700BF75
:10097000DC0F4940DC0F49C0DC0FC940DC0FC9C0A7
:1009800080B58AB008908DF81F1006928DF8173048
:10099000089838B1FFE7069820B1FFE79DF81700E7
:1009A00020B9FFE700208DF8270024E00020049004
:1009B0000390029001909DF81F0040F080008DF898
:1009C0000C0008989DF817100231CBB201A903AAB8
:1009D00010F0DEF958B1FFE7069801A902319DF841
:1009E0001720FFF779FD01208DF8270003E0002094
:1009F0008DF82700FFE79DF827000AB080BD0000B2
:100A000080B584B002908DF807108DF8062002980A
:100A100020B9FFE700208DF80F000FE09DF80700D8
:100A20008DF804009DF806008DF80500029801A9D4
:100A3000022210F05DFA8DF80F00FFE79DF80F001D
:100A400004B080BD80B59EB01D901D9808B9FFE729
:100A5000EFE241F27070ADF872004FF07C501B90E5
:100A600049F69A10C3F619601A904DF20A70C3F64F
:100A70002340199003F0FEFE8DED0B0AFFE703F013
:100A8000F9FE9DED0B1A30EE410AB2EE041AB4EEF7
:100A9000410AF1EE10FA1BDDFFE71D990020886284
:100AA0001D99C8621D9908631D994CF6CD40C4F28A
:100AB0001C1008641D990020C4F2202048641D9970
:100AC0004FF07E50C8631D9988631D99486396E274
:100AD0001D99002008641D9988621D99C8621D999E
:100AE0000863ADF82A00FFE7BDF82A0041F26F71F4
:100AF000884200F3DA81FFE70020ADF82800099072
:100B00001D980068122109AA0623FFF739FF002863
:100B100069D0FFE74FF0655007909DF824009DF8DD
:100B2000251040EA0120ADF82200BDF9220000EEB8
:100B3000100AB8EEC00A9DED071A20EE010A9FEDDB
:100B4000E41A20EE010A1D9880ED030A9DF82600A4
:100B50009DF8271040EA0120ADF82200BDF92200DF
:100B600000EE100AB8EEC00A9DED072A20EE020A38
:100B700020EE010A1D9880ED040A9DF828009DF8DA
:100B8000291040EA0120ADF82200BDF9220000EE54
:100B9000100AB8EEC00A9DED072A20EE020A20EEE8
:100BA000010A1D9880ED050A1D9890ED031A90ED3D
:100BB000042A90ED050A22EE022A21EE011A31EEF6
:100BC000021A20EE000A30EE010A1CF05BFD8DEDEA
:100BD000120A9DED121A1D9890ED100A30EE010ACE
:100BE00080ED100AFFE70021069105911D984068ED
:100BF00005AA082300F06AFA002866D0FFE79DF8EE
:100C000014000F2860D1FFE74AF25800C3F68B208A
:100C100003909DF816009DF8171040EA0120ADF8EA
:100C20001200BDF9120000EE100AB8EEC00A9DEDE8
:100C3000031A20EE010A1D9880ED060A1D9890ED1A
:100C4000061A90ED0A0A30EE010A80ED0A0A9DF8B4
:100C500018009DF8191040EA0120ADF81200BDF906
:100C6000120000EE100AB8EEC00A9DED031A20EE45
:100C7000010A1D9880ED070A1D9890ED071A90ED66
:100C80000B0A30EE010A80ED0B0A9DF81A009DF860
:100C90001B1040EA0120ADF81200BDF9120000EE71
:100CA000100AB8EEC00A9DED031A20EE010A1D9845
:100CB00080ED080A1D9890ED081A90ED0C0A30EEB0
:100CC000010A80ED0C0AFFE7FFE7BDF82A0050BBE0
:100CD000FFE79DED120A8DED100A8DED110A00203F
:100CE0008DF80B00FFE79DF80B0002281ADCFFE7E8
:100CF0001D989DF80B1000EB810090ED060A13A8DB
:100D000000EB810080ED000A9DF80B1016A800EBA7
:100D1000810080ED000AFFE79DF80B0001308DF89F
:100D20000B00E0E762E09DED120A9DED111AB4EEB2
:100D3000410AF1EE10FA03DDFFE712981190FFE788
:100D40009DED120A9DED101AB4EE410AF1EE10FA73
:100D500003DAFFE712981090FFE700208DF80A00F1
:100D6000FFE79DF80A0002283FDCFFE71D989DF889
:100D70000A1000EB810090ED060A16A800EB810036
:100D800090ED001AB4EE410AF1EE10FA0ADDFFE729
:100D90001D989DF80A2000EB8200806916A941F891
:100DA0002200FFE71D989DF80A1000EB810090EDEE
:100DB000060A13A800EB810090ED001AB4EE410A78
:100DC000F1EE10FA0ADAFFE71D989DF80A2000EB11
:100DD0008200806913A941F82200FFE7FFE79DF830
:100DE0000A0001308DF80A00BBE7FFE79DED110A0C
:100DF0009DED101A30EE410A8DED0C0A00208DF8A1
:100E00000900FFE79DF8090002281ADCFFE79DF8BA
:100E1000091016A800EB810090ED000A13A800EB62
:100E2000810090ED001A30EE410A0DA800EB810020
:100E300080ED000AFFE79DF8090001308DF80900F8
:100E4000E0E79DED0C0AB6EE001AB4EE410AF1EEB1
:100E500010FA1EDCFFE79DED0D0A9FED771AB4EE48
:100E6000410AF1EE10FA14DCFFE79DED0E0A9FED4A
:100E7000721AB4EE410AF1EE10FA0ADCFFE79DEDBA
:100E80000F0A9FED6D1AB4EE410AF1EE10FA01DD82
:100E9000FFE70AE09FED690A03F09AFCFFE7BDF85F
:100EA0002A000130ADF82A001EE61D9890ED100AC8
:100EB0009FED631A80EE010A80ED100A00208DF884
:100EC0000800FFE79DF80800022817DC02E000BFD9
:100ED000CDCC1C411D989DF8081000EB810090EDD1
:100EE0000A0A9FED571A80EE010A80ED0A0AFFE711
:100EF0009DF8080001308DF80800E3E71D9951F8CE
:100F0000440B00F043FA9FED4F0A03F061FCFFE74A
:100F10009DED0C0A0120B6EE001AB4EE410AF1EE86
:100F200010FA009065DCFFE71D9890ED100A9FED28
:100F3000461A30EE010AB0EEC00A0120B6EE001AE1
:100F4000B4EE410AF1EE10FA009052DCFFE79DED9D
:100F50000D0A01209FED381AB4EE410AF1EE10FAA5
:100F6000009046DCFFE79DED0E0A01209FED321A4E
:100F7000B4EE410AF1EE10FA00903ADCFFE79DED85
:100F80000F0A01209FED2C1AB4EE410AF1EE10FA7F
:100F900000902EDCFFE71D9890ED0A0AB0EEC00A23
:100FA00001209FED2A1AB4EE410AF1EE10FA0090EA
:100FB0001FDCFFE71D9890ED0B0AB0EEC00A012080
:100FC0009FED221AB4EE410AF1EE10FA009010DC07
:100FD000FFE71D9890ED0C0AB0EEC00A9FED1B1ABA
:100FE0000020B4EE410AF1EE10FAC8BF01200090D3
:100FF000FFE70098C00700287FF441ADFFE71D9888
:1010000090ED101A9FED120A80EE010A8DED010A93
:1010100001981D99486301981D99886301981D994D
:10102000C8631D99012081F84A001D9981F84B0081
:10103000FFE71EB080BD00BF9A99193E6F12033AB8
:101040000080BB450AD7A33BCDCC1CC10AD7233CAB
:10105000C3F51C4180B586B00490039100218DF842
:101060000B108DF80A1004980DF10B020123FFF705
:1010700087FC20B9FFE700208DF8170021E00398D6
:1010800000210DF10A02012300F020F820B9FFE74A
:1010900000208DF8170014E09DF80B1000201E2989
:1010A000019008D1FFE79DF80A000F38B0FA80F0F0
:1010B00040090190FFE7019800F001008DF817004A
:1010C000FFE79DF8170006B080BD000080B588B02E
:1010D00006908DF8171004928DF80F30069838B1ED
:1010E000FFE7049820B1FFE79DF80F0020B9FFE764
:1010F00000208DF81F0026E00020CDF80B000290A4
:10110000CDF8030000909DF8170040F080008DF8A6
:10111000080006989DF80F100131CBB2694602AA6B
:101120000FF036FE58B1FFE70498694601319DF88B
:101130000F20FFF7D1F901208DF81F0003E00020F8
:101140008DF81F00FFE79DF81F0008B080BD00006C
:1011500080B584B002908DF807108DF806200298B3
:1011600020B9FFE700208DF80F000FE09DF8070081
:101170008DF804009DF806008DF80500029801A97D
:1011800002220FF0B5FE8DF80F00FFE79DF80F006B
:1011900004B080BD80B582B00090009820B9FFE710
:1011A00000208DF8070055E0009951F80C0B00F075
:1011B00055F820B9FFE700208DF807004AE00098B5
:1011C00090ED030A90ED0D1A20EE010A80ED030A5E
:1011D000009890ED040A90ED0E1A20EE010A80EDC1
:1011E000040A009890ED050A90ED0F1A20EE010A0E
:1011F00080ED050A00994868183100F07BF820B9A5
:10120000FFE700208DF8070024E0009890F84A00DE
:10121000E0B1FFE7009890ED060A90ED0A1A30EE73
:10122000410A80ED060A009890ED070A90ED0B1A2E
:1012300030EE410A80ED070A009890ED080A90ED23
:101240000C1A30EE410A80ED080AFFE701208DF804
:101250000700FFE79DF8070002B080BD80B588B0A9
:10126000069005910020ADF8100003900698122119
:1012700003AA0623FFF784FB20B9FFE700208DF8BF
:101280001F0031E04FF06550029000200190FFE711
:101290000198022824DCFFE7019A03A800EB420131
:1012A000497810F8120040EA0120ADF80200BDF9BB
:1012B000020000EE100AB8EEC00A9DED021A20EE00
:1012C000010A9FED0B1A20EE010A0598019900EB27
:1012D000810080ED000AFFE7019801300190D7E717
:1012E00001208DF81F00FFE79DF81F0008B080BDAA
:1012F000CDCC1C4180B588B00690059100210491A9
:101300000391069803AA0823FFF7E0FE20B9FFE740
:1013100000208DF81F0032E09DF80C000F2804D04B
:10132000FFE700208DF81F0029E000200290FFE772
:10133000029802281FDCFFE7029903A800EB410195
:101340008878C97840EA0120ADF80600BDF90600AA
:1013500000EE100AB8EEC00A9FED0B1A20EE010A4B
:101360000598029900EB810080ED000AFFE70298E2
:1013700001300290DCE701208DF81F00FFE79DF8A7
:101380001F0008B080BD00BF58A08B3A80B586B062
:1013900004900391049818B1FFE7039820B9FFE780
:1013A00000208DF8170048E00020ADF80A000498EE
:1013B00022210DF10A020223FFF7E2FA20B9FFE72A
:1013C00000208DF8170038E09DF80B00802804D12C
:1013D000FFE700208DF817002FE09DF80A009DF828
:1013E0000B10C00040EA5110ADF80800BDF808002D
:1013F000B0F5806F07DBFFE7BDF80800A0F50060DF
:10140000ADF8060004E0BDF80800ADF80600FFE7FF
:10141000BDF9060000EE100AB8EEC00AB4EE001ADC
:1014200020EE010AB3EE071A30EE010A039880EDB0
:10143000000A01208DF81700FFE79DF8170006B09D
:1014400080BD000082B00190019828B1FFE70198AB
:10145000D0F87A0008B9FFE708E00198D0F87A00E0
:1014600000900099012081F84900FFE702B0704721
:1014700080B586B00490049840B1FFE704980068F6
:1014800020B1FFE70498406820B9FFE700208DF8FD
:10149000170067E100218DF80F10049800680DF126
:1014A0000F020123FFF76CFA9FEDB00A03F090F9E9
:1014B000049908684968FFF7CDFD20B9FFE70020CF
:1014C0008DF817004EE1049800687E21B622FFF7E0
:1014D00097FA20B9FFE700208DF8170042E19FED51
:1014E000A40A03F075F9049800687C210022FFF734
:1014F00087FA20B9FFE700208DF8170032E1049841
:1015000000687D210422FFF77BFA20B9FFE7002065
:101510008DF8170026E100208DF80E009FED950A4A
:1015200003F056F9049800687D210DF10E020123A5
:10153000FFF726FA20B9FFE700208DF8170011E128
:10154000049800684021AB22FFF75AFA20B9FFE760
:1015500000208DF8170005E100208DF80D009FEDAB
:10156000850A03F035F90498006840210DF10D0259
:101570000123FFF705FA28B1FFE79DF80D00AB281E
:1015800004D0FFE700208DF81700EBE00498006816
:1015900041210122FFF734FA20B9FFE700208DF83E
:1015A0001700DFE000208DF80C009FED720A03F0B9
:1015B0000FF904980068412103AA0123FFF7E0F91D
:1015C00028B1FFE79DF80C00012804D0FFE70020B8
:1015D0008DF81700C6E00498006853210822FFF731
:1015E0000FFA20B9FFE700208DF81700BAE0049841
:1015F000006858210422FFF703FA20B9FFE7002012
:101600008DF81700AEE0049840681421B622FFF769
:101610009FFD20B9FFE700208DF81700A2E09FEDA5
:10162000550A03F0D5F8049840680F210022FFF70F
:101630008FFD20B9FFE700208DF8170092E0002011
:101640008DF80B009FED4B0A03F0C2F80498406838
:101650000F210DF10B020123FFF738FD20B1FFE749
:101660009DF80B0020B1FFE700208DF8170079E00E
:101670000498406810218122FFF76AFD20B9FFE736
:1016800000208DF817006DE00498406811210022B9
:10169000FFF75EFD20B9FFE700208DF8170061E03D
:1016A0000498406815218022FFF752FD20B9FFE71A
:1016B00000208DF8170055E004984068162101229B
:1016C000FFF746FD20B9FFE700208DF8170049E03D
:1016D0000498406818210122FFF73AFD20B9FFE77E
:1016E00000208DF817003DE000200190FFE70198F1
:1016F00002281CDCFFE70498019900EB810100201F
:1017000088620499019A01EB82024FF07E51516385
:101710000499019A01EB8201C8600499019A01EBD6
:1017200082018861FFE7019801300190DFE70498AA
:1017300000214162049A4CF6CD40C4F21C101064A2
:10174000049A0020C4F220205064049880F84B10C2
:10175000049A012082F84800049A82F849108DF812
:101760001700FFE79DF8170006B080BD6F12833A9F
:101770006F12033BA69B443B80B58EB00C900C9837
:1017800018B9FFE700200D9096E04C2018F0CCFB34
:101790000B900B9818B9FFE700200D908CE000200B
:1017A000ADF82A000B984C21FEF737FF0B9941F258
:1017B0004540C0F6000088600C990968CDF8151006
:1017C0000C994968CDF819100C990989ADF81D10CC
:1017D00008218DF81F108DF820100C99097B8DF8C9
:1017E0002110CDF822000B99CDF826100C99D1F8D4
:1017F000151000910C99D1F8191001910C99B1F8BC
:101800001D10ADF8081007218DF80A108DF80B1087
:101810000C9991F821108DF80C10CDF80D000B9853
:10182000CDF811000DF115000FF0D8F90B990860F3
:1018300068460FF0D3F90B9948600B98006820B107
:10184000FFE70B98406830B9FFE70B9818F0DCFD14
:1018500000200D9030E00C9890F82A000B9981F848
:101860004A00FFE70B98FFF703FE012805D0FFE7CA
:101870009FED130A02F0ACFFF4E7BDF82A006428DC
:1018800006DBFFE70B9818F0BFFD00200D9013E07A
:101890000B9890F84A0020B1FFE70B98FFF7D2F8B9
:1018A000FFE70B99012081F848000B99002081F88F
:1018B00049000B980D90FFE70D980EB080BD00BF5A
:1018C0000AD7233C80B586B00590059828B1FFE77C
:1018D0000598D0F83B0008B9FFE752E00598D0F82A
:1018E0003B0004900499059AD06A126BC1F80D2050
:1018F000C1F809000498007A0146019120B1FFE780
:101900000198012819D03BE004980930039003980E
:10191000007800F00100049981F8200003984088C5
:1019200016F0B4FF049880ED090A0398808816F039
:10193000ADFF049880ED0A0A23E004980930029074
:1019400002980078049948740298407800F00100E9
:10195000049988740298408816F098FF049880EDE6
:10196000050A0298C08816F091FF049880ED060AD7
:101970000298808816F08AFF049880ED070A00E03C
:10198000FFE706B080BD0000FFE7FEE780B542F24A
:101990004470C2F2000004F00DFB80BD80B542F23D
:1019A0006C70C2F2000004F005FB80BD82B08DF8BF
:1019B00003009DF80300012806D1FFE742F24470BE
:1019C000C2F2000001900DE09DF80300022806D14C
:1019D000FFE742F26C70C2F20000019002E00020CA
:1019E0000190FFE7019802B07047000084B08DF8C5
:1019F0000F000291ADF806209DF80F0001460091FE
:101A000023281DD80099DFE801F012131415161BC6
:101A10001B1B1B1B1B1B1B1B1B1B1B1B1B1B1B1B16
:101A20001B1B1B1B1B1B1B1B1B1B1718191A08E05E
:101A300007E006E005E004E003E002E001E000E08A
:101A4000FFE7002004B070470020704780B582B0E7
:101A500042F26840C2F20000009041F2B861C2F266
:101A600000010022019212F0A7F9009840F6B86137
:101A7000C2F2000112F082F9019802B080BD0000AC
:101A800080B584B0039002910298006888B1FFE7A6
:101A900047F21010C2F20000006850B1FFE747F2B1
:101AA0001010C2F20000026803980299096890477A
:101AB000FFE742F26840C2F20000019040F6B861D0
:101AC000C2F2000112F05AF9019812F0FDF800205C
:101AD00004B080BD83B0029001918DF803200020F6
:101AE0008DF802009DF9020003B0704780B586B002
:101AF0000490ADF80E1000208DF80D0042F2684001
:101B0000C2F20000D0F8BC0202900298D0F8140291
:101B100020B1FFE701208DF8170013E00499BDF80C
:101B20000E2042F26840C2F20000019012F044F927
:101B3000019812F04BFA8DF80D009DF80D008DF80C
:101B40001700FFE79DF8170006B080BD83B0029034
:101B50000191FF208DF80300FFE70198411E0191DC
:101B600078B1FFE79DF8030002994A1C02920978B8
:101B700041404EF6D860C0F60100405C8DF803008D
:101B8000EBE79DF8030003B07047000084B00290BB
:101B900001914FF6FF70ADF80200029828B9FFE7F7
:101BA0004FF6FF70ADF80E001DE0FFE70198411EF3
:101BB000019198B1FFE7BDF802100298421C029211
:101BC00000784840C2B24EF6D870C0F6010030F836
:101BD000120080EA1120ADF80200E7E7BDF802002C
:101BE000ADF80E00FFE7BDF80E0004B0704700002E
:101BF00080B586B004900391049820B1FFE7039864
:101C0000022803D8FFE70020059024E004980399F8
:101C10000239FFF7BBFFADF80A009DF80A10049ADD
:101C20000398104410F8022C0020914201900DD12D
:101C3000FFE79DF80B00049A0399114411F8011C69
:101C4000401AB0FA80F040090190FFE7019800F0D7
:101C500001000590FFE7059806B080BD80B596B0FD
:101C6000012114910020129013910C900D900E9070
:101C70000F9011901090FFE742F24470C2F2000002
:101C80000CA903F057FFB0B1FFE74FF2B220C0F646
:101C90000100694608604FF2C151C0F601014FF2E0
:101CA000B722C0F601024FF2A923C0F601030020BB
:101CB0000EF038F9E0E701210A910020089009911F
:101CC000069102900390049005900E2007900B90CF
:101CD000FFE742F26C70C2F2000002A903F02AFF93
:101CE000B0B1FFE74FF2B220C0F6010069460860CC
:101CF0004FF2EA51C0F601014FF2B722C0F60102DD
:101D00004FF2A923C0F6010300200EF00BF9E0E723
:101D100016B080BD80B586B0FFF7A0FF4FF2B220AD
:101D2000C0F601000290694608604FF2DD61C0F61E
:101D300001014FF2BF22C0F6010203924FF2AC2321
:101D4000C0F601030493002005900EF0EBF800F0BC
:101D500045FA02990598039A049BEC46CCF80010CA
:101D60004FF29561C0F601010EF0DCF80299039A7A
:101D7000049B059840F61E0CC2F2000C8CF8000083
:101D8000EC46CCF800104FF2BD61C0F601010EF038
:101D9000C9F806B080BD000080B58CB00A9040F64E
:101DA0001E00C2F200000078C00718B1FFE7FFF77D
:101DB000B1FFFFE70A9800F067F818B9FFE70020C5
:101DC0000B905EE03F2018F0AFF809900998E0B959
:101DD000FFE70A9800684FF2B222C0F60102694696
:101DE0004A6008604FF20971C0F601014FF2B72254
:101DF000C0F601024FF2A923C0F6010300200290B1
:101E00000EF090F802980B903BE009983F21FEF706
:101E1000E2FB0A980068099908600A980079FFF7C0
:101E2000C5FD099948600A98B0F805000999088429
:101E3000099808300A99B1F805100391002104911E
:101E400005910691082207928DF8201003A9182207
:101E5000FEF742FB0A98B0F80700099948850A98EE
:101E6000D0F809000999C1F837000A98D0F80D0098
:101E70000999C1F83B00099800F03EF909980B90C8
:101E8000FFE70B980CB080BD80B58CB00A900A9823
:101E9000D0B9FFE74FF2B220C0F6010069460860F2
:101EA0004FF23A31C0F601014FF2B722C0F60102FB
:101EB0004FF2A923C0F60103002008900EF032F87B
:101EC00008988DF82F0013E10A980068A0B1FFE789
:101ED0000A98B0F8070078B1FFE70A98B0F8050053
:101EE00050B1FFE70A98007901281FD0FFE70A9850
:101EF000007902281AD0FFE74FF2B220C0F60100A5
:101F0000694608604FF22D51C0F601014FF2B72229
:101F1000C0F601024FF2A923C0F60103002007908A
:101F20000EF000F807988DF82F00E1E00A9800798C
:101F300001286AD1FFE742F2BC30C2F2000000780B
:101F400008281DD1FFE70A9800684FF2B222C0F6B8
:101F5000010269464A6008604FF24441C0F601013F
:101F60004FF2B722C0F601024FF2A923C0F60103D7
:101F7000002006900DF0D6FF06988DF82F00B7E0F0
:101F800000208DF82700FFE79DF8270042F2BC31C2
:101F9000C2F200010978884236DAFFE79DF827107F
:101FA00042F27C30C2F2000050F82100408D0A99C4
:101FB000B1F80710884220D1FFE70A990868B1F804
:101FC00007204FF2B223C0F6010369468B604A60D6
:101FD00008604FF21361C0F601014FF2B722C0F65C
:101FE00001024FF2A923C0F60103002005900DF075
:101FF00099FF05988DF82F007AE0FFE79DF82700FC
:1020000001308DF82700BFE7FFE70A980079022822
:102010006AD1FFE742F2BD30C2F200000078082822
:102020001DD1FFE70A9800684FF2B222C0F6010204
:1020300069464A6008604FF28441C0F601014FF2E0
:10204000B722C0F601024FF2A923C0F60103002017
:1020500004900DF067FF04988DF82F0048E00020F1
:102060008DF82600FFE79DF8260042F2BD31C2F24E
:1020700000010978884236DAFFE79DF8261042F21F
:102080009C30C2F2000050F82100408D0A99B1F84E
:102090000710884220D1FFE70A990868B1F80720A5
:1020A0004FF2B223C0F6010369468B604A600860B4
:1020B0004FF25461C0F601014FF2B722C0F601029F
:1020C0004FF2A923C0F60103002003900DF02AFF70
:1020D00003988DF82F000BE0FFE79DF826000130F4
:1020E0008DF82600BFE7FFE701208DF82F00FFE7FE
:1020F0009DF82F000CB080BD80B586B00590059886
:10210000406842F24471C2F2000188422DD1FFE7DB
:10211000059842F2BC31C2F200010B7842F27C32E7
:10212000C2F2000242F823000878013008700599D5
:1021300008680A8C4B8D4FF2B22CC0F6010C694630
:10214000C1F80CC08B604A6008604FF26A31C0F67B
:1021500001014FF2BF22C0F601024FF2AC23C0F6DC
:10216000010300200DF0DEFEFFE70598406842F213
:102170006C71C2F2000188422DD1FFE7059842F24E
:10218000BD31C2F200010B7842F29C32C2F2000271
:1021900042F82300087801300870059908680A8C15
:1021A0004B8D4FF2B22CC0F6010C6946C1F80CC041
:1021B0008B604A6008604FF2B031C0F601014FF207
:1021C000BF22C0F601024FF2AC23C0F6010300208B
:1021D0000DF0A8FEFFE706B080BD000080B582B01C
:1021E000FFE742F24470C2F2000004F063FBB0B1BA
:1021F000FFE74FF2B220C0F60100694608604FF2D7
:10220000C441C0F601014FF2B722C0F601024FF2FD
:10221000A923C0F6010300200DF084FEE1E7FFE7EB
:1022200042F26C70C2F2000004F044FBB0B1FFE770
:102230004FF2B220C0F60100694608604FF2E1415A
:10224000C0F601014FF2B722C0F601024FF2A923F6
:10225000C0F6010300200DF065FEE1E7FFE742F262
:102260004470C2F20000022103F08EFBB0B1FFE720
:102270004FF2B220C0F60100694608604FF2635188
:10228000C0F601014FF2B722C0F601024FF2A923B6
:10229000C0F6010300200DF045FEE0E7FFE742F243
:1022A0006C70C2F20000102103F06EFBB0B1FFE7CA
:1022B0004FF2B220C0F60100694608604FF2925119
:1022C000C0F601014FF2B722C0F601024FF2A92376
:1022D000C0F6010300200DF025FEE0E702B080BD4E
:1022E00080B588B006900698D0B9FFE74FF2B220CB
:1022F000C0F60100694608604FF2CF21C0F6010127
:102300004FF2B722C0F601024FF2A923C0F6010333
:10231000002003900DF006FE03988DF81F0042E0A8
:1023200000208DF81700FFE70698406803F00AFECA
:1023300028BBFFE79DF8170001308DF817009DF8C6
:10234000170065281ADBFFE74FF2B220C0F6010044
:10235000694608604FF2FE41C0F601014FF2B72214
:10236000C0F601024FF2A923C0F60103002002903B
:102370000DF0D8FD02988DF81F0014E0D4E701207D
:102380000490069A506802F10801223204AB03F06F
:1023900025FB20B9FFE701208DF81F0003E0002096
:1023A0008DF81F00FFE79DF81F0008B080BD0000FA
:1023B00080B58EB00C90002002900B900A9009908E
:1023C0000890079006900590049004218DF80F1056
:1023D0008DF80E000C9820B9FFE700208DF837002B
:1023E00058E000208DF80D00FFE79DF80D009DF8E6
:1023F0000F10884211DAFFE70C989DF80D2000EBD2
:102400008200D0F8B00008A941F82200FFE79DF84B
:102410000D0001308DF80D00E7E70C9800780228D8
:1024200020D1FFE704208DF80E0000208DF80D006C
:10243000FFE79DF80D009DF80E10884211DAFFE7C6
:102440000C989DF80D2000EB8200D0F8C00004A984
:1024500041F82200FFE79DF80D0001308DF80D00D6
:10246000E7E7FFE70C9B03F596709DF80F209DF8BA
:102470000E10D3F84CC093ED450AD3ED4A0A6B46D3
:10248000C3F804C0196008A904AB00F0EDFC8DF896
:102490003700FFE79DF837000EB080BD83B0019094
:1024A0008DF80310019820B9FFE700208DF80B008C
:1024B00008E09DF80300019981F8100101208DF8D2
:1024C0000B00FFE79DF80B0003B0704780B58CB0A0
:1024D0000B900B9890F8100101460991C0B1FFE7ED
:1024E0000998012804D0FFE70998022814D018E0C1
:1024F0000B98816C089102F0B5FA0898F0EE400A4A
:102500009FED5E0A0CF090F80B9880ED110A09E03F
:102510000B990020486405E00B99D1F8200148642C
:1025200000E0FFE70B9890ED0F0A8DED030A02F033
:1025300099FA19F0F9FC8DED020A0B9890ED100A4A
:102540008DED010A02F08EFA1AF0D4FF9DED011A0A
:102550009DED022AB0EE403A9DED030A21EE031AEA
:1025600020EE020A30EE410A40F68020C2F200005E
:10257000069080ED000A0B9890ED0F0A8DED070A8A
:1025800002F070FA1AF0B6FF8DED050A0B9890ED87
:10259000100A8DED040A02F065FA19F0C5FC9DEDF4
:1025A000041A9DED052A0699B0EE403A9DED070A02
:1025B00021EE031A20EE020A30EE010A81ED010A33
:1025C0000B98406C88600B9800F0B6F800208DF8EE
:1025D0002B00FFE79DF82B00032812DCFFE70B9888
:1025E0009DF82B1000EB8101D1F8B00091ED3C0A71
:1025F0000AF02EFFFFE79DF82B0001308DF82B002D
:10260000E8E70B98D0F8B0000BF038FA0B98007898
:1026100002281CD1FFE704208DF82A00FFE79DF86F
:102620002A00072812DCFFE70B989DF82A1000EB20
:102630008101D1F8B00091ED3C0A0AF009FFFFE7F3
:102640009DF82A0001308DF82A00E8E7FFE70B9893
:10265000FFF7AEFE0B98D0F8B0000BF00FFA0B9816
:102660000078022806D1FFE70B98D0F8C0000BF0E5
:1026700005FAFFE701200CB080BD00BF000000009C
:1026800080B582B0019000208DF80300FFE79DF82F
:102690000300032824DCFFE701989DF8031000EBFA
:1026A0008100D0F8B0100020486401989DF8031014
:1026B00000EB8100D0F8B00000690CF011F901982E
:1026C0009DF8031000EB8100D0F8B000C0680CF05A
:1026D00007F9FFE79DF8030001308DF80300D6E706
:1026E00002B080BD80B582B0019000208DF803005B
:1026F000FFE79DF8030003281BDCFFE701989DF826
:10270000031000EB8100D0F8B00000690CF00EF966
:1027100001989DF8031000EB8100D0F8B000C0686C
:102720000CF004F9FFE79DF8030001308DF8030079
:10273000DFE702B080BD000080B590B00F900F9829
:10274000007801460D9150B1FFE70D98012800F087
:102750008880FFE70D98022800F00E8158E340F6CC
:102760008020C2F200000C9090ED001A90ED012A3A
:1027700090ED020A9FED7B5A22EE052A9FED7A6AC0
:1027800021EE061A31EE022A0F9991ED011A91ED10
:10279000023A20EE030A30EE020AB3EE0E3A20EEC1
:1027A000030A9FED722A21EE021A80EE010A81EDE2
:1027B0003C0A90ED001A90ED014A90ED020A24EED9
:1027C000064A21EE061A31EE044A0F9991ED011ADC
:1027D00091ED027A20EE070A30EE040A20EE030A99
:1027E00021EE021A80EE010A81ED3D0A90ED001AF9
:1027F00090ED014A90ED020A24EE064A21EE051AF8
:1028000031EE044A0F9991ED011A91ED026A20EE22
:10281000060A30EE040A20EE030A21EE021A80EEC8
:10282000010A81ED3E0A90ED001A90ED014A90ED0B
:10283000020A24EE054A21EE051A31EE044A0F98E9
:1028400090ED011A90ED025A20EE050A30EE040ACE
:1028500020EE030A21EE021A80EE010A80ED3F0A03
:10286000D7E240F68020C2F200000B9090ED002AE3
:1028700090ED011A90ED020A31EE422A0F9991ED86
:102880000C1A91ED0D3A91ED0E4A33EE043A20EE1A
:10289000030A30EE020A9FED363A20EE030A9FED5E
:1028A000332A21EE021A80EE010A81ED3C0A90EDF6
:1028B000001A90ED014A90ED020AB1EE411A31EE94
:1028C000444A0F9991ED0C1A91ED0D5A91ED0E6A53
:1028D00035EE065A20EE050A30EE040A20EE030A11
:1028E00021EE021A80EE010A81ED3D0A90ED001AF8
:1028F00090ED014A90ED020A31EE444A0F9991EDB4
:102900000C1A91ED0D5A91ED0E6A35EE065A20EE35
:10291000050A30EE040A20EE030A21EE021A80EEC8
:10292000010A81ED3E0A90ED001A90ED014A90ED0A
:10293000020A31EE044A0F9890ED0C1A90ED0D5AF0
:1029400090ED0E6A35EE065A20EE050A30EE040AC6
:1029500020EE030A21EE021A80EE010A80ED3F0A02
:1029600057E200BFF4FD343FF4FD34BFC3F54840E7
:1029700000007042F704353F40F68020C2F20000AC
:10298000099090ED000A90ED021A0F9890ED022A3E
:1029900021EE021A1FED092A8DED0A2A21EE021AF4
:1029A00030EE410AF0EE000ACDED050A1AF070FA99
:1029B000DDED050A09989DED0A2A8DED000A90EDDE
:1029C000010A90ED021A0F9890ED023A21EE031AD7
:1029D00021EE021A30EE410A1AF05AFAB0EE401A0D
:1029E0009DED000A30EE010A1AF04CFEDDED050AFD
:1029F00009989DED0A2A1FED221A8DED071A20EE87
:102A0000010A0F9991ED011A1FED283A8DED083A50
:102A100021EE031A80EE010A81ED3C0A90ED001AC6
:102A200090ED020A0F9890ED023A20EE030A20EE94
:102A3000020A30EE010A1AF02BFA10EE100A1BF00F
:102A400059FF9DED0A2A0246099801920A4601990A
:102A500042EC101B8DED020B90ED010A90ED021A75
:102A60000F9890ED023A21EE031A21EE021A30EE91
:102A7000410A10EE100A1BF03DFF41EC100B9FEDD8
:102A8000E61B19F0D5FB9DED021B51EC110B53EC2D
:102A9000102B1BF057F841EC100B51EC100B1BF0F6
:102AA0001FF800EE100A1AF0EDFDDDED050A9DEDB0
:102AB000071A9DED083A09989DED0A2A20EE010AB1
:102AC0000F9991ED011A21EE031A80EE010A81EDB2
:102AD0003D0A90ED001A90ED020A0F9890ED023A2F
:102AE00020EE030A20EE020A30EE010A1AF0D0F9B5
:102AF000DDED050A09989DED0A2A8DED040A90ED99
:102B0000011A90ED020A0F9890ED023A20EE030AA6
:102B100020EE020A30EE010A1AF0BAF9B0EE401ABD
:102B20009DED040A30EE010A1AF0ACFDDDED050A58
:102B30009DED071A9DED083A09989DED0A2A20EEB1
:102B4000010A0F9991ED011A21EE031A80EE010A94
:102B500081ED3E0A90ED000A90ED021A0F9890ED7B
:102B6000023A21EE031A21EE021A30EE410A1AF05F
:102B70008FF9DDED050A09989DED0A2A8DED060A0B
:102B800090ED011A90ED020A0F9890ED023A20EEB6
:102B9000030A20EE020A30EE010A1AF079F9B0EECB
:102BA000401A9DED060A30EE010A1AF06BFD9DED0C
:102BB000071A9DED082A09989DED0A3A20EE010AB0
:102BC0000F9991ED011A21EE021A80EE010A81EDB2
:102BD0003F0A90ED002A90ED010A90ED021A0F983D
:102BE00090ED024A21EE041A21EE431A31EE000A5A
:102BF00071EE020A19F042F809989DED0A3A0F9910
:102C000091ED031A30EE010A81ED400A90ED002AA1
:102C100090ED010A90ED021A0F9890ED024A21EE14
:102C2000041A21EE031A30EE410A71EE020A19F07D
:102C300025F809989DED0A3A0F9991ED041A30EEA6
:102C4000010A81ED410A90ED002A90ED010A90ED14
:102C5000021A0F9890ED024A21EE041A21EE031A8F
:102C600031EE000A71EE020A19F008F809989DED9C
:102C70000A3A0F9991ED051A30EE010A81ED420AE8
:102C800090ED001A90ED010A90ED022A0F9890ED58
:102C9000024A22EE042A22EE032A32EE000A71EEE4
:102CA000420A18F0EBFF0F9890ED061A30EE010A79
:102CB00080ED430A00200E90FFE70E98032800F3F2
:102CC000A680FFE740F68020C2F2000090ED000AE7
:102CD000B5EE400AF1EE10FA14D1FFE740F680207D
:102CE000C2F2000090ED010AB5EE400AF1EE10FAD2
:102CF00008D1FFE70F980E9900EB8101C869C1F870
:102D00000001FFE70F980E9900EB810090ED400A5B
:102D1000D0F8C00090ED061A30EE410AB0EEC00ABD
:102D20009FED3F1AB4EE410AF1EE10FA6ADDFFE7BB
:102D30000F980E9900EB810090ED3C0AB1EE400A2D
:102D400080ED3C0A0F980E9900EB810090ED400A4F
:102D5000B5EE400AF1EE10FA0DDDFFE70F980E997F
:102D600000EB810090ED400A9FED2F1A30EE010A32
:102D700080ED400A0CE00F980E9900EB810090ED79
:102D8000400A9FED281A30EE010A80ED400AFFE765
:102D90000F980E9900EB810090ED400A9FED211AEB
:102DA00030EE010ADFED210A19F0E8F90F980E99CB
:102DB00000EB810080ED400A0F980E9900EB810036
:102DC00090ED400AB5EE400AF1EE10FA0DDAFFE799
:102DD0000F980E9900EB810090ED400A9FED131AB9
:102DE00030EE010A80ED400AFFE70F980E9900EBE4
:102DF000810090ED400A9FED0C1A30EE010A80ED43
:102E0000400AFFE7FFE70E9801300E9055E700E01B
:102E1000FFE710B080BD00BF0000000000000040D0
:102E2000D80FC93FDC0F4940DC0F49C0DC0FC94057
:102E300082B08DED010A9DED010AB5EE400AF1EE7A
:102E400010FA05DBFFE79DED010A8DED000A06E0B3
:102E50009DED010AB1EE400A8DED000AFFE79DED00
:102E6000000A02B07047000080B58CB084460F980D
:102E70000E98CDF828C009918DF8232007938DF87E
:102E80001B008DED050ACDED040A002002900A9882
:102E900020B9FFE700208DF82F00BBE00A980078EA
:102EA000C00720B9FFE701208DF82F00B2E0059898
:102EB00003900F98D0B1FFE70A9890ED010AB5EEA4
:102EC000400AF1EE10FA11DDFFE70F980A9991ED33
:102ED000010ADDED040A0BF0A7FBB0EE401A9DEDF0
:102EE000030A30EE010A8DED030AFFE79DED030AA8
:102EF000DFED4A0A9FED4A1A00F02AFB8DED030A26
:102F000003980A99C8660A990020486703980A99A5
:102F100008679DF81B0080B3FFE70A9890F8280027
:102F200058B3FFE79DED030A8DED000A0A9890ED76
:102F3000020ADFED3A0AB7EE001A00F009FBB0EE24
:102F4000401A9DED000A20EE010A8DED020A02985A
:102F50000A9948670A9B03F1280007999DF81B20EE
:102F60009DED020A583300F05DF8013020B9FFE70B
:102F700000208DF82F004DE00BE00A9901F1580078
:102F800091F828109DF81B209FED240A00F05CFBAF
:102F9000FFE79DED030A0A9890ED191A30EE410AF9
:102FA0008DED010A9DED010AB5EE400AF1EE10FA31
:102FB00003DAFFE700200190FFE701980A9908670C
:102FC0009DF82300B8B1FFE70A98007B98B1FFE7AE
:102FD0000A9B03F10C0009999DF823209DED010A3D
:102FE000443300F01FF8013020B9FFE700208DF8CE
:102FF0002F000FE00AE00A9901F14400097B9DF8D7
:1030000023209DED010A00F01FFBFFE701208DF852
:103010002F00FFE79DF82F000CB080BD00000000DE
:10302000FFFF7F7F80B5AAB0289027918DF89B2065
:103030008DED250A2493289818B1FFE7279820B929
:10304000FFE7FF208DF8A7007AE29DF89B0068B9A2
:10305000FFE72498289909789DED250A002202921D
:1030600000F0F2FA02988DF8A70069E29DF89B0043
:10307000052804D3FFE7FE208DF8A70060E224981E
:10308000289909789DF89B209DED250A00F0DCFA2F
:1030900000208DF86F00FFE79DF86F009DF89B10F2
:1030A000884233DAFFE727989DF86F1050F8210027
:1030B00020B9FFE7FF208DF8A70041E228980430EF
:1030C00027999DF86F2051F82210D1ED090A91ED52
:1030D000110A00F065FA9DF86F1020A800EB81013D
:1030E00081ED000A9DF86F1000EB810090ED001A51
:1030F000249890ED020A30EE010A80ED020AFFE703
:103100009DF86F0001308DF86F00C5E728980078B2
:1031100058B1FFE7249890ED020A9DED251AB4EE10
:10312000410AF1EE10FA07DCFFE724998868C860CD
:1031300000208DF8A70003E228980078012840F0CD
:103140002381FFE700201A9019908DF863008DF815
:103150006F00FFE79DF86F009DF89B10884230DA02
:10316000FFE79DF86F1020A800EB810090ED000AAA
:10317000B5EE400AF1EE10FA0EDCFFE79DF86F1095
:1031800020A800EB810090ED001A9DED1A0A30EEA8
:10319000010A8DED1A0A0DE09DF86F1020A800EBD2
:1031A000810090ED001A9DED190A30EE010A8DEDB7
:1031B000190AFFE7FFE79DF86F0001308DF86F00F7
:1031C000C8E79DED190A9FEDE01AB4EE410AF1EE51
:1031D00010FA04DCFFE724990020086113E09DED5C
:1031E000250A9DED1A1A30EE410A9DED191A80EE5E
:1031F000010ADFEDD60AB7EE001A00F0A9F924980B
:1032000080ED040AFFE700208DF86F00FFE79DF8CE
:103210006F009DF89B10884280F2AD80FFE79DF81B
:103220006F1020A850F82110179127999DF86F2052
:1032300051F82210496A16919DF86F1000EB810039
:1032400090ED000AB5EE400AF1EE10FA0FDDFFE74F
:103250009DF86F1020A800EB810090ED000A2498E3
:1032600090ED041A20EE010A8DED170AFFE7289869
:1032700040691590289890ED021A90ED040A9DED92
:10328000162A20EE020A30EE010A8DED140A289863
:103290009DED162A90ED013A90ED031A90ED060A85
:1032A00021EE021A31EE031A20EE020A20EE020A83
:1032B00030EE010A9DED171A30EE410A8DED130A2A
:1032C0009DED150ADDED140A9DED131A0DA800F011
:1032D000AFFA0D980E990F9A1292119110901098C2
:1032E00070B9FFE79DF86F201CA9002041F822006B
:1032F0002499C8780130C870FD208DF8630011E072
:1033000027989DF86F1050F8210090ED110A10A831
:1033100000F0C2F99DF86F101CA800EB810080ED51
:10332000000AFFE727989DF86F2050F822001CA99B
:1033300001EB820191ED000A0AF03EFB289804306F
:1033400027999DF86F2051F8221091ED110ADDEDBB
:10335000160A00F025F9B0EE401A249890ED030A01
:1033600030EE010A80ED030AFFE79DF86F0001309F
:103370008DF86F004BE79DF86300249948709DF825
:1033800063008DF8A700DBE028980078022840F061
:10339000D380FFE700200C900B909DED250AB1EE45
:1033A000400A8DED0A0A4FF07E5109918DF82300F5
:1033B0008DF86F00FFE79DF86F009DF89B10884225
:1033C00054DAFFE727989DF86F1050F82100406C01
:1033D000079027989DF86F1050F82100406A0690DA
:1033E000289890ED050A9DED072A20EE020A9DED32
:1033F0000C1A20EE020A30EE010A8DED0C0A289814
:103400009DED072A90ED020A90ED041A21EE021AB2
:103410009DED063A21EE031A20EE020A30EE011A63
:103420009DED0B0A30EE010A8DED0B0A28989DEDFB
:10343000062A90ED013A90ED031A90ED060A21EE6E
:10344000021A31EE031A20EE020A20EE020A30EED2
:10345000011A9DED0A0A30EE010A8DED0A0AFFE716
:103460009DF86F0001308DF86F00A4E79DED0C0A08
:10347000DDED0B0A9DED0A1A03A8019000F0D8F9C2
:10348000019809A900F048F98DF823009DF923005F
:1034900018B1FFE700200990FFE709982499086117
:1034A0009DF823002499487000208DF86F00FFE7F5
:1034B0009DF86F009DF89B10884238DAFFE7279946
:1034C0009DF86F0051F8201091ED110A9DED091A39
:1034D00020EE010A1CA901EB800080ED000A27986C
:1034E0009DF86F2050F8220001EB820191ED000A57
:1034F0000AF062FA2898043027999DF86F2051F855
:103500002210D1ED090A91ED110A00F049F8B0EE50
:10351000401A249890ED030A30EE010A80ED030A68
:10352000FFE79DF86F0001308DF86F00C0E79DF850
:1035300023008DF8A70003E0FF208DF8A700FFE728
:103540009DF9A7002AB080BDBD3786350000000078
:1035500084B08DED020ACDED010A8DED001A9DEDCE
:10356000020A9DED011AB4EE410AF1EE10FA03DAF7
:10357000FFE7019803900FE09DED020A9DED001A10
:10358000B4EE410AF1EE10FA03DDFFE70098039074
:1035900002E002980390FFE79DED030A04B0704734
:1035A00083B002908DED010ACDED000A02989DEDE9
:1035B000013A90ED004A90ED012A90ED021A90ED4B
:1035C000030A22EE032A32EE044A9DED002A21EE80
:1035D000021A31EE041A20EE030A20EE020A30EE3F
:1035E000011A90ED040A20EE030A20EE030A30EEE1
:1035F000011A90ED050A20EE020A20EE020A30EED2
:10360000010A03B07047000080B584B002900191B8
:10361000029818B1FFE7019820B9FFE700208DF864
:103620000F000CE002987821FCF7F7FF029801994F
:103630004422FCF796FF01208DF80F00FFE79DF86C
:103640000F0004B080BD000083B002908DF8071019
:103650008DF806208DED000A029808B9FFE718E002
:10366000029900200861C8608860486008609DF881
:103670000710029A1170029948709DF8060002998D
:10368000887000980299486002994FF07E50086156
:10369000FFE703B07047000080B584B002908DED65
:1036A000010A0298006818B9FFE7002003902EE095
:1036B00002980068012804D1FFE70298406803904F
:1036C00025E0029890ED010A9DED011A30EE410AC5
:1036D000FFF7AEFB8DED000A029890ED020A9DED1A
:1036E000011A30EE410AFFF7A3FBB0EE401A9DED40
:1036F000000AB4EE410AF1EE10FA04DCFFE702988A
:103700004068039003E0029880680390FFE79DED16
:10371000030A04B080BD000080B586B00490039118
:10372000002002908DF80700039820B9FFE7FF20E2
:103730008DF8170072E00498006828B3FFE704983A
:1037400090ED010A9FED371AB4EE410AF1EE10FA3E
:103750001ADBFFE7049890ED010A9FED331AB4EEEF
:10376000410AF1EE10FA0FDCFFE7049890ED010A30
:10377000DFED2E0AB7EE001AFFF7EAFE8DED020A22
:1037800001208DF80700FFE704980068022837D36E
:10379000FFE7049890ED020A9FED221AB4EE410A69
:1037A000F1EE10FA2CDBFFE7049890ED020A9FED92
:1037B0001E1AB4EE410AF1EE10FA21DCFFE704987C
:1037C00090ED020ADFED190AB7EE001AFFF7C0FE0E
:1037D0008DED000A9DF80700C00750B1FFE79DED91
:1037E000000A9DED021AB4EE410AF1EE10FA03DD73
:1037F000FFE700980290FFE701208DF80700FFE740
:103800000298039908609DF80700C1076FF0030054
:10381000002918BF00208DF81700FFE79DF9170059
:1038200006B080BDBD3786B50800803F00000000AF
:1038300080B586B0014601918DED050ACDED040AF3
:103840008DED031A00200860486088609DED050A30
:10385000FFF7EEFA9FED471AB4EE410AF1EE10FAC7
:103860001BDCFFE79DED040AFFF7E2FA9FED411A2A
:10387000B4EE410AF1EE10FA01DCFFE777E00198BF
:10388000012101609DED030AB1EE400A9DED041A8D
:1038900080EE010A80ED010A69E09DED040A9DEDCC
:1038A000051AB9EE002A21EE021A9DED032A21EE37
:1038B000021A20EE000A30EE010A8DED020A9DED9B
:1038C000020A9FED2D1AB4EE410AF1EE10FA01DA68
:1038D000FFE74CE09DED020AB5EE400AF1EE10FA6A
:1038E00003DAFFE700200290FFE79DED020A9FED5B
:1038F000211AB4EE410AF1EE10FA10DCFFE701984C
:10390000012101609DED040AB1EE400A9DED051A0A
:1039100031EE011A80EE010A80ED010A27E09DEDEB
:10392000020A19F0AFFE01988DED020A0221016032
:103930009DED041A9DED020A30EE410A9DED051A37
:1039400031EE011A80EE010A80ED010A9DED040AB4
:10395000B1EE400A9DED021A30EE410A9DED051AC6
:1039600031EE011A80EE010A80ED020AFFE706B08F
:1039700080BD00BFBD378635BD3786B5B0B58AB0CE
:1039800008904FF4D270019016F0CEFA019907908A
:103990000798FCF742FE0898007807990870089885
:1039A000D0F898040799C1F818010898D0F8A00435
:1039B0000799C1F820010898D0F89C040799C1F82C
:1039C0001401089800F204400BF02EF8079988645F
:1039D000089800F586600BF027F80799C8640799E6
:1039E0000291DDF820E0CDF80CE0DEF85C04DEF8B2
:1039F0006024DEF86434DEF868C4DEF86C44DEF877
:103A000070548D614C61C1F810C0CB608A60486011
:103A1000DEF87404DEF87824DEF87C34DEF880C446
:103A2000DEF884E4C1F82CE0C1F828C04B620A62D9
:103A3000C8610799089BD3F88804D3F88C24D3F87D
:103A400090348B634A630863089890F8940407994C
:103A500081F81001079900200490C1F8240107990A
:103A6000C1F82801079800F59670089901F2A44161
:103A7000FFF7CAFD04980690FFE70698032825DCA7
:103A8000FFE70798069901EB410200EB82010898D5
:103A900000EB8203D3F8A403D3F8A823D3F8AC3304
:103AA0008B654A650865089A0698742100FB012019
:103AB000043009F0FFFE0799069A01EB8201C1F874
:103AC000B000FFE7069801300690D6E70798007827
:103AD000022843D1FFE704200590FFE70598072857
:103AE0003BDCFFE70798059901EB410200EB8201FF
:103AF000089800EB8203D3F8A403D3F8A823D3F8E3
:103B0000AC338B654A6508650898059A6FF00F011C
:103B100001EB82031844D0F87404079A1A44D06168
:103B20000898059A01EB82021044D0F864040799C2
:103B30001144C860089A0598742100FB01200430E4
:103B400009F0B8FE0799059A01EB8201C1F8B000AF
:103B5000FFE7059801300590C0E7FFE7079828B117
:103B6000FFE7089800F00EF830B9FFE7079816F065
:103B70004BFC0020099002E007980990FFE70998A4
:103B80000AB0B0BD82B000900098007828B1FFE77D
:103B90000098007802280FD1FFE7009800F58C60AC
:103BA00090ED000AB5EE400AF1EE10FA04D1FFE7FD
:103BB00000208DF8070022E00098007801281AD133
:103BC000FFE7009800F28C4090ED000AB5EE400A45
:103BD000F1EE10FA0BD0FFE7009800F5926090ED3F
:103BE000000AB5EE400AF1EE10FA04D1FFE700201A
:103BF0008DF8070003E001208DF80700FFE79DF82E
:103C0000070002B07047000081B08DF803008DF806
:103C100002109DF803009DF80210884202D0FFE7D1
:103C2000FFE7FEE701B0704780B582B001900198D0
:103C30002121FCF721FC202802D3FFE7FFE7FEE764
:103C400002B080BD84B00290ADF806100020ADF83F
:103C50000400029820B1FFE7BDF8060020B9FFE795
:103C60000020ADF80E0035E0FFE747F21410C2F275
:103C70000000818C0020012900900ADBFFE7BDF8DD
:103C80000410BDF8062000209142B8BF012000902A
:103C9000FFE70098C007C0B1FFE747F21411C2F276
:103CA0000001488C085C029ABDF80430D054488C5E
:103CB000013000F01F004884888C01388884BDF8EA
:103CC00004000130ADF80400CFE7BDF80400ADF802
:103CD0000E00FFE7BDF80E0004B0704780B584B059
:103CE000ADF80A00ADF80810BDF80A0020B1FFE7F2
:103CF000BDF8080018B9FFE7002003902EE010205F
:103D0000FCF7ECFA0190019818B9FFE70020039046
:103D100024E0BDF80A00BDF808104843FCF7DEFABD
:103D2000019908600198006830B9FFE70198FCF735
:103D300004FB0020039011E0019900208880019984
:103D4000C880BDF80A10019A1181BDF80810019AC7
:103D500051810199888101980390FFE7039804B08D
:103D600080BD000080B586B004908DF80F100498D7
:103D7000FFF75AFF40F2D050C2F200000290FFE776
:103D80000298406AA0B1FFE70298406A0290029848
:103D90000499FCF769FC50B9FFE7029890F82100FC
:103DA0009DF80F10FFF730FF029805901AE0E7E743
:103DB0002C200190FCF792FA0199029A5062029825
:103DC000406AFCF72AFC9DF80F000299496A81F8C5
:103DD00021000298406A0499FCF75AFB0298406A55
:103DE0000590FFE7059806B080BD000080B588B05B
:103DF00006908DF8171006989DF81710FFF7B2FF80
:103E000004901420FCF76AFA0390039900200190B3
:103E10000861C8608860486008609DF817000399D1
:103E200008719DF817100120FFF758FF014601980F
:103E3000039A116003990873039948730399086101
:103E40000498806A30B9FFE7039804998862039860
:103E5000079011E00498806A0290FFE7029880685A
:103E600020B1FFE7029880680290F7E70398029973
:103E7000886003980790FFE7079808B080BD0000AE
:103E800080B542F2F470C2F2000002F00DFE80BD77
:103E900080B542F29470C2F2000002F005FE80BDCF
:103EA00082B001900198007810384AF6AB21CAF62A
:103EB000AA21A0FB01100009009000994FF2D81030
:103EC000C0F60100405C0199C8650098042807D33A
:103ED000FFE701990868042262F30900886506E09B
:103EE0000199086840F2FF3290438865FFE7019826
:103EF000806D02B07047000086B0059000208DF8FC
:103F000013000598806A03900598806910BBFFE74D
:103F10000398029003281BD80299DFE801F0020DF4
:103F20000218059890F82F00C00720B1FFE7012084
:103F30008DF81300FFE70CE00598C06AB0F1C07F70
:103F400004D1FFE701208DF81300FFE701E000E056
:103F5000FFE745E005988069B0F5005F25D1FFE7F0
:103F60000398019003281ED80199DFE801F00206AA
:103F7000021101208DF8130016E0059890F82F002B
:103F8000C00720B1FFE701208DF81300FFE70BE029
:103F90000598C06AB0F1C07F04D1FFE701208DF819
:103FA0001300FFE700E0FFE719E003980090032803
:103FB00004D3FFE70098032804D00EE001208DF819
:103FC00013000BE0059890F82F00C00720B1FFE721
:103FD00001208DF81300FFE700E0FFE7FFE7FFE7B0
:103FE0009DF8130006B0704784B0039002910192CF
:103FF000009303980168086820F480200860009806
:1040000003990968486003988068402809D1FFE750
:104010000198039909688860029803990968C86043
:1040200008E0029803990968886001980399096873
:10403000C860FFE704B0704780B582B001904EF6CB
:10404000FC51CEF20001086840F08070086041F237
:104050000401CEF200010020086041F20002CEF21D
:104060000002116841F001011160019944F24022FF
:10407000C0F20F024A4340F6A411C2F200010A60E6
:104080000A6844F6D353C1F26203A2FB03329209D9
:1040900040F6A813C2F200031A6009684DF6836265
:1040A000C4F21B32A1FB0221890C40F6AC12C2F211
:1040B0000002116040F6BC11C2F20001086000F07D
:1040C0004FFB02B080BD000080B584B00390039820
:1040D000B0B9FFE74FF2B220C0F6010069460860B0
:1040E0004FF69F41C0F601014FF2B722C0F6010220
:1040F0004FF2A923C0F6010300200BF013FF49E0A3
:104100000398407AC007B0B9FFE74FF2B220C0F67B
:104110000100694608604FF61951C0F601014FF2DF
:10412000C722C0F601024FF2AF23C0F60103002000
:104130000BF0F8FE2EE00398007AC007C8B1FFE745
:104140004FF2B220C0F60100694608604FF64751B1
:10415000C0F601014FF2C722C0F601024FF2AF23B1
:10416000C0F6010300200BF0DDFE039800F06CF8B0
:1041700010E017F08FF9029002984FF47A714843DB
:1041800044F6D351C1F26201A0FB011080090399EA
:104190004860FFE704B080BD80B586B00490049805
:1041A000C8B9FFE74FF2B220C0F6010069460860C7
:1041B0004FF66D51C0F601014FF2B722C0F6010271
:1041C0004FF2A923C0F60103002002900BF0AAFED3
:1041D0000298059035E0142015F0A6FE0390039890
:1041E000C8B9FFE74FF2B220C0F601006946086087
:1041F0004FF6C241C0F601014FF2B722C0F60102EC
:104200004FF2A923C0F60103002001900BF08AFEB3
:104210000198059015E0049840680399C8600498D7
:104220008068039908610399002048720399087215
:1042300004990968039A11600399486003980590EE
:10424000FFE7059806B080BD80B582B00190019867
:10425000B0B9FFE74FF2B220C0F60100694608602E
:104260004FF69F41C0F601014FF2B722C0F601029E
:104270004FF2A923C0F6010300200BF053FE11E01A
:104280000199012048720199002008720198006983
:1042900020B1FFE7019801698847FFE70198FFF720
:1042A00013FFFFE702B080BD80B584B00390039890
:1042B000B0B9FFE74FF2B220C0F6010069460860CE
:1042C0004FF69F41C0F601014FF2B722C0F601023E
:1042D0004FF2A923C0F6010300200BF023FE31E0CA
:1042E0000398407AC007B0B1FFE74FF2B220C0F6A2
:1042F0000100694608604FF6EB41C0F601014FF23C
:10430000C722C0F601024FF2AF23C0F6010300201E
:104310000BF008FE16E00399012048720399002073
:10432000087217F0B7F8029002984FF47A71484378
:1043300044F6D351C1F26201A0FB01108009039938
:104340004860FFE704B080BD80B58AB0FFE70DF19B
:1043500027000121FFF776FC012840F0E180FFE70C
:1043600040F6F110C2F2000000780146089120B139
:10437000FFE70898012823D0D1E09DF82700732893
:104380001DD1FFE740F6D011C2F2000106910020D6
:104390000790C861886148610861C86088604860AA
:1043A00008607320087040F6F011C2F2000101208D
:1043B000087040F6F111C2F200010870FFE7AEE0AC
:1043C00040F6F010C2F2000000781F2800F384804D
:1043D000FFE79DF8271040F6F010C2F200000378C6
:1043E00040F6D012C2F20002D154017801310170BE
:1043F000007820286FDBFFE740F6D010C2F2000003
:104400000590C07F4FF2B222C0F6010269464A60B1
:1044100008604FF27F71C0F601014FF27772C0F66B
:1044200001024FF27473C0F6010300200BF07AFD15
:10443000059843F24001C2F200010860C07F652880
:1044400021D1FFE740F6D010C2F20000049040787E
:104450004FF2B222C0F6010269464A6008604FF28C
:10446000C171C0F601014FF2BF22C0F601024FF246
:10447000AC23C0F6010300200BF054FD04984078F3
:1044800012F0A4FC1BE040F6D010C2F20000C07F86
:104490004FF2B222C0F6010269464A6008604FF24C
:1044A000F071C0F601014FF2C722C0F601024FF2CF
:1044B000AF23C0F6010300200BF034FDFFE740F608
:1044C000F111C2F200010020087040F6F011C2F2B2
:1044D00000010870FFE721E04FF2B220C0F60100B2
:1044E000694608604FF62001C0F601014FF2C7226D
:1044F000C0F601024FF2AF23C0F601030020039083
:104500000BF010FD039840F6F111C2F200010870A3
:1045100040F6F011C2F200010870FFE7FFE716E76E
:104520000AB080BD7047000080B584B00290019150
:10453000029818B1FFE7019820B9FFE700208DF835
:104540000F0026E0029807F0DBFB20B1FFE7002018
:104550008DF80F001DE002990A688888498900FBE0
:104560000120009001980099029A5289FBF7B4FF4C
:1045700002998888431C0A89B3FBF2F000FB1230D1
:104580008880029988890138888101208DF80F0080
:10459000FFE79DF80F0004B080BD000080B588B033
:1045A00007900798D0F817020190079800F58271DC
:1045B0000DF10A001222FBF78FFF9DF80F1000206B
:1045C000B0EB911F15D1FFE701980068006806F075
:1045D000E7FE079901F58270B1F80412FBF7FBFFC3
:1045E000079A106802F58271B2F8042207F0DCFA2B
:1045F000FFE79DF80A009DF80B1040EA01206FF3D9
:10460000DF20A0F580600199C8819DF80B009DF81E
:104610000C10C00840EA41106FF3DF20A0F5806065
:10462000019908829DF80C009DF80D209DF80E1050
:10463000800940EA820040EA81206FF3DF20A0F584
:104640008060019948829DF80E009DF80F10400887
:1046500040EAC1106FF3DF20A0F5806001998882E5
:104660009DF80F008009019988759DF80F00C0F32F
:1046700001100199C8759DF81A009DF81B1040EAB9
:104680000120A0F58060019908839DF810009DF835
:10469000111040EA01200199C8809DF812009DF890
:1046A000131040EA0120019908819DF814009DF83B
:1046B000151040EA0120019948819DF816000199E2
:1046C00008739DF81700019948739DF818009DF82C
:1046D000191040EA01200199888008B080BD0000CF
:1046E00080B58AB008901A2015F01EFC0790079834
:1046F00018B9FFE7002009902EE0079900200190EB
:10470000088348610861C86088604860086008994B
:10471000CDF8091002218DF80D101221ADF80E1000
:1047200044F29D51C0F60001049107990691079942
:1047300008600DF1090012F04FFD07990860079815
:10474000006830B9FFE7079815F05EFE0020099079
:1047500002E007980990FFE709980AB080BD0000C1
:1047600081B040F6F810C2F20000007870BBFFE79D
:1047700040F6F811C2F200010120087041F2040075
:10478000CEF2000000680090009840F6B811C2F226
:1047900000010968884208D2FFE740F6BC11C2F266
:1047A0000001086801300860FFE741F20400CEF222
:1047B0000000006840F6B811C2F20001086040F63F
:1047C000F811C2F2000100200870FFE701B0704745
:1047D00083B08DED020A41F20400CEF200000068C1
:1047E000019002980090FFE741F20400CEF2000031
:1047F00000680199401A00EE100AB8EE400A9DEDDB
:10480000001A40F6A410C2F2000090ED002AB8EEA3
:10481000422A21EE021AB4EE410AF1EE10FA01DA50
:10482000FFE7E1E703B0704780B584B0039041F241
:104830000400CEF200000068029002980399096813
:10484000401A00EE100AB8EE400A40F6A410C2F278
:10485000000090ED001AB8EE411A80EE010A8DEDCD
:10486000010A029803990860FFF77AFF9DED010A9B
:1048700004B080BD80B582B000F028F840F6782002
:10488000C2F2000090ED000AB8EE401A818800EEF6
:10489000101AB8EEC00A9FED0B2A20EE020A30EE85
:1048A000011AC08800EE100AB8EEC00A9FED062A71
:1048B00020EE020A30EE010A8DED010A9DED010A9B
:1048C00002B080BD6F12833ABD378635B0B586B071
:1048D00041F20400CEF2000000680590FFF740FFAF
:1048E00040F6BC10C2F20000016805980023029354
:1048F0004FF0FF3C1A46E1FB0C0240F6B011C2F249
:10490000000100914A6008600868496840F6A414F4
:10491000C2F200042268FBF737FD029B02468C4678
:10492000009940F60020C2F20000C0F804C0026006
:10493000D1F800C04968D0F800E042682468AEFBB6
:1049400004E502FB0452BCEB0E0C61EB020240F6E4
:104950000821C2F200010391C1F800C04A6000685A
:1049600040F67822C2F2000204921060086849689A
:1049700040F6A812C2F2000201921268FBF704FD91
:10498000DDF804C0029B049A0146039891800168F7
:1049900040689288DCF800C002FB0CF28A1A60F1D1
:1049A000000040F61021C2F200010A604860086869
:1049B000496840F6AC12C2F200021268FBF7E4FC50
:1049C0000499C88006B0B0BD80B5082002F066FB2F
:1049D00080BD000080B584B002900191029818B1AA
:1049E000FFE7019820B9FFE700208DF80F0030E0C5
:1049F000029807F09BF970B1FFE702998888431C81
:104A00000A89B3FBF2F000FB123088800299888992
:104A100001388881FFE702990A68C888498900FB44
:104A20000120009000980199029A5289FBF754FDE9
:104A30000299C888431C0A89B3FBF2F000FB1230CC
:104A4000C880029988890130888101208DF80F0083
:104A5000FFE79DF80F0004B080BD000072B6FFE7CD
:104A6000FEE7000081B00090009890ED461A90EDAE
:104A7000470A30EE410A42F2C830C2F2000080ED2F
:104A8000000A90ED000A01B07047000080B584B0C4
:104A90000290029840B1FFE70298406820B1FFE71A
:104AA0000298C06820B9FFE700208DF80F0019E0D8
:104AB0000298416891ED000A90ED001A30EE410A2B
:104AC0008DED010A0298C068DDED010A9FED070A2D
:104AD00009F0AAFD0299C868406D086101208DF8AF
:104AE0000F00FFE79DF80F0004B080BD000000003C
:104AF00084B00090009890ED051A90ED060A90EDB4
:104B0000073A90ED082A21EE031A20EE020A30EE51
:104B1000410A30EE000A8DED010A009890ED051A69
:104B200090ED063A90ED070A90ED082A21EE031A5F
:104B300020EE020A30EE010A30EE000A8DED020A84
:104B4000009890ED051A90ED080A21EE011ABEEECC
:104B5000002A31EE021A20EE000A30EE010A30EE91
:104B6000000A8DED030A9DED010ADDED020A9DEDBF
:104B7000031A04B07047000085B00090009B58698C
:104B80009969DA691B6A04930392029101909DED81
:104B9000010ADDED020A9DED031ADDED041A05B0F0
:104BA0007047000080B586B005904EF6286CC0F6C0
:104BB000010CDCF80000DCF80410DCF80820DCF85C
:104BC0000C30DCF810C0CDF810C0039302920191B4
:104BD00000900598694600F09BF8059800F002F8EF
:104BE00006B080BD10B58BB00A904FF07E52069291
:104BF00000200790089009900A9B0699DDF81CC0D8
:104C0000DDF820E0099C1C62C3F81CE0C3F818C062
:104C100059610390049005900A9B0399DDF810C038
:104C2000DDF814E0C3F82CE0C3F828C059620A99F3
:104C300081F830000090019002900A9B0099DDF805
:104C400004C0DDF808E0C3F83CE0C3F838C059639D
:104C50000A9981F840000A9948640A9B1969996485
:104C60000A9B4FF08041D9640A9B012183F85410BC
:104C70000A9991ED011AB0EE000A30EE410AB0EE49
:104C8000081A80EE010A81ED140A42F69C71C2F204
:104C900000014CF6CD43C3F6CC530B6041F26F2CB0
:104CA000C3F6033CC1F814C04A608860C86008615C
:104CB0004DF20A7CC3F6234CC1F820C04FF07C5C57
:104CC000C1F81CC08B614B634A628862C86208638A
:104CD0008863C8630864486488640BB010BD000032
:104CE00085B0CDED041A8DED031ACDED020A8DEDE0
:104CF000010A009000990198029A039BDDF810C008
:104D0000C1F820C0CB618A61486105B070470000DE
:104D100080B584B0039002910298007803990870DE
:104D20000298406803994860029890ED020AB5EE37
:104D3000400AF1EE10FA05D1FFE79FED370A8DED3D
:104D4000010A09E0029890ED020A9FED321A20EE66
:104D5000010A8DED010AFFE79DED010A039880ED40
:104D6000020A029890ED030AB5EE400AF1EE10FA3D
:104D700005D1FFE79FED280A8DED000A11E00298AA
:104D800090ED030A13F05CF918F0B4FBB6EE001ACC
:104D900020EE010AF0EE000A18F07AF88DED000A14
:104DA000FFE79DED000A039880ED030A0298006971
:104DB00003990861039908698864029890ED010AD3
:104DC000B5EE400AF1EE10FA04D0FFE70298006950
:104DD00038B9FFE703994FF6FF70C7F67F70C860D8
:104DE000FFE7039890F85400C00720B9FFE7039944
:104DF0004868C864FFE7039890ED011AB0EE000A16
:104E000030EE410AB0EE081A80EE010A80ED140A75
:104E100004B080BD48E17A3FFFFF7F7F80B5E2B0FC
:104E20008DED611ACDED600A8DED5F0ACDED5E2A44
:104E30008DED5D2ACDED5C1A5B908DED5A3A5A9856
:104E400042F69C71C2F2000148615B995C985D9AE0
:104E50005E9BCB628A6248629DED5F0AB0EEC00A3B
:104E60005B9890ED021AB4EE410AF1EE10FA1ADCEA
:104E7000FFE79DED600AB0EEC00A5B9890ED021A64
:104E8000B4EE410AF1EE10FA0DDCFFE79DED610A88
:104E9000B0EEC00A5B9890ED021AB4EE410AF1EE52
:104EA00010FA1CDDFFE75B9B58699969DA691B6A98
:104EB00059935892579156905B98FFF793FE5B99E0
:104EC0005698579A589BDDF864C1C1F820C0CB6151
:104ED0008A6148615B99012081F83000FFE75B98A7
:104EE00090F85400C00708B3FFE75B9890ED130AF1
:104EF00090ED141A9DED5A2A21EE021A30EE410A65
:104F000080ED130A5B9890ED011A90ED130AB4EE50
:104F1000410AF1EE10FA08DAFFE75B994868C864C5
:104F20005B99002081F85400FFE7FFE75B9812F0DF
:104F3000C9FE8DED551ACDED540A8DED530A0020B2
:104F40005290519050905B99012081F840005C98FC
:104F50005D995E9A4F924E914D909DED4D0ADDED1B
:104F60004E0A9DED4F1A12F077FF002840F0848022
:104F7000FFE75C985D995E9A4692459144909DED5D
:104F8000440ADDED450A9DED461A13F021F88DED3A
:104F9000491ACDED480A8DED470A53985499559A10
:104FA0004392429141909DED470ADDED480A9DED07
:104FB000491ADDED411A9DED422ADDED432A13F039
:104FC00037FA8DED4C1ACDED4B0A8DED4A0A5B99FF
:104FD0004A984B9A4C9BCB638A6348635B9A506BAD
:104FE000916BD26B40923F913E909DED3E0ADDED7C
:104FF0003F0A9DED401A13F055F95B9890ED031AA6
:10500000B4EE410AF1EE10FA09DCFFE75B990020EB
:1050100081F840005B99486C0938486404E05B996A
:10502000486C01304864FFE75B99486C896C8842A2
:1050300007DDFFE75B99002088645B9981F84000F9
:1050400003E05B9908698864FFE75B980269406C3C
:10505000002113F0D3F95B9948645B9890F8400005
:10506000C00740B9FFE75B9A506B916BD26B5292CD
:1050700051915090FFE7FFE75F986099619A3A92EB
:10508000399138909DED380ADDED390A9DED3A1AD7
:10509000F6EE001A13F0AEF88DED3D1ACDED3C0A98
:1050A0008DED3B0A3B983C993D9A34923391329076
:1050B00050985199529A2E922D912C905B98D0ED48
:1050C000131A9DED2C0ADDED2D0A9DED2E1A13F01D
:1050D00091F88DED311ACDED300A8DED2F0A9DED51
:1050E000320ADDED330A9DED341ADDED2F1A9DED08
:1050F000302ADDED312A12F06DFE8DED371ACDED3F
:10510000360A8DED350A5B9B58699969DA691B6A25
:1051100027932692259124905B9B58699969DA69B7
:105120001B6A1F931E921D911C9035983699379AD1
:10513000189217911690DDED5A1A9DED160ADDEDC5
:10514000170A9DED181A13F055F88DED1B1ACDEDC9
:105150001A0A8DED190A9DED1C0ADDED1D0A9DED63
:105160001E1ADDED1F1A9DED192ADDED1A2A9DED9F
:105170001B3A13F0C9F8CDED231A8DED221ACDEDAF
:10518000210A8DED200A9DED240ADDED250A9DED15
:10519000261ADDED271A9DED202ADDED212A9DED51
:1051A000223ADDED233A12F083FECDED2B1A8DED80
:1051B0002A1ACDED290A8DED280A5B992898299A9B
:1051C0002A9BDDF8ACC0C1F820C0CB618A61486180
:1051D0005B9B58699969DA691B6A119310920F9168
:1051E0000E909DED0E0ADDED0F0A9DED101ADDED1E
:1051F000111A12F0B1FFCDED151A8DED141ACDED87
:10520000130A8DED120A5B991298139A149BDDF81C
:1052100054C0C1F820C0CB618A61486147F23C109C
:10522000C2F200000068002800F05881FFE75B9898
:1052300090F84000C007002840F05081FFE79DED46
:105240005F0ADDED600A9DED611ADDED5C1A9DEDF2
:105250005D2ADDED5E2A07F045F95B9942F69C7008
:10526000C2F2000091ED053A91ED065A91ED071A50
:1052700091ED080A90ED016A90ED027A90ED034AF3
:1052800090ED042A25EE075A23EE063A33EE053A4E
:1052900021EE041A31EE031A20EE020A30EE010A62
:1052A0008DED0D0A9DED0D0AB0EEC01AB7EE000AA5
:1052B00030EE410A8DED0C0A90ED072A90ED081AA8
:1052C0009DED0C0A32EE412A20EE020A30EE010A70
:1052D0008DED0B0A9DED0B0A90ED071AB4EE410A15
:1052E000F1EE10FA07DDFFE742F69C70C2F2000013
:1052F000C0690B90FFE742F69C70C2F2000000907C
:1053000090ED013A90ED094A90ED0D0AB7EE001AC2
:105310008DED011A31EE402A22EE042A20EE030A16
:1053200030EE020A80ED090A90ED023A90ED0A4A49
:1053300090ED0D0A31EE402A22EE042A20EE030AF7
:1053400030EE020A80ED0A0A90ED033A90ED0B4A26
:1053500090ED0D0A31EE402A22EE042A20EE030AD7
:1053600030EE020A80ED0B0A90ED042A90ED0C3A23
:1053700090ED0D0A31EE401A21EE031A20EE020ADA
:1053800030EE010A80ED0C0A90ED092A90ED0A3A00
:1053900090ED0B1A90ED0C0A23EE033A22EE022A4E
:1053A00032EE032A21EE011A31EE021A20EE000A33
:1053B00030EE010A12F0E6FD0099B0EE401A9DEDC4
:1053C000010A8DED0A1A9DED0A2A91ED091A21EEC6
:1053D000021A81ED091A9DED0A2A91ED0A1A21EEB1
:1053E000021A81ED0A1A9DED0A2A91ED0B1A21EE9F
:1053F000021A81ED0B1A9DED0A2A91ED0C1A21EE8D
:10540000021A81ED0C1A9DED0B2A30EE421A5B98C0
:1054100090ED053A91ED094A22EE042A21EE031A95
:1054200031EE021A80ED051A9DED0B2A30EE421A7C
:105430005B9890ED063A91ED0A4A22EE042A21EE9D
:10544000031A31EE021A80ED061A9DED0B2A30EE9A
:10545000421A5B9890ED073A91ED0B4A22EE042A2E
:1054600021EE031A31EE021A80ED071A9DED0B1A98
:1054700030EE410A5B9890ED082A91ED0C3A21EE4E
:10548000031A20EE020A30EE010A80ED080A5B9B47
:1054900058699969DA691B6A05930492039102902D
:1054A0009DED020ADDED030A9DED041ADDED051AFE
:1054B00012F052FECDED091A8DED081ACDED070A56
:1054C0008DED060A5B990698079A089BDDF824C0C3
:1054D000C1F820C0CB618A614861FFE762B080BD3E
:1054E00080B58EB08DED0D1ACDED0C0A8DED0B0A49
:1054F000CDED0A2A8DED092ACDED081A07908DED24
:10550000063A07980B990C9A0D9B05930492039108
:105510000899099A0A9B0293019200919DED063A1F
:105520009DED030ADDED040A9DED051ADDED001A7F
:105530009DED012ADDED022AFFF770FC0EB080BD63
:1055400080B582B08DED000A9DED000ABFEE001A15
:10555000B4EE410AF1EE10FA06DCFFE740F6DB702C
:10556000CBF6C970019016E09DED000AB7EE001A67
:10557000B4EE410AF1EE10FA06DBFFE740F6DB700D
:10558000C3F6C970019006E09DED000A16F0E0FA3E
:105590008DED010AFFE79DED010A02B080BD00001C
:1055A00085B0049003919DED030AB8EE401AB7EE62
:1055B000000A80EE010A9FED0C1A20EE010A049801
:1055C00080ED000A039804994860049900208860DF
:1055D00000900190029004990098019A029B4B61FF
:1055E0000A61C86005B07047FDAD003E80B59EB051
:1055F0008DED1A1ACDED190A8DED180A179018982D
:1056000019991A9A139212911190179AD0681169E8
:10561000526910920F910E909DED110ADDED120A64
:105620009DED131ADDED0E1A9DED0F2ADDED102A0A
:1056300012F07AFC8DED161ACDED150A8DED140AD7
:1056400014981599169A1A92199118909DED180AA6
:10565000B0EEC00A9FED4D1AB4EE410AF1EE10FA19
:1056600018DCFFE79DED190AB0EEC00A9FED471A5E
:10567000B4EE410AF1EE10FA0CDCFFE79DED1A0AD8
:10568000B0EEC00A9FED411AB4EE410AF1EE10FAF5
:1056900015DDFFE717988068022805D3FFE7179903
:1056A00088680138886003E0179900208860FFE768
:1056B000189819991A9A1D921C911B905EE01798E0
:1056C00041688068884219D2FFE71799486889685D
:1056D000401A0D900D98032805D3FFE717998868A5
:1056E0000230886003E0179948688860FFE71898DF
:1056F00019991A9A1D921C911B903FE0179AD06835
:1057000011695269099208910790189819991A9A83
:105710000392029101901798D0ED001A9DED010AB5
:10572000DDED020A9DED031A12F064FD8DED061AFF
:10573000CDED050A8DED040A9DED070ADDED080AA1
:105740009DED091ADDED041A9DED052ADDED062A11
:1057500012F040FB8DED0C1ACDED0B0A8DED0A0A0F
:1057600017990A980B9A0C9B4B610A61C8601898AC
:1057700019991A9A1D921C911B90FFE79DED1B0A27
:10578000DDED1C0A9DED1D1A1EB080BD8FC2F53CDB
:1057900080B588B0CDED041A8DED031ACDED020A67
:1057A0008DED010A9DED030A20EE001AB6EE000A07
:1057B00030EE410A8DED000A9DED010A9DED022AB1
:1057C0009DED031A9DED043A21EE031A20EE020A24
:1057D00030EE010A9DED001A22EE022A71EE420A15
:1057E00016F04CFA8DED050A9DED010A9DED023A89
:1057F0009DED032A9DED041A21EE031A20EE020A04
:1058000030EE410A30EE000AFFF79AFE8DED060AEF
:105810009DED010A9DED021A9DED033A9DED042ACE
:1058200021EE031A20EE020A30EE010A9DED001A65
:1058300022EE022A71EE420A16F020FA8DED070AD6
:105840009DED050ADDED060A9DED071A08B080BD45
:1058500080B582B001900091019800680099FEF730
:1058600063FE02B080BD000080B584B047F6102012
:10587000C1F6FF700068039047F61420C1F6FF7070
:105880000068029047F61820C1F6FF70006801908A
:105890000199039808440390039888B1FFE703989F
:1058A00040F25071C2F2000100910231082206F06C
:1058B000E9F9009902981231042206F0E3F9FFE7B2
:1058C00004B080BD80B584B00290029820B1FFE79B
:1058D0000298406B18B9FFE7002003904FE01420B6
:1058E00014F022FB0190019818B9FFE70020039003
:1058F00045E0019900200861C86088604860086040
:105900000298C06A019908600298406B019948604A
:10591000029890ED0C0AB5EE400AF1EE10FA06D0AE
:10592000FFE7029890ED0C0A8DED000A04E09FED70
:10593000150A8DED000AFFE79DED000A019880ED44
:10594000020A0198806802990861029809F06CF8CF
:105950000199C8600198C06808B9FFE705E001999E
:10596000002008610198039009E0019820B1FFE749
:10597000019814F049FDFFE700200390FFE703982A
:1059800004B080BDDB0FC94084B002900191029841
:1059900090F820008DF803009DF80300012805D041
:1059A000FFE79DF8030002280AD1FFE7019A029859
:1059B000016848691043486100208DF80F0008E035
:1059C0000299486A40F48020486201208DF80F0057
:1059D000FFE79DF80F0004B07047000088B0069004
:1059E000059104920393069890F820008DF8070023
:1059F00006980068806800900598806808B9FFE7FD
:105A000000E0FFE79DF80700012806D0FFE79DF8BA
:105A10000700022840F08080FFE79DF80300400760
:105A200000280CD4FFE79DF803000007002806D4E7
:105A3000FFE79DF80300C006002864D5FFE7009843
:105A4000C0F3016002900299012088400399086028
:105A50000598806868B9FFE705980168C06840EA62
:105A6000415006990968029A01EB0211C1F88001C0
:105A70000EE005994A688868C96840EAC200084390
:105A800006990968029A01EB0211C1F88001FFE74B
:105A90000598006906990968029A01EB0211C1F89C
:105AA00084010598007D01280CD1FFE70698006865
:105AB000029900EB0111D1F8840140F48070C1F823
:105AC0008401FFE70498406806990968029A01EB8F
:105AD0000211C1F88C010498006806990968029ABD
