:020000040800F2
:10000000108B00209D02000861E1000889BB0008F8
:10001000B1CB0008891900087980010800000000B0
:10002000000000000000000000000000210F010897
:10003000E54000080000000051E700081D2F0108FE
:10004000B7020008B7020008B7020008B7020008AC
:10005000B7020008B7020008B7020008B70200089C
:10006000B7020008A1450008B7020008B70200085F
:10007000313A0008B7020008B7020008B7020008CA
:10008000B7020008B7020008B7020008B70200086C
:100090008D190008B7020008B7020008B70200086F
:1000A000B702000829300108B7020008B7020008AB
:1000B000B7020008B702000839300108B70200088B
:1000C000B7020008B7020008B7020008B70200082C
:1000D000B702000899400108B7020008A9400108CA
:1000E000B7020008B7020008B7020008B70200080C
:1000F000B702000849300108B7020008B70200083B
:10010000B7020008B7020008B7020008B7020008EB
:10011000B7020008B7020008B7020008B7020008DB
:10012000B7020008413A0008513A0008B702000837
:10013000B7020008B7020008B7020008B7020008BB
:10014000B70200089D190008B7020008B5E30008CF
:10015000B7020008B7020008B7020008B94001085A
:10016000B7020008B7020008B7020008B70200088B
:10017000B7020008B7020008B7020008000000003C
:10018000B7020008B702000800F002F800F076F8A5
:1001900014A696E8000CB244B344DA4501D100F04D
:1001A0006DF8BAE80F000FA696E83000A5EB04053D
:1001B00004EB0607AAEB0704A7F101074FEA1515A0
:1001C0004FEA3414A4F10104AC4201D300F056F814
:1001D00013F0010F18BFFB1A43F0010300F001F800
:1001E000DBE71847F0FD010010FE01000A444FF064
:1001F000000C10F8013B13F0070408BF10F8014B86
:100200001D1108BF10F8015B641E05D010F8016BCA
:10021000641E01F8016BF9D113F0080F1EBF10F82E
:10022000014BAD1C0C1B09D16D1E58BF01F801CB51
:10023000FAD505E014F8016B01F8016B6D1EF9D5D4
:100240009142D6D37047000070470000002300247D
:1002500000250026103A28BF78C1FBD8520728BFD6
:1002600030C148BF0B6070471FB51EF0BAFC9DE857
:10027000030000F057FA1FBD10B510BD00F0C6FA1C
:100280001146FFF7F1FF19F09DFF00F0E4FA03B407
:10029000FFF7F2FF03BC00F015FB000009488047A0
:1002A00009480047FEE7FEE7FEE7FEE7FEE7FEE758
:1002B000FEE7FEE7FEE7FEE704480549054A064B70
:1002C000704700001530010889010008107B0020EC
:1002D000108B0020108300201083002070B506468C
:1002E00000F004FA056806F10B0020F00704B442A0
:1002F0009CBF002070BD2B466A68BAB11068A0424E
:1003000010D304F1080188423CBF5068586007D3FD
:100310005168101941601168091B01605860146030
:10032000101D70BD13465268002AE7D121462846A9
:1003300000F0E4F90028DED170BD70B50446051F59
:1003400000F0D4F90068002C14BF446870BD002C84
:1003500018BFAC423CBF20466468F8D301680A1855
:10036000AA4218BF456003D12A68054611440160BE
:1003700028684119A1421CBF6C6070BD616869604A
:1003800021680844286070BD53EA020C00F06980BF
:100390002DE9F04B4FF00006002B1FBFB3FA83F599
:1003A00003FA05F424FA05F65E4012BF1643B2FACA
:1003B00082F502FA05F4C5F120051EBF22FA05FCFC
:1003C00044EA0C04203556EA044C4FEA144418BFA2
:1003D000641C4FF000084FF00009904271EB030CD1
:1003E00039D3002919BFB1FA81F701FA07F6B0FA3B
:1003F00080F700FA07F6C7F120071EBF20FA07FCB6
:1004000046EA0C062037B6FBF4FCA7EB0507103FC5
:1004100007F01F0BCBF120062CFA06F60CFA0BFBAB
:1004200044BFB3460026202FA4BF5E464FF0000B0A
:100430005BEA060C08BF4FF0010B19EB0B0948EB08
:100440000608ABFB027C06FB02CC0BFB03CCC01BFB
:1004500071EB0C01C1E70B46024641464846BDE838
:10046000F08B13B5084318BF4FF0FF300146AFF3D0
:100470000080BDE81C40704770B50D460A46044632
:10048000002100F08FF908B1001B70BD284670BD37
:1004900040EA0103024630B59B0710D14FF001340A
:1004A00000E008C208C91D1B9D4315EAC41FF8D00F
:1004B00013F0FF0102F8011B0DD01B0AF8E711F839
:1004C000013B002B02F8013B05D011F8013B002B4A
:1004D00002F8013BF3D130BD032A40F2308010F026
:1004E000030C00F0158011F8013BBCF1020F6244CF
:1004F00098BF11F801CB00F8013B38BF11F8013B60
:10050000A2F1040298BF00F801CB38BF00F8013B0C
:1005100011F0030300F02580083AC0F0088051F87C
:10052000043B083A51F804CBA0E80810F5E7121D87
:100530005CBF51F8043B40F8043BAFF30080D207A6
:1005400024BF11F8013B11F801CB48BF11F8012B72
:1005500024BF00F8013B00F801CB48BF00F8012B95
:10056000704710B5203AC0F00B80B1E81850A0E8F1
:100570001850B1E81850A0E81850203ABFF4F5AF71
:100580005FEA027C24BFB1E81850A0E8185044BFCD
:1005900018C918C0BDE810405FEA827C24BF51F83A
:1005A000043B40F8043B08BF7047D20728BF31F82E
:1005B000023B48BF11F8012B28BF20F8023B48BF7F
:1005C00000F8012B704702F0FF0343EA032242EADE
:1005D000024200F024B84FF000020429C0F012805B
:1005E00010F0030C00F01B80CCF1040CBCF1020FE6
:1005F00018BF00F8012BA8BF20F8022BA1EB0C01BB
:1006000000F00DB85FEAC17C24BF00F8012B00F8B0
:10061000012B48BF00F8012B70474FF0000200B5D6
:10062000134694469646203922BFA0E80C50A0E815
:100630000C50B1F12001BFF4F7AF090728BFA0E8C3
:100640000C5048BF0CC05DF804EB890028BF40F88F
:10065000042B08BF704748BF20F8022B11F0804FD1
:1006600018BF00F8012B704730B44FF0013C50F830
:10067000042B51F8043BCCFA52F4D51A20D1FCB922
:1006800050F8042B51F8043BCCFA52F4D51A17D188
:10069000B4B950F8042B51F8043BCCFA52F4D51AF3
:1006A0000ED16CB950F8042B51F8043BCCFA52F43B
:1006B000D51A05D1002CDAD030BC4FF000007047BD
:1006C00029BAB1FA81F111F01801D1F1200084406A
:1006D000F2D1CA40CB4012F0FF0213F0FF0330BC4E
:1006E000D01A704770477047704700000048704745
:1006F00040090020704770477047704738B504467E
:100700000A4600206946AFF30080002808BF38BDC4
:1007100002460099204600F057F8012038BD01201C
:1007200000F06CB8F8B5AFF30080054600200C4629
:100730000C2000BF0646A819A0420DD932466946D2
:100740000020AFF30080070008BF00F057F80098C2
:10075000A04218BF0546C419FFF7C8FF0560074649
:10076000F01D20F007004619284600F00AF8B442B0
:1007700008BFF8BDA21B31463868BDE8F84000F05C
:1007800023B800210160416070470C20704710B50C
:1007900000F016F8006810BD10B5044600F010F81F
:1007A000046010BDCBB22AB101788B4203D0401C4B
:1007B000521EF9D1002070470048704738090020C8
:1007C0000048704738090020034640688C460028DE
:1007D00018BF88423CBF03464068F8D318681844E5
:1007E000884207D00CF1030020F00700001D411AD9
:1007F000521A0146081D0A60FFF79FBD10B500F0B0
:1008000039F8BDE8104000F02FB870477546FFF783
:10081000D3FFAE4605006946534620F007008546E3
:1008200018B020B5FFF748FDBDE820404FF00006A6
:100830004FF000074FF000084FF0000BAC46ACE85B
:10084000C009ACE8C009ACE8C009ACE8C00921F0B7
:1008500007018D46704710B50446AFF3008020466F
:10086000BDE81040FFF713BD002801D000F02AB802
:100870007047000010B5012805D0002103A000F04A
:1008800027F8012010BD09A1F8E70000534947529D
:10089000544D454D3A204F7574206F662068656150
:1008A00070206D656D6F7279000000003A20486518
:1008B0006170206D656D6F727920636F72727570F3
:1008C0007465640001491820ABBEFEE726000200F3
:1008D00070B505460C460A2000E06D1C00F011F8CA
:1008E00035B128780028F8D102E0641C00F009F83E
:1008F00014B120780028F8D1BDE870400A20AFF389
:10090000008008B569468DF800000320ABBE08BD25
:1009100081B08DED000AFFE79DED000A9FED141AEE
:10092000B4EE410AF1EE10FA09DDFFE79DED000A91
:100930009FED121A30EE010A8DED000AECE7FFE799
:100940009DED000A9FED0B1AB4EE410AF1EE10FA8C
:1009500009DAFFE79DED000A9FED071A30EE010A64
:100960008DED000AECE79DED000A01B0704700BF75
:10097000DC0F4940DC0F49C0DC0FC940DC0FC9C0A7
:1009800080B58AB008908DF81F1006928DF8173048
:10099000089838B1FFE7069820B1FFE79DF81700E7
:1009A00020B9FFE700208DF8270024E00020049004
:1009B0000390029001909DF81F0040F080008DF898
:1009C0000C0008989DF817100231CBB201A903AAB8
:1009D00010F0AEFB58B1FFE7069801A902319DF86F
:1009E0001720FFF779FD01208DF8270003E0002094
:1009F0008DF82700FFE79DF827000AB080BD0000B2
:100A000080B584B002908DF807108DF8062002980A
:100A100020B9FFE700208DF80F000FE09DF80700D8
:100A20008DF804009DF806008DF80500029801A9D4
:100A3000022210F02DFC8DF80F00FFE79DF80F004B
:100A400004B080BD80B59EB01D901D9808B9FFE729
:100A5000EFE241F27070ADF872004FF07C501B90E5
:100A600049F69A10C3F619601A904DF20A70C3F64F
:100A70002340199003F0EAFC8DED0B0AFFE703F029
:100A8000E5FC9DED0B1A30EE410AB2EE041AB4EE0D
:100A9000410AF1EE10FA1BDDFFE71D990020886284
:100AA0001D99C8621D9908631D994CF6CD40C4F28A
:100AB0001C1008641D990020C4F2202048641D9970
:100AC0004FF07E50C8631D9988631D99486396E274
:100AD0001D99002008641D9988621D99C8621D999E
:100AE0000863ADF82A00FFE7BDF82A0041F26F71F4
:100AF000884200F3DA81FFE70020ADF82800099072
:100B00001D980068122109AA0623FFF739FF002863
:100B100069D0FFE74FF0655007909DF824009DF8DD
:100B2000251040EA0120ADF82200BDF9220000EEB8
:100B3000100AB8EEC00A9DED071A20EE010A9FEDDB
:100B4000E41A20EE010A1D9880ED030A9DF82600A4
:100B50009DF8271040EA0120ADF82200BDF92200DF
:100B600000EE100AB8EEC00A9DED072A20EE020A38
:100B700020EE010A1D9880ED040A9DF828009DF8DA
:100B8000291040EA0120ADF82200BDF9220000EE54
:100B9000100AB8EEC00A9DED072A20EE020A20EEE8
:100BA000010A1D9880ED050A1D9890ED031A90ED3D
:100BB000042A90ED050A22EE022A21EE011A31EEF6
:100BC000021A20EE000A30EE010A1DF04FF88DEDFA
:100BD000120A9DED121A1D9890ED100A30EE010ACE
:100BE00080ED100AFFE70021069105911D984068ED
:100BF00005AA082300F06AFA002866D0FFE79DF8EE
:100C000014000F2860D1FFE74AF25800C3F68B208A
:100C100003909DF816009DF8171040EA0120ADF8EA
:100C20001200BDF9120000EE100AB8EEC00A9DEDE8
:100C3000031A20EE010A1D9880ED060A1D9890ED1A
:100C4000061A90ED0A0A30EE010A80ED0A0A9DF8B4
:100C500018009DF8191040EA0120ADF81200BDF906
:100C6000120000EE100AB8EEC00A9DED031A20EE45
:100C7000010A1D9880ED070A1D9890ED071A90ED66
:100C80000B0A30EE010A80ED0B0A9DF81A009DF860
:100C90001B1040EA0120ADF81200BDF9120000EE71
:100CA000100AB8EEC00A9DED031A20EE010A1D9845
:100CB00080ED080A1D9890ED081A90ED0C0A30EEB0
:100CC000010A80ED0C0AFFE7FFE7BDF82A0050BBE0
:100CD000FFE79DED120A8DED100A8DED110A00203F
:100CE0008DF80B00FFE79DF80B0002281ADCFFE7E8
:100CF0001D989DF80B1000EB810090ED060A13A8DB
:100D000000EB810080ED000A9DF80B1016A800EBA7
:100D1000810080ED000AFFE79DF80B0001308DF89F
:100D20000B00E0E762E09DED120A9DED111AB4EEB2
:100D3000410AF1EE10FA03DDFFE712981190FFE788
:100D40009DED120A9DED101AB4EE410AF1EE10FA73
:100D500003DAFFE712981090FFE700208DF80A00F1
:100D6000FFE79DF80A0002283FDCFFE71D989DF889
:100D70000A1000EB810090ED060A16A800EB810036
:100D800090ED001AB4EE410AF1EE10FA0ADDFFE729
:100D90001D989DF80A2000EB8200806916A941F891
:100DA0002200FFE71D989DF80A1000EB810090EDEE
:100DB000060A13A800EB810090ED001AB4EE410A78
:100DC000F1EE10FA0ADAFFE71D989DF80A2000EB11
:100DD0008200806913A941F82200FFE7FFE79DF830
:100DE0000A0001308DF80A00BBE7FFE79DED110A0C
:100DF0009DED101A30EE410A8DED0C0A00208DF8A1
:100E00000900FFE79DF8090002281ADCFFE79DF8BA
:100E1000091016A800EB810090ED000A13A800EB62
:100E2000810090ED001A30EE410A0DA800EB810020
:100E300080ED000AFFE79DF8090001308DF80900F8
:100E4000E0E79DED0C0AB6EE001AB4EE410AF1EEB1
:100E500010FA1EDCFFE79DED0D0A9FED771AB4EE48
:100E6000410AF1EE10FA14DCFFE79DED0E0A9FED4A
:100E7000721AB4EE410AF1EE10FA0ADCFFE79DEDBA
:100E80000F0A9FED6D1AB4EE410AF1EE10FA01DD82
:100E9000FFE70AE09FED690A03F086FAFFE7BDF875
:100EA0002A000130ADF82A001EE61D9890ED100AC8
:100EB0009FED631A80EE010A80ED100A00208DF884
:100EC0000800FFE79DF80800022817DC02E000BFD9
:100ED000CDCC1C411D989DF8081000EB810090EDD1
:100EE0000A0A9FED571A80EE010A80ED0A0AFFE711
:100EF0009DF8080001308DF80800E3E71D9951F8CE
:100F0000440B00F043FA9FED4F0A03F04DFAFFE760
:100F10009DED0C0A0120B6EE001AB4EE410AF1EE86
:100F200010FA009065DCFFE71D9890ED100A9FED28
:100F3000461A30EE010AB0EEC00A0120B6EE001AE1
:100F4000B4EE410AF1EE10FA009052DCFFE79DED9D
:100F50000D0A01209FED381AB4EE410AF1EE10FAA5
:100F6000009046DCFFE79DED0E0A01209FED321A4E
:100F7000B4EE410AF1EE10FA00903ADCFFE79DED85
:100F80000F0A01209FED2C1AB4EE410AF1EE10FA7F
:100F900000902EDCFFE71D9890ED0A0AB0EEC00A23
:100FA00001209FED2A1AB4EE410AF1EE10FA0090EA
:100FB0001FDCFFE71D9890ED0B0AB0EEC00A012080
:100FC0009FED221AB4EE410AF1EE10FA009010DC07
:100FD000FFE71D9890ED0C0AB0EEC00A9FED1B1ABA
:100FE0000020B4EE410AF1EE10FAC8BF01200090D3
:100FF000FFE70098C00700287FF441ADFFE71D9888
:1010000090ED101A9FED120A80EE010A8DED010A93
:1010100001981D99486301981D99886301981D994D
:10102000C8631D99012081F84A001D9981F84B0081
:10103000FFE71EB080BD00BF9A99193E6F12033AB8
:101040000080BB450AD7A33BCDCC1CC10AD7233CAB
:10105000C3F51C4180B586B00490039100218DF842
:101060000B108DF80A1004980DF10B020123FFF705
:1010700087FC20B9FFE700208DF8170021E00398D6
:1010800000210DF10A02012300F020F820B9FFE74A
:1010900000208DF8170014E09DF80B1000201E2989
:1010A000019008D1FFE79DF80A000F38B0FA80F0F0
:1010B00040090190FFE7019800F001008DF817004A
:1010C000FFE79DF8170006B080BD000080B588B02E
:1010D00006908DF8171004928DF80F30069838B1ED
:1010E000FFE7049820B1FFE79DF80F0020B9FFE764
:1010F00000208DF81F0026E00020CDF80B000290A4
:10110000CDF8030000909DF8170040F080008DF8A6
:10111000080006989DF80F100131CBB2694602AA6B
:1011200010F006F858B1FFE70498694601319DF8C0
:101130000F20FFF7D1F901208DF81F0003E00020F8
:101140008DF81F00FFE79DF81F0008B080BD00006C
:1011500080B584B002908DF807108DF806200298B3
:1011600020B9FFE700208DF80F000FE09DF8070081
:101170008DF804009DF806008DF80500029801A97D
:10118000022210F085F88DF80F00FFE79DF80F00A0
:1011900004B080BD80B582B00090009820B9FFE710
:1011A00000208DF8070055E0009951F80C0B00F075
:1011B00055F820B9FFE700208DF807004AE00098B5
:1011C00090ED030A90ED0D1A20EE010A80ED030A5E
:1011D000009890ED040A90ED0E1A20EE010A80EDC1
:1011E000040A009890ED050A90ED0F1A20EE010A0E
:1011F00080ED050A00994868183100F07BF820B9A5
:10120000FFE700208DF8070024E0009890F84A00DE
:10121000E0B1FFE7009890ED060A90ED0A1A30EE73
:10122000410A80ED060A009890ED070A90ED0B1A2E
:1012300030EE410A80ED070A009890ED080A90ED23
:101240000C1A30EE410A80ED080AFFE701208DF804
:101250000700FFE79DF8070002B080BD80B588B0A9
:10126000069005910020ADF8100003900698122119
:1012700003AA0623FFF784FB20B9FFE700208DF8BF
:101280001F0031E04FF06550029000200190FFE711
:101290000198022824DCFFE7019A03A800EB420131
:1012A000497810F8120040EA0120ADF80200BDF9BB
:1012B000020000EE100AB8EEC00A9DED021A20EE00
:1012C000010A9FED0B1A20EE010A0598019900EB27
:1012D000810080ED000AFFE7019801300190D7E717
:1012E00001208DF81F00FFE79DF81F0008B080BDAA
:1012F000CDCC1C4180B588B00690059100210491A9
:101300000391069803AA0823FFF7E0FE20B9FFE740
:1013100000208DF81F0032E09DF80C000F2804D04B
:10132000FFE700208DF81F0029E000200290FFE772
:10133000029802281FDCFFE7029903A800EB410195
:101340008878C97840EA0120ADF80600BDF90600AA
:1013500000EE100AB8EEC00A9FED0B1A20EE010A4B
:101360000598029900EB810080ED000AFFE70298E2
:1013700001300290DCE701208DF81F00FFE79DF8A7
:101380001F0008B080BD00BF58A08B3A80B586B062
:1013900004900391049818B1FFE7039820B9FFE780
:1013A00000208DF8170048E00020ADF80A000498EE
:1013B00022210DF10A020223FFF7E2FA20B9FFE72A
:1013C00000208DF8170038E09DF80B00802804D12C
:1013D000FFE700208DF817002FE09DF80A009DF828
:1013E0000B10C00040EA5110ADF80800BDF808002D
:1013F000B0F5806F07DBFFE7BDF80800A0F50060DF
:10140000ADF8060004E0BDF80800ADF80600FFE7FF
:10141000BDF9060000EE100AB8EEC00AB4EE001ADC
:1014200020EE010AB3EE071A30EE010A039880EDB0
:10143000000A01208DF81700FFE79DF8170006B09D
:1014400080BD000082B00190019828B1FFE70198AB
:10145000D0F87A0008B9FFE708E00198D0F87A00E0
:1014600000900099012081F84900FFE702B0704721
:1014700080B586B00490049840B1FFE704980068F6
:1014800020B1FFE70498406820B9FFE700208DF8FD
:10149000170067E100218DF80F10049800680DF126
:1014A0000F020123FFF76CFA9FEDB00A02F07CFFF8
:1014B000049908684968FFF7CDFD20B9FFE70020CF
:1014C0008DF817004EE1049800687E21B622FFF7E0
:1014D00097FA20B9FFE700208DF8170042E19FED51
:1014E000A40A02F061FF049800687C210022FFF743
:1014F00087FA20B9FFE700208DF8170032E1049841
:1015000000687D210422FFF77BFA20B9FFE7002065
:101510008DF8170026E100208DF80E009FED950A4A
:1015200002F042FF049800687D210DF10E020123B4
:10153000FFF726FA20B9FFE700208DF8170011E128
:10154000049800684021AB22FFF75AFA20B9FFE760
:1015500000208DF8170005E100208DF80D009FEDAB
:10156000850A02F021FF0498006840210DF10D0268
:101570000123FFF705FA28B1FFE79DF80D00AB281E
:1015800004D0FFE700208DF81700EBE00498006816
:1015900041210122FFF734FA20B9FFE700208DF83E
:1015A0001700DFE000208DF80C009FED720A02F0BA
:1015B000FBFE04980068412103AA0123FFF7E0F92C
:1015C00028B1FFE79DF80C00012804D0FFE70020B8
:1015D0008DF81700C6E00498006853210822FFF731
:1015E0000FFA20B9FFE700208DF81700BAE0049841
:1015F000006858210422FFF703FA20B9FFE7002012
:101600008DF81700AEE0049840681421B622FFF769
:101610009FFD20B9FFE700208DF81700A2E09FEDA5
:10162000550A02F0C1FE049840680F210022FFF71E
:101630008FFD20B9FFE700208DF8170092E0002011
:101640008DF80B009FED4B0A02F0AEFE0498406847
:101650000F210DF10B020123FFF738FD20B1FFE749
:101660009DF80B0020B1FFE700208DF8170079E00E
:101670000498406810218122FFF76AFD20B9FFE736
:1016800000208DF817006DE00498406811210022B9
:10169000FFF75EFD20B9FFE700208DF8170061E03D
:1016A0000498406815218022FFF752FD20B9FFE71A
:1016B00000208DF8170055E004984068162101229B
:1016C000FFF746FD20B9FFE700208DF8170049E03D
:1016D0000498406818210122FFF73AFD20B9FFE77E
:1016E00000208DF817003DE000200190FFE70198F1
:1016F00002281CDCFFE70498019900EB810100201F
:1017000088620499019A01EB82024FF07E51516385
:101710000499019A01EB8201C8600499019A01EBD6
:1017200082018861FFE7019801300190DFE70498AA
:1017300000214162049A4CF6CD40C4F21C101064A2
:10174000049A0020C4F220205064049880F84B10C2
:10175000049A012082F84800049A82F849108DF812
:101760001700FFE79DF8170006B080BD6F12833A9F
:101770006F12033BA69B443B80B58EB00C900C9837
:1017800018B9FFE700200D9096E04C2019F00AFDF3
:101790000B900B9818B9FFE700200D908CE000200B
:1017A000ADF82A000B984C21FEF737FF0B9941F258
:1017B0004540C0F6000088600C990968CDF8151006
:1017C0000C994968CDF819100C990989ADF81D10CC
:1017D00008218DF81F108DF820100C99097B8DF8C9
:1017E0002110CDF822000B99CDF826100C99D1F8D4
:1017F000151000910C99D1F8191001910C99B1F8BC
:101800001D10ADF8081007218DF80A108DF80B1087
:101810000C9991F821108DF80C10CDF80D000B9853
:10182000CDF811000DF115000FF0A8FB0B99086021
:1018300068460FF0A3FB0B9948600B98006820B135
:10184000FFE70B98406830B9FFE70B9819F01AFFD3
:1018500000200D9030E00C9890F82A000B9981F848
:101860004A00FFE70B98FFF703FE012805D0FFE7CA
:101870009FED130A02F098FDF4E7BDF82A006428F2
:1018800006DBFFE70B9819F0FDFE00200D9013E03A
:101890000B9890F84A0020B1FFE70B98FFF7D2F8B9
:1018A000FFE70B99012081F848000B99002081F88F
:1018B00049000B980D90FFE70D980EB080BD00BF5A
:1018C0000AD7233C80B586B00590059828B1FFE77C
:1018D0000598D0F83B0008B9FFE752E00598D0F82A
:1018E0003B0004900499059AD06A126BC1F80D2050
:1018F000C1F809000498007A0146019120B1FFE780
:101900000198012819D03BE004980930039003980E
:10191000007800F00100049981F8200003984088C5
:1019200017F050FE049880ED090A0398808817F09C
:1019300049FE049880ED0A0A23E0049809300290D9
:1019400002980078049948740298407800F00100E9
:10195000049988740298408817F034FE049880ED4A
:10196000050A0298C08817F02DFE049880ED060A3B
:101970000298808817F026FE049880ED070A00E0A0
:10198000FFE706B080BD0000FFE7FEE780B542F646
:101990000C00C2F2000004F07FF980BD80B542F671
:1019A0003400C2F2000004F077F980BD82B08DF8F7
:1019B00003009DF80300012806D1FFE742F60C0062
:1019C000C2F2000001900DE09DF80300022806D14C
:1019D000FFE742F63400C2F20000019002E000206E
:1019E0000190FFE7019802B07047000084B08DF8C5
:1019F0000F000291ADF806209DF80F0001460091FE
:101A000023281DD80099DFE801F012131415161BC6
:101A10001B1B1B1B1B1B1B1B1B1B1B1B1B1B1B1B16
:101A20001B1B1B1B1B1B1B1B1B1B1718191A08E05E
:101A300007E006E005E004E003E002E001E000E08A
:101A4000FFE7002004B070470020704780B582B0E7
:101A500042F23050C2F20000009041F22071C2F216
:101A600000010022019212F0CFFE009840F6207192
:101A7000C2F2000112F0AAFE019802B080BD00007F
:101A800080B584B0039002910298006888B1FFE7A6
:101A900047F2F420C2F20000006850B1FFE747F2BD
:101AA000F420C2F200000268039802990968904786
:101AB000FFE742F23050C2F20000019040F6207180
:101AC000C2F2000112F082FE019812F025FE002001
:101AD00004B080BD83B0029001918DF803200020F6
:101AE0008DF802009DF9020003B0704780B586B002
:101AF0000490ADF80E1000208DF80D0042F2305029
:101B0000C2F20000D0F8BC0202900298D0F8140291
:101B100020B1FFE701208DF8170013E00499BDF80C
:101B20000E2042F23050C2F20000019012F06CFE22
:101B3000019812F073FF8DF80D009DF80D008DF8DF
:101B40001700FFE79DF8170006B080BD83B0029034
:101B50000191FF208DF80300FFE70198411E0191DC
:101B600078B1FFE79DF8030002994A1C02920978B8
:101B700041404EF63C70C0F60100405C8DF8030019
:101B8000EBE79DF8030003B07047000084B00290BB
:101B900001914FF6FF70ADF80200029828B9FFE7F7
:101BA0004FF6FF70ADF80E001DE0FFE70198411EF3
:101BB000019198B1FFE7BDF802100298421C029211
:101BC00000784840C2B24FF23C00C0F6010030F845
:101BD000120080EA1120ADF80200E7E7BDF802002C
:101BE000ADF80E00FFE7BDF80E0004B0704700002E
:101BF00080B586B004900391049820B1FFE7039864
:101C0000022803D8FFE70020059024E004980399F8
:101C10000239FFF7BBFFADF80A009DF80A10049ADD
:101C20000398104410F8022C0020914201900DD12D
:101C3000FFE79DF80B00049A0399114411F8011C69
:101C4000401AB0FA80F040090190FFE7019800F0D7
:101C500001000590FFE7059806B080BD80B596B0FD
:101C6000012114910020129013910C900D900E9070
:101C70000F9011901090FFE742F60C00C2F20000A6
:101C80000CA903F0C9FDB0B1FFE74FF21630C0F662
:101C90000100694608604FF22561C0F601014FF26C
:101CA0001B32C0F601024FF20D33C0F601030020D3
:101CB0000EF00AFBE0E701210A910020089009914B
:101CC000069102900390049005900E2007900B90CF
:101CD000FFE742F63400C2F2000002A903F09CFDC7
:101CE000B0B1FFE74FF21630C0F601006946086058
:101CF0004FF24E61C0F601014FF21B32C0F60102F5
:101D00004FF20D33C0F6010300200EF0DDFAE0E7DC
:101D100016B080BD80B586B0FFF7A0FF4FF2163039
:101D2000C0F601000290694608604FF24171C0F6AA
:101D300001014FF22332C0F6010203924FF2103339
:101D4000C0F601030493002005900EF0BDFA00F0E8
:101D500045FA02990598039A049BEC46CCF80010CA
:101D60004FF2F961C0F601010EF0AEFA0299039A42
:101D7000049B059840F6500CC2F2000C8CF8000051
:101D8000EC46CCF800104FF22171C0F601010EF0C4
:101D90009BFA06B080BD000080B58CB00A9040F67A
:101DA0005000C2F200000078C00718B1FFE7FFF74B
:101DB000B1FFFFE70A9800F067F818B9FFE70020C5
:101DC0000B905EE03F2019F0EDF909900998E0B919
:101DD000FFE70A9800684FF21632C0F60102694622
:101DE0004A6008604FF26D71C0F601014FF21B327C
:101DF000C0F601024FF20D33C0F60103002002903D
:101E00000EF062FA02980B903BE009983F21FEF732
:101E1000E2FB0A980068099908600A980079FFF7C0
:101E2000C5FD099948600A98B0F805000999088429
:101E3000099808300A99B1F805100391002104911E
:101E400005910691082207928DF8201003A9182207
:101E5000FEF742FB0A98B0F80700099948850A98EE
:101E6000D0F809000999C1F837000A98D0F80D0098
:101E70000999C1F83B00099800F03EF909980B90C8
:101E8000FFE70B980CB080BD80B58CB00A900A9823
:101E9000D0B9FFE74FF21630C0F60100694608607E
:101EA0004FF29E31C0F601014FF21B32C0F6010223
:101EB0004FF20D33C0F60103002008900EF004FA33
:101EC00008988DF82F0013E10A980068A0B1FFE789
:101ED0000A98B0F8070078B1FFE70A98B0F8050053
:101EE00050B1FFE70A98007901281FD0FFE70A9850
:101EF000007902281AD0FFE74FF21630C0F6010031
:101F0000694608604FF29151C0F601014FF21B3251
:101F1000C0F601024FF20D33C0F601030020079016
:101F20000EF0D2F907988DF82F00E1E00A980079B9
:101F300001286AD1FFE742F24C40C2F2000000786B
:101F400008281DD1FFE70A9800684FF21632C0F644
:101F5000010269464A6008604FF2A841C0F60101DB
:101F60004FF21B32C0F601024FF20D33C0F60103EF
:101F7000002006900EF0A8F906988DF82F00B7E023
:101F800000208DF82700FFE79DF8270042F24C4122
:101F9000C2F200010978884236DAFFE79DF827107F
:101FA00042F20C40C2F2000050F82100408D0A9924
:101FB000B1F80710884220D1FFE70A990868B1F804
:101FC00007204FF21633C0F6010369468B604A6062
:101FD00008604FF27761C0F601014FF21B32C0F684
:101FE00001024FF20D33C0F60103002005900EF000
:101FF0006BF905988DF82F007AE0FFE79DF8270030
:1020000001308DF82700BFE7FFE70A980079022822
:102010006AD1FFE742F24D40C2F200000078082882
:102020001DD1FFE70A9800684FF21632C0F6010290
:1020300069464A6008604FF2E841C0F601014FF27C
:102040001B32C0F601024FF20D33C0F6010300202F
:1020500004900EF039F904988DF82F0048E0002024
:102060008DF82600FFE79DF8260042F24D41C2F2AE
:1020700000010978884236DAFFE79DF8261042F21F
:102080002C40C2F2000050F82100408D0A99B1F8AE
:102090000710884220D1FFE70A990868B1F80720A5
:1020A0004FF21633C0F6010369468B604A60086040
:1020B0004FF2B861C0F601014FF21B32C0F60102C7
:1020C0004FF20D33C0F60103002003900EF0FCF830
:1020D00003988DF82F000BE0FFE79DF826000130F4
:1020E0008DF82600BFE7FFE701208DF82F00FFE7FE
:1020F0009DF82F000CB080BD80B586B00590059886
:10210000406842F60C01C2F2000188422DD1FFE77F
:10211000059842F24C41C2F200010B7842F20C42A7
:10212000C2F2000242F823000878013008700599D5
:1021300008680A8C4B8D4FF2163CC0F6010C6946BC
:10214000C1F80CC08B604A6008604FF2CE31C0F617
:1021500001014FF22332C0F601024FF21033C0F6F4
:10216000010300200EF0B0F8FFE70598406842F642
:102170003401C2F2000188422DD1FFE7059842F2F6
:102180004D41C2F200010B7842F22C42C2F2000231
:1021900042F82300087801300870059908680A8C15
:1021A0004B8D4FF2163CC0F6010C6946C1F80CC0CD
:1021B0008B604A6008604FF21441C0F601014FF293
:1021C0002332C0F601024FF21033C0F601030020A3
:1021D0000EF07AF8FFE706B080BD000080B582B04F
:1021E000FFE742F60C00C2F2000004F0D5F9B0B1EE
:1021F000FFE74FF21630C0F60100694608604FF263
:102200002851C0F601014FF21B32C0F601024FF215
:102210000D33C0F6010300200EF056F8E1E7FFE7AA
:1022200042F63400C2F2000004F0B6F9B0B1FFE7A4
:102230004FF21630C0F60100694608604FF2455172
:10224000C0F601014FF21B32C0F601024FF20D330E
:10225000C0F6010300200EF037F8E1E7FFE742F691
:102260000C00C2F20000022103F000FAB0B1FFE757
:102270004FF21630C0F60100694608604FF2C751B0
:10228000C0F601014FF21B32C0F601024FF20D33CE
:10229000C0F6010300200EF017F8E0E7FFE742F672
:1022A0003400C2F20000102103F0E0F9B0B1FFE702
:1022B0004FF21630C0F60100694608604FF2F65141
:1022C000C0F601014FF21B32C0F601024FF20D338E
:1022D000C0F6010300200DF0F7FFE0E702B080BD7B
:1022E00080B588B006900698D0B9FFE74FF2163057
:1022F000C0F60100694608604FF23331C0F60101B3
:102300004FF21B32C0F601024FF20D33C0F601034B
:10231000002003900DF0D8FF03988DF81F0042E0D5
:1023200000208DF81700FFE70698406803F07CFC5A
:1023300028BBFFE79DF8170001308DF817009DF8C6
:10234000170065281ADBFFE74FF21630C0F60100D0
:10235000694608604FF26251C0F601014FF21B322C
:10236000C0F601024FF20D33C0F6010300200290C7
:102370000DF0AAFF02988DF81F0014E0D4E70120A9
:102380000490069A506802F10801223204AB03F06F
:1023900097F920B9FFE701208DF81F0003E0002026
:1023A0008DF81F00FFE79DF81F0008B080BD0000FA
:1023B00083B001908DF80310019820B9FFE7002049
:1023C0008DF80B0008E09DF80300019981F82801C1
:1023D00001208DF80B00FFE79DF80B0003B070475C
:1023E00080B58CB00B900B9890F8280101460991AC
:1023F000C0B1FFE70998012804D0FFE70998022837
:1024000014D018E00B98C16D089102F017F90898E4
:10241000F0EE400A9FED590A0CF0CEF90B9880EDD2
:10242000130A09E00B990020C86405E00B99D1F864
:102430003801C86400E0FFE70B9890ED110A8DEDBC
:10244000030A02F0FBF81AF095FE8DED020A0B98D4
:1024500090ED120A8DED010A02F0F0F81BF03EFB40
:102460009DED011A9DED022AB0EE403A9DED030A62
:1024700021EE031A20EE020A30EE410A40F6E02077
:10248000C2F20000069080ED000A0B9890ED110A50
:102490008DED070A02F0D2F81BF020FB8DED050A46
:1024A0000B9890ED120A8DED040A02F0C7F81AF0AD
:1024B00061FE9DED041A9DED052A0699B0EE403AA5
:1024C0009DED070A21EE031A20EE020A30EE010A02
:1024D00081ED010A0B98C06C88600B9800F0ACF895
:1024E00000208DF82B00FFE79DF82B00032812DC5D
:1024F000FFE70B989DF82B1000EB8101D1F8C40089
:1025000091ED420A0BF06AF8FFE79DF82B000130CD
:102510008DF82B00E8E70B989FED180A00F07CFB84
:102520000B98D0F8C4000BF071FB0B9800780228D0
:1025300021D1FFE704208DF82A00FFE79DF82A004B
:10254000072812DCFFE70B989DF82A1000EB8101A9
:10255000D1F8C40091ED420A0BF040F8FFE79DF876
:102560002A0001308DF82A00E8E70B98D0F8D40053
:102570000BF04CFBFFE701200CB080BD0000000019
:1025800080B582B0019000208DF80300FFE79DF830
:102590000300032824DCFFE701989DF8031000EBFB
:1025A0008100D0F8C4100020486401989DF8031001
:1025B00000EB8100D0F8C40000690CF09DFA01988E
:1025C0009DF8031000EB8100D0F8C400C0680CF047
:1025D00093FAFFE79DF8030001308DF80300D6E77A
:1025E00002B080BD80B582B0019000208DF803005C
:1025F000FFE79DF8030003281BDCFFE701989DF827
:10260000031000EB8100D0F8C40000690CF09AFAC6
:1026100001989DF8031000EB8100D0F8C400C06859
:102620000CF090FAFFE79DF8030001308DF80300ED
:10263000DFE702B080BD000080B594B0139013981E
:1026400000780146069150B1FFE70698012800F096
:102650008880FFE70698022800F00C81CDE240F662
:10266000E020C2F20000059090ED001A90ED012AE2
:1026700090ED020A9FED7B5A22EE052A9FED7A6AC1
:1026800021EE061A31EE022A139991ED011A91ED0D
:10269000023A20EE030A30EE020AB3EE0E3A20EEC2
:1026A000030A9FED722A21EE021A80EE010A81EDE3
:1026B000420A90ED001A90ED014A90ED020A24EED4
:1026C000064A21EE061A31EE044A139991ED011AD9
:1026D00091ED027A20EE070A30EE040A20EE030A9A
:1026E00021EE021A80EE010A81ED430A90ED001AF4
:1026F00090ED014A90ED020A24EE064A21EE051AF9
:1027000031EE044A139991ED011A91ED026A20EE1F
:10271000060A30EE040A20EE030A21EE021A80EEC9
:10272000010A81ED440A90ED001A90ED014A90ED06
:10273000020A24EE054A21EE051A31EE044A1398E6
:1027400090ED011A90ED025A20EE050A30EE040ACF
:1027500020EE030A21EE021A80EE010A80ED450AFE
:102760004CE240F6E020C2F20000049090ED002A16
:1027700090ED011A90ED020A31EE422A139991ED83
:102780000E1A91ED0F3A91ED104A33EE043A20EE15
:10279000030A30EE020A9FED363A20EE030A9FED5F
:1027A000332A21EE021A80EE010A81ED420A90EDF1
:1027B000001A90ED014A90ED020AB1EE411A31EE95
:1027C000444A139991ED0E1A91ED0F5A91ED106A4A
:1027D00035EE065A20EE050A30EE040A20EE030A12
:1027E00021EE021A80EE010A81ED430A90ED001AF3
:1027F00090ED014A90ED020A31EE444A139991EDB1
:102800000E1A91ED0F5A91ED106A35EE065A20EE30
:10281000050A30EE040A20EE030A21EE021A80EEC9
:10282000010A81ED440A90ED001A90ED014A90ED05
:10283000020A31EE044A139890ED0E1A90ED0F5AE9
:1028400090ED106A35EE065A20EE050A30EE040AC5
:1028500020EE030A21EE021A80EE010A80ED450AFD
:10286000CCE100BFF4FD343FF4FD34BFC3F5484074
:10287000000070421398C06812901398006911907C
:1028800013984068109040F6E020C2F200000190DA
:1028900090ED000A90ED021A9DED112A21EE021A28
:1028A00030EE410A8DED0F0A90ED011A90ED020A0B
:1028B0009DED122A20EE020A30EE010A8DED0E0A7D
:1028C0009DED0F0A9DED0E1A21EE011A20EE000A71
:1028D00030EE010A1BF0CAF99FEDC91A8DED021AFC
:1028E00020EE010A9DED101A9FEDC62A8DED032AF8
:1028F00021EE021A80EE010A139880ED420A9DED46
:102900000E0ADDED0F0A1AF0DFFA0198139991ED26
:10291000051A30EE010A81ED460A90ED000A90EDAD
:10292000021A9DED112A21EE021A30EE410A8DEDB8
:102930000D0A90ED010A90ED021A9DED122A21EE8A
:10294000021A30EE410A8DED0C0A9DED0D0A9DED47
:102950000C1A21EE011A20EE000A30EE010A1BF0DB
:1029600085F99DED021A9DED032A20EE010A9DEDE9
:10297000101A21EE021A80EE010A139880ED430A24
:102980009DED0C0ADDED0D0A1AF09EFA01981399DF
:1029900091ED061A30EE010A81ED470A90ED001A1A
:1029A00090ED020A9DED112A20EE020A30EE010A96
:1029B0008DED0B0A90ED010A90ED021A9DED122AA1
:1029C00021EE021A30EE410A8DED0A0A9DED0B0A46
:1029D0009DED0A1A21EE011A20EE000A30EE010ADE
:1029E0001BF044F99DED021A9DED032A20EE010A29
:1029F0009DED101A21EE021A80EE010A139880ED67
:102A0000440A9DED0A0ADDED0B0A1AF05DFA019801
:102A1000139991ED071A30EE010A81ED480A90ED05
:102A2000001A90ED020A9DED112A20EE020A30EE06
:102A3000010A8DED090A90ED011A90ED020A9DED53
:102A4000122A20EE020A30EE010A8DED080A9DEDF1
:102A5000090A9DED081A21EE011A20EE000A30EE57
:102A6000010A1BF003F99DED021A9DED032A20EEE9
:102A7000010A9DED101A21EE021A80EE010A139848
:102A800080ED450A9DED080ADDED090A1AF01CFAF1
:102A9000139890ED081A30EE010A80ED490A0020E3
:102AA0000790FFE70798032800F3A680FFE740F6AA
:102AB000E020C2F2000090ED000AB5EE400AF1EE0F
:102AC00010FA14D1FFE740F6E020C2F2000090EDCA
:102AD000010AB5EE400AF1EE10FA08D1FFE71398AB
:102AE000079900EB8101486AC1F81801FFE71398C4
:102AF000079900EB810090ED460AD0F8D40090EDE4
:102B0000061A30EE410AB0EEC00A9FED3F1AB4EE4D
:102B1000410AF1EE10FA6ADDFFE71398079900EB1E
:102B2000810090ED420AB1EE400A80ED420A13980E
:102B3000079900EB810090ED460AB5EE400AF1EEF0
:102B400010FA0DDDFFE71398079900EB810090ED77
:102B5000460A9FED2F1A30EE010A80ED460A0CE07E
:102B60001398079900EB810090ED460A9FED271A14
:102B700030EE010A80ED460AFFE71398079900EB53
:102B8000810090ED460A9FED211A30EE010ADFED3B
:102B9000210A1AF019FC1398079900EB810080EDC7
:102BA000460A1398079900EB810090ED460AB5EEAE
:102BB000400AF1EE10FA0DDAFFE71398079900EBDF
:102BC000810090ED460A9FED131A30EE010A80ED68
:102BD000460AFFE71398079900EB810090ED460A3B
:102BE0009FED0B1A30EE010A80ED460AFFE7FFE782
:102BF00007980130079055E700E0FFE714B080BD6B
:102C000000007042DA0F4940D80FC93FDC0F49403D
:102C1000DC0F49C0DC0FC94080B5ACB02A908DED07
:102C2000290A2A9878B1FFE72A9890ED4B0AB5EE69
:102C3000400AF1EE10FA06DDFFE72A9890F8E4006A
:102C4000C00728B1FFE700208DF8AF0000F06CBC92
:102C50002A98D0F82C01289000200D9027902690DB
:102C60002590249023902290219020901F904FF047
:102C70007E501E902A9890ED0D0AB5EE400AF1EEB6
:102C800010FA00F0DC81FFE704201D90FFE71D989B
:102C9000072849DCFFE72A981D9900EB8100D0F84E
:102CA000C400406C1C902A981D9900EB8100D0F85C
:102CB000C400406A1B909DED1C5A9FEDE70A25EE6B
:102CC000002A9DED1B3A2A981D9901EB410200EB69
:102CD000820292ED194A92ED1A0A92ED1B1A24EE25
:102CE000054A24EE054A22EE032A32EE042A20EE9B
:102CF000030A20EE030A30EE020A30EE010A00EB6E
:102D0000810080ED3A0A2A981D9900EB810090ED30
:102D10003A1A9DED270A30EE010A8DED270AFFE7EA
:102D20001D9801301D90B2E72A9890ED0D0A9DED97
:102D3000281A20EE010A9DED271A80EE010A8DED7A
:102D40001A0A9DED1A0AB7EE001AB4EE410AF1EE26
:102D500010FA00F37381FFE79DED1A0AB5EE400A01
:102D6000F1EE10FAC0F26A81FFE704201990FFE744
:102D70001998072800F36181FFE79DED1A0A2A9848
:102D8000199900EB810090ED3A1A20EE010A1FA874
:102D900000EB810181ED000A2A99199A02EB4202A7
:102DA00001EB8201496E18912A99199A01EB82016F
:102DB000D1F8C41091ED090A9FEDA71A20EE010A7F
:102DC0008DED170A2A9B199901EB410203EB820250
:102DD00003EB8103D3F8C43093ED092A92ED1A0A6C
:102DE00092ED1B1A20EE020A20EE020A30EE010AD2
:102DF00000EB810090ED001A30EE410A8DED160ACD
:102E00009DED170A9DED181AB9EE002A21EE021A5F
:102E10009DED162A21EE021A20EE000A30EE010A7C
:102E2000B5EE400AF1EE10FA40F30281FFE79DEDA6
:102E3000170A8DED090A9DED181AB1EE002A8DEDE5
:102E40000A2A21EE021A9DED162A21EE021A20EE20
:102E5000000A30EE410A1AF009FF9DED091A9DEDB6
:102E60000A2A30EE410A9DED181A31EE011A80EE61
:102E7000010A199943F2C050C2F200000B9000EB16
:102E8000810080ED000A9DED170AB1EE401A8DED2C
:102E90000C1A9DED181A21EE021A9DED162A21EE4C
:102EA000021A20EE000A30EE410A1AF0DFFE0B98FB
:102EB000B0EE401A9DED0C0A30EE410A9DED181A55
:102EC00031EE011A80EE010A199A43F2E051C2F282
:102ED000000101EB820181ED000A199900EB8100EC
:102EE00090ED000A2A9800EB8100D0F8C400B0F9F8
:102EF000300001EE100AB8EEC11A20EE010AB5EE5C
:102F0000400AF1EE10FA49DDFFE7199943F2C0508B
:102F1000C2F2000000EB810090ED000AB0EEC00AA2
:102F20002A9800EB8100D0F8C40090ED111AB0EEA1
:102F3000C11AB4EE410AF1EE10FA1BDDFFE72A9840
:102F4000199900EB8100D0F8C400089047F2403096
:102F5000C2F2000090ED000A1AF088FE08982A9943
:102F6000199A01EB820191ED421A20EE010A0AF052
:102F700035FB12E02A98199A00EB8200D0F8C400C1
:102F800043F2C051C2F2000101EB820191ED000A4F
:102F900030EE000A0AF0D8FDFFE748E0199943F245
:102FA000C050C2F2000000EB810090ED000AB0EECC
:102FB000C00A2A9800EB8100D0F8C40090ED111AE5
:102FC000B0EEC11AB4EE410AF1EE10FA1BDDFFE7D4
:102FD0002A98199900EB8100D0F8C400079047F2B5
:102FE0004030C2F2000090ED000A1AF03FFE079850
:102FF0002A99199A01EB820191ED421A20EE010AF9
:103000000AF0ECFA12E02A98199A00EB8200D0F844
:10301000C40043F2C051C2F2000101EB820191ED04
:10302000000A30EE000A0AF08FFDFFE7FFE7FFE736
:10303000FFE71998013019909AE6FFE7FFE743F29E
:103040003861C2F20001002008601590FFE7159872
:10305000032854DC06E000BF7C676E3705F30536B5
:10306000CDCCCC3D2A98159900EB8100D0F8C40056
:10307000406C14902A98159900EB8100D0F8C40098
:10308000406A13909DED145A1FED0C0A25EE002A9C
:103090009DED133A2A98159901EB410200EB82024B
:1030A00092ED194A92ED1A0A92ED1B1A24EE054A86
:1030B00024EE054A22EE032A32EE042A20EE030A09
:1030C00020EE030A30EE020A30EE010A00EB810026
:1030D00080ED3A0A2A98159900EB810090ED3A1A92
:1030E00043F23860C2F2000090ED000A30EE010AAF
:1030F00080ED000AFFE7159801301590A7E79DEDD8
:10310000280A9DED1E1A9DED272A21EE021A30EEA7
:10311000410A43F23860C2F2000090ED001A80EEDE
:10312000010A47F24030C2F2000080ED000A90ED43
:10313000000AB7EE001AB4EE410AF1EE10FA80F27E
:10314000EF81FFE747F24030C2F2000090ED000A45
:10315000B5EE400AF1EE10FA40F3E281FFE72A985B
:1031600090ED110A1FED421AB4EE410AF1EE10FA89
:103170000BDCFFE72A9890ED120A9FEDED1AB4EEF2
:10318000410AF1EE10FA08DDFFE72A994FF07E5070
:10319000C8642A98FFF750FAFFE700201290FFE773
:1031A0001298032800F3BB81FFE747F24030C2F2D8
:1031B000000090ED000A2A98129900EB810090ED32
:1031C0003A1A20EE010A1FA800EB810181ED000AE6
:1031D0002A99129A02EB420201EB8201496E119187
:1031E0002A99129A01EB8201D1F8C41091ED090AD3
:1031F0009FEDD01A20EE010A8DED100A2A9B12993C
:1032000001EB410203EB820203EB8103D3F8C430EC
:1032100093ED092A92ED1A0A92ED1B1A20EE020A8A
:1032200020EE020A30EE010A00EB810090ED001A58
:1032300030EE410A8DED0F0A9DED100A9DED111A39
:10324000B9EE002A21EE021A9DED0F2A21EE021A94
:1032500020EE000A30EE010AB5EE400AF1EE10FA57
:1032600040F3FA80FFE79DED100A8DED030A9DED16
:10327000111AB1EE002A8DED042A21EE021A9DEDFD
:103280000F2A21EE021A20EE000A30EE410A1AF04F
:10329000EDFC9DED031A9DED042A30EE410A9DEDF3
:1032A000111A31EE011A80EE010A129943F2C05050
:1032B000C2F20000059000EB810080ED000A9DED58
:1032C000100AB1EE401A8DED061A9DED111A21EE8D
:1032D000021A9DED0F2A21EE021A20EE000A30EEAE
:1032E000410A1AF0C3FC0598B0EE401A9DED060A9B
:1032F00030EE410A9DED111A31EE011A80EE010AFD
:10330000129A43F2E051C2F2000101EB820181ED19
:10331000000A129900EB810090ED000A2A9800EB58
:103320008100D0F8C40090ED111A20EE010AB5EE2C
:10333000400AF1EE10FA47DDFFE7129943F2C05060
:10334000C2F2000000EB810090ED000AB0EEC00A6E
:103350002A9800EB8100D0F8C40090ED111AB0EE6D
:10336000C11AB4EE410AF1EE10FA1BDDFFE72A980C
:10337000129900EB8100D0F8C400029047F240306F
:10338000C2F2000090ED000A1AF070FC02982A992F
:10339000129A01EB820191ED421A20EE010A0AF025
:1033A0001DF910E02A98129A00EB8200D0F8C400B0
:1033B00043F2C051C2F2000101EB820191ED000A1B
:1033C0000AF0C2FBFFE746E0129943F2E050C2F276
:1033D000000000EB810090ED000AB0EEC00A2A98D0
:1033E00000EB8100D0F8C40090ED111AB0EEC11AC4
:1033F000B4EE410AF1EE10FA1BDDFFE72A981299AC
:1034000000EB8100D0F8C400019047F24030C2F2D6
:10341000000090ED000A1AF029FC01982A99129AEE
:1034200001EB820191ED421A20EE010A0AF0D6F872
:1034300010E02A98129A00EB8200D0F8C40043F200
:10344000E051C2F2000101EB820191ED000A0AF0A5
:103450007BFBFFE7FFE75DE09DED100A9DED111A94
:10346000B9EE002A21EE021A9DED0F2A21EE021A72
:1034700020EE000A30EE010AB5EE400AF1EE10FA35
:1034800047D1FFE79DED100AB8EE001A80EE010A61
:103490009DED111A20EE010A8DED0E0A9DED0E0A2A
:1034A000B0EEC00A2A98129900EB8100D0F8C4004F
:1034B00090ED111AB0EEC11AB4EE410AF1EE10FA15
:1034C0001BDDFFE72A98129900EB8100D0F8C400B9
:1034D000009047F24030C2F2000090ED000A1AF06E
:1034E000C5FB00982A99129A01EB820191ED421ACC
:1034F00020EE010A0AF072F80AE02A98129900EB0D
:103500008100D0F8C4009DED0E0A0AF01DFBFFE714
:10351000FFE7FFE7FFE712980130129040E6FFE770
:1035200001208DF8AF00FFE79DF8AF002CB080BD03
:10353000CDCCCC3D05F3053670B58AB008904FF47C
:10354000AE70019017F02EFE019907900798FDF7D5
:1035500064F808980078079908700898D0F8A004D3
:103560000799C1F830010898D0F8A8040799C1F864
:10357000380107990020029081F8E4000898D0F8FB
:10358000A4040799C1F82C01089800F204400BF03C
:1035900057FB0799C865089800F586600BF050FB4B
:1035A00001460298079A1166079A039208990491B6
:1035B000D1F85C34D1F860C4D1F864E4D1F868443F
:1035C000D1F86C54D1F87064966155611461C2F8F9
:1035D0000CE0C2F808C05360D1F87434D1F878C454
:1035E000D1F87CE4D1F88044D1F88454D1F88864CF
:1035F0001663D5629462C2F824E0C2F820C0D36199
:10360000D1F88C145163079ADDF820C0DCF89014CF
:10361000DCF89434DCF898C4C2F840C0D3639163FA
:10362000089991F89C14079A82F828110690FFE7F0
:103630000698032825DCFFE70798069901EB41026D
:1036400000EB8201089800EB8203D3F8A403D3F8BF
:10365000A823D3F8AC33CB668A664866089A0698E6
:10366000742100FB012004300AF0ECF90799069A56
:1036700001EB8201C1F8C400FFE706980130069013
:10368000D6E707980078022843D1FFE70420059089
:10369000FFE7059807283BDCFFE70798059901EB52
:1036A000410200EB8201089800EB8203D3F8A403E7
:1036B000D3F8A823D3F8AC33CB668A66486608985B
:1036C000059A6FF00F0101EB82031844D0F87C04D7
:1036D000079A1A4450620898059A01EB8202104436
:1036E000D0F86C04079911444861089A0598742130
:1036F00000FB012004300AF0A5F90799059A01EBB7
:103700008201C1F8C400FFE7059801300590C0E7C9
:10371000FFE7089800F00EF830B9FFE7079817F0B8
:10372000B1FF0020099002E007980990FFE709988F
:103730000AB070BD82B000900098007828B1FFE711
:103740000098007802280FD1FFE7009800F58C6000
:1037500090ED000AB5EE400AF1EE10FA04D1FFE751
:1037600000208DF8070022E00098007801281AD187
:10377000FFE7009800F2944090ED000AB5EE400A91
:10378000F1EE10FA0BD0FFE7009800F5936090ED92
:10379000000AB5EE400AF1EE10FA04D1FFE700206E
:1037A0008DF8070003E001208DF80700FFE79DF882
:1037B000070002B07047000081B08DF803008DF85B
:1037C00002109DF803009DF80210884202D0FFE726
:1037D000FFE7FEE701B0704780B582B00190019825
:1037E0002121FCF749FE202802D3FFE7FFE7FEE78F
:1037F00002B080BD84B00290ADF806100020ADF894
:103800000400029820B1FFE7BDF8060020B9FFE7E9
:103810000020ADF80E0035E0FFE747F2F820C2F2D5
:103820000000818C0020012900900ADBFFE7BDF831
:103830000410BDF8062000209142B8BF012000907E
:10384000FFE70098C007C0B1FFE747F2F821C2F2D6
:103850000001488C085C029ABDF80430D054488CB2
:10386000013000F01F004884888C01388884BDF83E
:1038700004000130ADF80400CFE7BDF80400ADF856
:103880000E00FFE7BDF80E0004B0704780B584B0AD
:10389000ADF80A00ADF80810BDF80A0020B1FFE746
:1038A000BDF8080018B9FFE7002003902EE01020B3
:1038B000FCF714FD0190019818B9FFE70020039070
:1038C00024E0BDF80A00BDF808104843FCF706FDE7
:1038D000019908600198006830B9FFE70198FCF78A
:1038E0002CFD0020039011E00199002088800199AF
:1038F000C880BDF80A10019A1181BDF80810019A1C
:1039000051810199888101980390FFE7039804B0E1
:1039100080BD000080B586B004908DF80F1004982B
:10392000FFF75AFF40F2D050C2F200000290FFE7CA
:103930000298406AA0B1FFE70298406A029002989C
:103940000499FCF791FE50B9FFE7029890F8210026
:103950009DF80F10FFF730FF029805901AE0E7E797
:103960002C200190FCF7BAFC0199029A506202984F
:10397000406AFCF752FE9DF80F000299496A81F8EF
:1039800021000298406A0499FCF782FD0298406A7F
:103990000590FFE7059806B080BD000080B588B0AF
:1039A00006908DF8171006989DF81710FFF7B2FFD4
:1039B00004901420FCF792FC0390039900200190DE
:1039C0000861C8608860486008609DF81700039926
:1039D00008719DF817100120FFF758FF0146019864
:1039E000039A116003990873039948730399086156
:1039F0000498806A30B9FFE70398049988620398B5
:103A0000079011E00498806A0290FFE702988068AE
:103A100020B1FFE7029880680290F7E703980299C7
:103A2000886003980790FFE7079808B080BD000002
:103A300080B542F6BC00C2F2000002F0A7FE80BDD5
:103A400080B542F61C10C2F2000002F09FFE80BD5D
:103A500080B542F65C00C2F2000002F097FE80BD25
:103A600082B001900198007810384AF6AB21CAF66E
:103A7000AA21A0FB01100009009000994FF23C2000
:103A8000C0F60100405C0199C8650098042807D37E
:103A9000FFE701990868042262F30900886506E0DF
:103AA0000199086840F2FF3290438865FFE701986A
:103AB000806D02B07047000086B0059000208DF840
:103AC00013000598806A03900598806910BBFFE792
:103AD0000398029003281BD80299DFE801F0020D39
:103AE0000218059890F82F00C00720B1FFE70120C9
:103AF0008DF81300FFE70CE00598C06AB0F1C07FB5
:103B000004D1FFE701208DF81300FFE701E000E09A
:103B1000FFE745E005988069B0F5005F25D1FFE734
:103B20000398019003281ED80199DFE801F00206EE
:103B3000021101208DF8130016E0059890F82F006F
:103B4000C00720B1FFE701208DF81300FFE70BE06D
:103B50000598C06AB0F1C07F04D1FFE701208DF85D
:103B60001300FFE700E0FFE719E003980090032847
:103B700004D3FFE70098032804D00EE001208DF85D
:103B800013000BE0059890F82F00C00720B1FFE765
:103B900001208DF81300FFE700E0FFE7FFE7FFE7F4
:103BA0009DF8130006B0704784B003900291019213
:103BB000009303980168086820F48020086000984A
:103BC00003990968486003988068402809D1FFE795
:103BD0000198039909688860029803990968C86088
:103BE00008E00298039909688860019803990968B8
:103BF000C860FFE704B0704780B582B001904EF610
:103C0000FC51CEF20001086840F08070086041F27B
:103C10000401CEF200010020086041F20002CEF261
:103C20000002116841F001011160019944F2402243
:103C3000C0F20F024A4340F6F411C2F200010A60DA
:103C40000A6844F6D353C1F26203A2FB033292091D
:103C500040F6F813C2F200031A6009684DF6836259
:103C6000C4F21B32A1FB0221890C40F6FC12C2F205
:103C70000002116040F60C21C2F20001086000F061
:103C80005BFB02B080BD000080B584B00390039858
:103C9000B0B9FFE74FF21630C0F601006946086080
:103CA0004FF6C051C0F601014FF21B32C0F60102BF
:103CB0004FF20D33C0F6010300200CF005FB49E084
:103CC0000398407AC007B0B9FFE74FF21630C0F64C
:103CD0000100694608604FF63A61C0F601014FF2F3
:103CE0002B32C0F601024FF21333C0F6010300205D
:103CF0000CF0EAFA2EE00398007AC007C8B1FFE79B
:103D00004FF21630C0F60100694608604FF6686150
:103D1000C0F601014FF22B32C0F601024FF213330D
:103D2000C0F6010300200CF0CFFA039800F06CF805
:103D300010E018F0EDFC029002984FF47A714843BD
:103D400044F6D351C1F26201A0FB0110800903992E
:103D50004860FFE704B080BD80B586B00490049849
:103D6000C8B9FFE74FF21630C0F601006946086097
:103D70004FF68E61C0F601014FF21B32C0F6010210
:103D80004FF20D33C0F60103002002900CF09CFAB4
:103D90000298059035E0142017F004FA0390039878
:103DA000C8B9FFE74FF21630C0F601006946086057
:103DB0004FF6E351C0F601014FF21B32C0F601028B
:103DC0004FF20D33C0F60103002001900CF07CFA95
:103DD0000198059015E0049840680399C86004981C
:103DE000806803990861039900204872039908725A
:103DF00004990968039A1160039948600398059033
:103E0000FFE7059806B080BD80B582B001900198AB
:103E1000B0B9FFE74FF21630C0F6010069460860FE
:103E20004FF6C051C0F601014FF21B32C0F601023D
:103E30004FF20D33C0F6010300200CF045FA11E0FB
:103E400001990120487201990020087201980069C7
:103E500020B1FFE7019801698847FFE70198FFF764
:103E600013FFFFE702B080BD80B584B003900398D4
:103E7000B0B9FFE74FF21630C0F60100694608609E
:103E80004FF6C051C0F601014FF21B32C0F60102DD
:103E90004FF20D33C0F6010300200CF015FA31E0AB
:103EA0000398407AC007B0B1FFE74FF21630C0F672
:103EB0000100694608604FF60C61C0F601014FF23F
:103EC0002B32C0F601024FF21333C0F6010300207B
:103ED0000CF0FAF916E003990120487203990020CA
:103EE000087218F015FC029002984FF47A7148435A
:103EF00044F6D351C1F26201A0FB0110800903997D
:103F00004860FFE704B080BD80B58AB0FFE70DF1DF
:103F100027000121FFF76EFC012840F0E180FFE758
:103F200040F64120C2F2000000780146089120B11D
:103F3000FFE70898012823D0D1E09DF827007328D7
:103F40001DD1FFE740F62021C2F2000106910020BA
:103F50000790C861886148610861C86088604860EE
:103F600008607320087040F64021C2F20001012071
:103F7000087040F64121C2F200010870FFE7AEE090
:103F800040F64020C2F2000000781F2800F3848031
:103F9000FFE79DF8271040F64020C2F200000378AA
:103FA00040F62022C2F20002D154017801310170A2
:103FB000007820286FDBFFE740F62020C2F20000E7
:103FC0000590C07F4FF21632C0F6010269464A6082
:103FD00008604FF2E371C0F601014FF2DB72C0F6E8
:103FE00001024FF2D873C0F6010300200CF06CF907
:103FF000059843F2E011C2F200010860C07F652815
:1040000021D1FFE740F62020C2F200000490407862
:104010004FF21632C0F6010269464A6008604FF658
:104020002501C0F601014FF22332C0F601024FF222
:104030001033C0F6010300200CF046F904984078D4
:1040400013F028FC1BE040F62020C2F20000C07FE5
:104050004FF21632C0F6010269464A6008604FF618
:104060005401C0F601014FF22B32C0F601024FF2AB
:104070001333C0F6010300200CF026F9FFE740F6E9
:104080004121C2F200010020087040F64021C2F236
:1040900000010870FFE721E04FF21630C0F6010082
:1040A000694608604FF68401C0F601014FF22B32D9
:1040B000C0F601024FF21333C0F601030020039053
:1040C0000CF002F9039840F64121C2F20001087099
:1040D00040F64021C2F200010870FFE7FFE716E753
:1040E0000AB080BD7047000080B584B00290019195
:1040F000029818B1FFE7019820B9FFE700208DF87A
:104100000F0026E0029807F07FFD20B1FFE70020B6
:104110008DF80F001DE002990A688888498900FB24
:104120000120009001980099029A5289FCF7D4F975
:1041300002998888431C0A89B3FBF2F000FB123015
:104140008880029988890138888101208DF80F00C4
:10415000FFE79DF80F0004B080BD000080B588B077
:1041600007900798D0F817020190079800F5827120
:104170000DF10A001222FCF7AFF90798B0F80D0212
:10418000122818D0FFE70198006800F582704FF4FC
:104190008071FCF720FA01990020C1F81600C1F8DF
:1041A0001200C1F80E000199C1F80A00C1F806001A
:1041B0000199888074E09DF80A009DF80B1040EA90
:1041C00001206FF3DF20A0F580600199C8819DF880
:1041D0000B009DF80C10C00840EA41106FF3DF207F
:1041E000A0F58060019908829DF80C009DF80D20D3
:1041F0009DF80E10800940EA820040EA81206FF3AA
:10420000DF20A0F58060019948829DF80E009DF89E
:104210000F10400840EAC1106FF3DF20A0F5806066
:10422000019988829DF80F008009019988759DF891
:104230000F00C0F301100199C8759DF81A009DF890
:104240001B1040EA0120A0F58060019908839DF8C9
:1042500010009DF8111040EA01200199C8809DF8D6
:1042600012009DF8131040EA0120019908819DF881
:1042700014009DF8151040EA0120019948819DF82D
:104280001600019908739DF81700019948739DF86D
:1042900018009DF8191040EA012001998880FFE775
:1042A00001980168086801F582714FF4807206F088
:1042B00023FF08B080BD000080B58AB008901A20A6
:1042C00016F070FF0790079818B9FFE700200990D3
:1042D0002EE0079900200190088348610861C860BA
:1042E0008860486008600899CDF8091003218DF8AE
:1042F0000D101221ADF80E1044F25D11C0F6000150
:10430000049107990691079908600DF1090013F0CF
:10431000C7FC079908600798006830B9FFE707985D
:1043200017F0B0F90020099002E007980990FFE724
:1043300009980AB080BD000081B040F64820C2F262
:104340000000007870BBFFE740F64821C2F2000190
:104350000120087041F20400CEF2000000680090D5
:10436000009840F60821C2F200010968884208D28C
:10437000FFE740F60C21C2F2000108680130086036
:10438000FFE741F20400CEF20000006840F6082189
:10439000C2F20001086040F64821C2F2000100208C
:1043A0000870FFE701B0704783B08DED020A41F25B
:1043B0000400CEF200000068019002980090FFE730
:1043C00041F20400CEF2000000680199401A00EEAC
:1043D000100AB8EE400A9DED001A40F6F410C2F241
:1043E000000090ED002AB8EE422A21EE021AB4EE47
:1043F000410AF1EE10FA01DAFFE7E1E703B0704796
:1044000080B584B0039041F20400CEF20000006851
:104410000290029803990968401A00EE100AB8EE5B
:10442000400A40F6F410C2F2000090ED001AB8EE17
:10443000411A80EE010A8DED010A02980399086085
:10444000FFF77AFF9DED010A04B080BD80B582B010
:1044500000F028F840F6D820C2F2000090ED000AE3
:10446000B8EE401A818800EE101AB8EEC00A9FED2F
:104470000B2A20EE020A30EE011AC08800EE100A64
:10448000B8EEC00A9FED062A20EE020A30EE010ABD
:104490008DED010A9DED010A02B080BD6F12833AD5
:1044A000BD378635B0B586B041F20400CEF20000CB
:1044B00000680590FFF740FF40F60C20C2F20000B4
:1044C00001680598002302934FF0FF3C1A46E1FB78
:1044D0000C0240F60021C2F2000100914A6008601F
:1044E0000868496840F6F414C2F200042268FBF739
:1044F0004BFF029B02468C46009940F65020C2F2C8
:104500000000C0F804C00260D1F800C04968D0F8CB
:1045100000E042682468AEFB04E502FB0452BCEBF9
:104520000E0C61EB020240F65821C2F20001039129
:10453000C1F800C04A60006840F6D822C2F200020A
:10454000049210600868496840F6F812C2F200024E
:1045500001921268FBF718FFDDF804C0029B049A71
:10456000014603989180016840689288DCF800C099
:1045700002FB0CF28A1A60F1000040F66021C2F2E0
:1045800000010A6048600868496840F6FC12C2F2FF
:1045900000021268FBF7F8FE0499C88006B0B0BDAF
:1045A00080B5082002F0ECFB80BD000080B584B02F
:1045B00002900191029818B1FFE7019820B9FFE736
:1045C00000208DF80F0030E0029807F033FB70B147
:1045D000FFE702998888431C0A89B3FBF2F000FBCD
:1045E000123088800299888901388881FFE7029912
:1045F0000A68C888498900FB012000900098019949
:10460000029A5289FBF768FF0299C888431C0A89FD
:10461000B3FBF2F000FB1230C880029988890130A8
:10462000888101208DF80F00FFE79DF80F0004B08E
:1046300080BD000072B6FFE7FEE7000080B582B0E3
:104640000190019890ED4C1A90ED4D0A30EE410A20
:104650008DED000A9DED000A9FED131A30EE010A60
:10466000DFED120A18F0B0FE8DED000A9DED000A94
:10467000B5EE400AF1EE10FA09DAFFE79DED000A07
:104680009FED0A1A30EE010A8DED000AFFE79DED5D
:10469000000A9FED071A30EE010A8DED000A9DED2C
:1046A000000A02B080BD00BFDC0F4940DC0FC940EA
:1046B000DC0F49C080B584B00290029840B1FFE79A
:1046C0000298406820B1FFE70298C06820B9FFE770
:1046D00000208DF80F0019E00298416891ED000A62
:1046E00090ED001A30EE410A8DED010A0298C06883
:1046F000DDED010A9FED070A0AF05EF80299C8682D
:10470000406D086101208DF80F00FFE79DF80F0054
:1047100004B080BD0000000084B00090009890EDCF
:10472000051A90ED060A90ED073A90ED082A21EE61
:10473000031A20EE020A30EE410A30EE000A8DED37
:10474000010A009890ED051A90ED063A90ED070ADF
:1047500090ED082A21EE031A20EE020A30EE010A3B
:1047600030EE000A8DED020A009890ED051A90EDEA
:10477000080A21EE011ABEEE002A31EE021A20EEDE
:10478000000A30EE010A30EE000A8DED030A9DEDBD
:10479000010ADDED020A9DED031A04B07047000026
:1047A00085B00090009B58699969DA691B6A049387
:1047B0000392029101909DED010ADDED020A9DED4B
:1047C000031ADDED041A05B07047000080B586B00D
:1047D00005904EF65C6CC0F6010CDCF80000DCF8CD
:1047E0000410DCF80820DCF80C30DCF810C0CDF840
:1047F00010C003930292019100900598694600F061
:104800009BF8059800F002F806B080BD10B58BB09B
:104810000A904FF07E52069200200790089009906F
:104820000A9B0699DDF81CC0DDF820E0099C1C629B
:10483000C3F81CE0C3F818C05961039004900590B8
:104840000A9B0399DDF810C0DDF814E0C3F82CE0F2
:10485000C3F828C059620A9981F83000009001908D
:1048600002900A9B0099DDF804C0DDF808E0C3F867
:104870003CE0C3F838C059630A9981F840000A99AE
:1048800048640A9B196999640A9B4FF08041D96476
:104890000A9B012183F854100A9991ED011AB0EE98
:1048A000000A30EE410AB0EE081A80EE010A81EDEE
:1048B000140A43F21811C2F200014CF6CD43C3F6BC
:1048C000CC530B6041F26F2CC3F6033CC1F814C00B
:1048D0004A608860C86008614DF20A7CC3F6234CC8
:1048E000C1F820C04FF07C5CC1F81CC08B614B63E9
:1048F0004A628862C86208638863C863086448645F
:1049000088640BB010BD000085B0CDED041A8DEDAC
:10491000031ACDED020A8DED010A0090009901986D
:10492000029A039BDDF810C0C1F820C0CB618A61F8
:10493000486105B07047000080B584B003900291D3
:1049400002980078039908700298406803994860BB
:10495000029890ED020AB5EE400AF1EE10FA05D188
:10496000FFE79FED370A8DED010A09E0029890ED0F
:10497000020A9FED321A20EE010A8DED010AFFE7CF
:104980009DED010A039880ED020A029890ED030A5A
:10499000B5EE400AF1EE10FA05D1FFE79FED280AC7
:1049A0008DED000A11E0029890ED030A14F076F8FC
:1049B00019F094F8B6EE001A20EE010AF0EE000AA3
:1049C00018F05AFD8DED000AFFE79DED000A0398EF
:1049D00080ED030A02980069039908610399086948
:1049E0008864029890ED010AB5EE400AF1EE10FAE3
:1049F00004D0FFE70298006938B9FFE703994FF642
:104A0000FF70C7F67F70C860FFE7039890F8540006
:104A1000C00720B9FFE703994868C864FFE7039817
:104A200090ED011AB0EE000A30EE410AB0EE081A1D
:104A300080EE010A80ED140A04B080BD48E17A3F9F
:104A4000FFFF7F7F80B5E2B08DED611ACDED600A8A
:104A50008DED5F0ACDED5E2A8DED5D2ACDED5C1A00
:104A60005B908DED5A3A5A9843F21811C2F2000148
:104A700048615B995C985D9A5E9BCB628A624862F2
:104A80009DED5F0AB0EEC00A5B9890ED021AB4EE9D
:104A9000410AF1EE10FA1ADCFFE79DED600AB0EE74
:104AA000C00A5B9890ED021AB4EE410AF1EE10FADA
:104AB0000DDCFFE79DED610AB0EEC00A5B9890ED5A
:104AC000021AB4EE410AF1EE10FA1CDDFFE75B9B1F
:104AD00058699969DA691B6A5993589257915690A7
:104AE0005B98FFF793FE5B995698579A589BDDF8B1
:104AF00064C1C1F820C0CB618A6148615B99012023
:104B000081F83000FFE75B9890F85400C00708B3C5
:104B1000FFE75B9890ED130A90ED141A9DED5A2A69
:104B200021EE021A30EE410A80ED130A5B9890EDF7
:104B3000011A90ED130AB4EE410AF1EE10FA08DA08
:104B4000FFE75B994868C8645B99002081F85400CE
:104B5000FFE7FFE75B9813F0E3FD8DED551ACDED10
:104B6000540A8DED530A00205290519050905B9959
:104B7000012081F840005C985D995E9A4F924E91B9
:104B80004D909DED4D0ADDED4E0A9DED4F1A13F04F
:104B900091FE002840F08480FFE75C985D995E9A62
:104BA0004692459144909DED440ADDED450A9DED08
:104BB000461A13F03BFF8DED491ACDED480A8DEDF5
:104BC000470A53985499559A4392429141909DEDCA
:104BD000470ADDED480A9DED491ADDED411A9DEDCC
:104BE000422ADDED432A14F051F98DED4C1ACDED3A
:104BF0004B0A8DED4A0A5B994A984B9A4C9BCB63C2
:104C00008A6348635B9A506B916BD26B40923F9181
:104C10003E909DED3E0ADDED3F0A9DED401A14F0F9
:104C20006FF85B9890ED031AB4EE410AF1EE10FABA
:104C300009DCFFE75B99002081F840005B99486C34
:104C40000938486404E05B99486C01304864FFE728
:104C50005B99486C896C884207DDFFE75B9900200F
:104C600088645B9981F8400003E05B990869886477
:104C7000FFE75B980269406C002114F0EDF85B9946
:104C800048645B9890F84000C00740B9FFE75B9A22
:104C9000506B916BD26B529251915090FFE7FFE7AE
:104CA0005F986099619A3A92399138909DED380AEF
:104CB000DDED390A9DED3A1AF6EE001A13F0C8FF41
:104CC0008DED3D1ACDED3C0A8DED3B0A3B983C99AC
:104CD0003D9A34923391329050985199529A2E9233
:104CE0002D912C905B98D0ED131A9DED2C0ADDEDE3
:104CF0002D0A9DED2E1A13F0ABFF8DED311ACDED7F
:104D0000300A8DED2F0A9DED320ADDED330A9DED5F
:104D1000341ADDED2F1A9DED302ADDED312A13F026
:104D200087FD8DED371ACDED360A8DED350A5B9B8B
:104D300058699969DA691B6A27932692259124900C
:104D40005B9B58699969DA691B6A1F931E921D91D2
:104D50001C9035983699379A189217911690DDED78
:104D60005A1A9DED160ADDED170A9DED181A13F07B
:104D70006FFF8DED1B1ACDED1A0A8DED190A9DED11
:104D80001C0ADDED1D0A9DED1E1ADDED1F1A9DEDBD
:104D9000192ADDED1A2A9DED1B3A13F0E3FFCDED44
:104DA000231A8DED221ACDED210A8DED200A9DEDFD
:104DB000240ADDED250A9DED261ADDED271A9DED6D
:104DC000202ADDED212A9DED223ADDED233A13F074
:104DD0009DFDCDED2B1A8DED2A1ACDED290A8DED15
:104DE000280A5B992898299A2A9BDDF8ACC0C1F85B
:104DF00020C0CB618A6148615B9B58699969DA6917
:104E00001B6A119310920F910E909DED0E0ADDED2D
:104E10000F0A9DED101ADDED111A13F0CBFECDED4A
:104E2000151A8DED141ACDED130A8DED120A5B994A
:104E30001298139A149BDDF854C0C1F820C0CB61BE
:104E40008A61486147F22030C2F200000068002801
:104E500000F05881FFE75B9890F84000C0070028F9
:104E600040F05081FFE79DED5F0ADDED600A9DEDAA
:104E7000611ADDED5C1A9DED5D2ADDED5E2A07F01D
:104E80007FFB5B9943F21810C2F2000091ED053AE6
:104E900091ED065A91ED071A91ED080A90ED016A1D
:104EA00090ED027A90ED034A90ED042A25EE075A20
:104EB00023EE063A33EE053A21EE041A31EE031AD8
:104EC00020EE020A30EE010A8DED0D0A9DED0D0A6D
:104ED000B0EEC01AB7EE000A30EE410A8DED0C0AB2
:104EE00090ED072A90ED081A9DED0C0A32EE412A4A
:104EF00020EE020A30EE010A8DED0B0A9DED0B0A41
:104F000090ED071AB4EE410AF1EE10FA07DDFFE763
:104F100043F21810C2F20000C0690B90FFE743F2A1
:104F20001810C2F20000009090ED013A90ED094A8D
:104F300090ED0D0AB7EE001A8DED011A31EE402A00
:104F400022EE042A20EE030A30EE020A80ED090A5E
:104F500090ED023A90ED0A4A90ED0D0A31EE402AAA
:104F600022EE042A20EE030A30EE020A80ED0A0A3D
:104F700090ED033A90ED0B4A90ED0D0A31EE402A88
:104F800022EE042A20EE030A30EE020A80ED0B0A1C
:104F900090ED042A90ED0C3A90ED0D0A31EE401A96
:104FA00021EE031A20EE020A30EE010A80ED0C0A0F
:104FB00090ED092A90ED0A3A90ED0B1A90ED0C0A4B
:104FC00023EE033A22EE022A32EE032A21EE011AE0
:104FD00031EE021A20EE000A30EE010A13F000FD55
:104FE0000099B0EE401A9DED010A8DED0A1A9DED73
:104FF0000A2A91ED091A21EE021A81ED091A9DED96
:105000000A2A91ED0A1A21EE021A81ED0A1A9DED83
:105010000A2A91ED0B1A21EE021A81ED0B1A9DED71
:105020000A2A91ED0C1A21EE021A81ED0C1A9DED5F
:105030000B2A30EE421A5B9890ED053A91ED094A41
:1050400022EE042A21EE031A31EE021A80ED051A2F
:105050009DED0B2A30EE421A5B9890ED063A91EDE9
:105060000A4A22EE042A21EE031A31EE021A80EDDA
:10507000061A9DED0B2A30EE421A5B9890ED073A26
:1050800091ED0B4A22EE042A21EE031A31EE021AA8
:1050900080ED071A9DED0B1A30EE410A5B9890EDFA
:1050A000082A91ED0C3A21EE031A20EE020A30EEA6
:1050B000010A80ED080A5B9B58699969DA691B6AE5
:1050C00005930492039102909DED020ADDED030A1F
:1050D0009DED041ADDED051A13F06CFDCDED091AF6
:1050E0008DED081ACDED070A8DED060A5B9906983D
:1050F000079A089BDDF824C0C1F820C0CB618A6103
:105100004861FFE762B080BD80B58EB08DED0D1AAD
:10511000CDED0C0A8DED0B0ACDED0A2A8DED092A95
:10512000CDED081A07908DED063A07980B990C9A69
:105130000D9B0593049203910899099A0A9B029387
:10514000019200919DED063A9DED030ADDED040A02
:105150009DED051ADDED001A9DED012ADDED022A17
:10516000FFF770FC0EB080BD80B582B08DED000AF7
:105170009DED000ABFEE001AB4EE410AF1EE10FAFE
:1051800006DCFFE740F6DB70CBF6C970019016E055
:105190009DED000AB7EE001AB4EE410AF1EE10FAE6
:1051A00006DBFFE740F6DB70C3F6C970019006E04E
:1051B0009DED000A17F0F2FD8DED010AFFE79DED70
:1051C000010A02B080BD000088B0079006919DEDF5
:1051D000060AB8EE401AB7EE000A80EE010A9FED0B
:1051E000131A20EE010A079880ED000A0698400085
:1051F0000799486007990020886003900490059003
:10520000079A0399049BDDF814C0C2F814C0136117
:10521000D16000900190029007990098019A029B3A
:105220000B62CA61886108B0704700BFFDAD003EE7
:1052300080B5ACB08DED281ACDED270A8DED260A8C
:10524000259026982799289A219220911F90259A97
:10525000D068116952691E921D911C909DED1F0A24
:10526000DDED200A9DED211ADDED1C1A9DED1D2AB4
:10527000DDED1E2A13F086FB8DED241ACDED230AF9
:105280008DED220A22982399249A2892279126901C
:1052900026982799289A1592149113909DED130A38
:1052A000DDED140A9DED151ADFED6F1A13F0D0FC39
:1052B0008DED181ACDED170A8DED160A259A906915
:1052C000D169126A0F920E910D909DED0D0ADDEDE0
:1052D0000E0A9DED0F1ADFED651A13F0B9FC8DED86
:1052E000121ACDED110A8DED100A9DED160ADDEDB5
:1052F000170A9DED181ADDED101A9DED112ADDED4E
:10530000122A13F095FA8DED1B1ACDED1A0A8DEDC8
:10531000190A259919981A9A1B9B0B62CA61886110
:10532000259890ED060AB0EEC00A9FED511AB4EE32
:10533000410AF1EE10FA1ADCFFE7259890ED070A12
:10534000B0EEC00A9FED4A1AB4EE410AF1EE10FA2F
:105350000DDCFFE7259890ED080AB0EEC00A9FED3E
:10536000441AB4EE410AF1EE10FA15DDFFE7259874
:105370008068022805D3FFE725998868013888608E
:1053800003E0259900208860FFE726982799289A4E
:105390002B922A9129905EE0259841688068884286
:1053A00019D2FFE7259948688968401A0C900C9833
:1053B000032805D3FFE7259988680230886003E059
:1053C000259948688860FFE726982799289A2B92A4
:1053D0002A9129903FE0259AD06811695269089274
:1053E0000791069026982799289A02920191009099
:1053F0002598D0ED001A9DED000ADDED010A9DED26
:10540000021A13F025FC8DED051ACDED040A8DED81
:10541000030A9DED060ADDED070A9DED081ADDED94
:10542000031A9DED042ADDED052A13F001FA8DED36
:105430000B1ACDED0A0A8DED090A259909980A9AE9
:105440000B9B4B610A61C86026982799289A2B927A
:105450002A912990FFE79DED290ADDED2A0A9DEDAD
:105460002B1A2CB080BD00BF9A99193E9A99593FCA
:10547000EC51383D80B588B0CDED041A8DED031A9E
:10548000CDED020A8DED010A9DED030A20EE001A12
:10549000B6EE000A30EE410A8DED000A9DED010ADC
:1054A0009DED022A9DED031A9DED043A21EE031AAB
:1054B00020EE020A30EE010A9DED001A22EE022AC9
:1054C00071EE420A17F000FD8DED050A9DED010A0F
:1054D0009DED023A9DED032A9DED041A21EE031A7B
:1054E00020EE020A30EE410A30EE000AFFF73CFEE1
:1054F0008DED060A9DED010A9DED021A9DED033A20
:105500009DED042A21EE031A20EE020A30EE010A74
:105510009DED001A22EE022A71EE420A17F0D4FC29
:105520008DED070A9DED050ADDED060A9DED071AD2
:1055300008B080BD80B582B00190009101980068EC
:105540000099FEF7D1FD02B080BD000080B584B0A7
:1055500047F61020C1F6FF700068039047F614204C
:10556000C1F6FF700068029047F61820C1F6FF7080
:10557000006801900199039808440390039888B14A
:10558000FFE7039840F27871C2F200010091023106
:10559000082206F0FBFA009902981231042206F064
:1055A000F5FAFFE704B080BD80B584B002900298A0
:1055B00020B1FFE70298406B18B9FFE70020039085
:1055C0004FE0142015F0EEFD0190019818B9FFE7A7
:1055D0000020039045E0019900200861C8608860C0
:1055E000486008600298C06A019908600298406BA0
:1055F00001994860029890ED0C0AB5EE400AF1EE70
:1056000010FA06D0FFE7029890ED0C0A8DED000A23
:1056100004E09FED150A8DED000AFFE79DED000AFD
:10562000019880ED020A0198806802990861029849
:1056300009F006FB0199C8600198C06808B9FFE746
:1056400005E00199002008610198039009E00198A4
:1056500020B1FFE7019816F015F8FFE7002003904E
:10566000FFE7039804B080BDDB0FC94084B002900F
:105670000191029890F820008DF803009DF8030036
:10568000012805D0FFE79DF8030002280AD1FFE7B3
:10569000019A0298016848691043486100208DF81A
:1056A0000F0008E00299486A40F480204862012017
:1056B0008DF80F00FFE79DF80F0004B07047000061
:1056C00088B00690059104920393069890F8200004
:1056D0008DF807000698006880680090059880683B
:1056E00008B9FFE700E0FFE79DF80700012806D0B2
:1056F000FFE79DF80700022840F08080FFE79DF853
:105700000300400700280CD4FFE79DF803000007C2
:10571000002806D4FFE79DF80300C006002864D5E2
:10572000FFE70098C0F301600290029901208840D1
:10573000039908600598806868B9FFE705980168D3
:10574000C06840EA415006990968029A01EB0211CB
:10575000C1F880010EE005994A688868C96840EA86
:10576000C200084306990968029A01EB0211C1F8C8
:105770008001FFE70598006906990968029A01EB24
:105780000211C1F884010598007D01280CD1FFE7C2
:1057900006980068029900EB0111D1F8840140F4E9
:1057A0008070C1F88401FFE7049840680699096891
:1057B000029A01EB0211C1F88C0104980068069965
:1057C0000968029A01EB0211C1F888010698006885
:1057D000029900EB0111D1F8800140F00100C1F8FD
:1057E000800100208DF81F0011E00699486A40F4FE
:1057F0000010486201208DF81F0008E00699486AF1
:1058000040F48020486201208DF81F00FFE79DF8DA
:105810001F0008B07047000086B004900391049800
:1058200090F820008DF803009DF80300012806D0B1
:10583000FFE79DF80300022840F0B080FFE746F242
:105840000040C4F2000001900199D1F8000240F03C
:105850000100C1F800020199D1F8000220F47C5047
:10586000C1F800020398426A0199D1F8000240EAA7
:105870000220C1F800020398406900F01F010120D6
:1058800088400290029A0199D1F81C029043C1F815
:105890001C020398C069F0B9FFE7029A0199D1F898
:1058A0000C029043C1F80C02039A9088D1685269A7
:1058B00040EA0140019901EBC201C1F84002039A9C
:1058C00010889168526940EA0140019901EBC201D8
:1058D000C1F84402FFE70398C06901281ED1FFE721
:1058E000029A0199D1F80C021043C1F80C02039AF4
:1058F00090881168526940EA0140019901EBC201A8
:10590000C1F84002039A90899168526940EA0140C7
:10591000019901EBC201C1F84402FFE703988069D5
:1059200040B9FFE7029A0199D1F804029043C1F807
:10593000040207E0029A0199D1F804021043C1F869
:105940000402FFE70398006940B9FFE7029A019952
:10595000D1F814029043C1F8140207E0029A0199A9
:10596000D1F814021043C1F81402FFE70398006A4B
:10597000012808D1FFE7029A0199D1F81C021043CF
:10598000C1F81C02FFE70199D1F8000220F00100E4
:10599000C1F8000200208DF8170008E00499486A59
:1059A00040F48020486201208DF81700FFE79DF841
:1059B000170006B07047000081B0009001B070473A
:1059C00084B00390029100200190039890F8200089
:1059D0008DF803009DF80300012805D0FFE79DF82E
:1059E0000300022812D1FFE7029838B9FFE70398B5
:1059F0000068C06800F00300019006E003980068AA
:105A0000006900F003000190FFE7FFE7019804B090
:105A10007047000086B004900391029201930498AD
:105A200090F820008DF803009DF80300012806D0AF
:105A3000FFE79DF80300022840F0E880FFE70398A5
:105A400080B9FFE704980068C068800748B9FFE79D
:105A50000499486A40F40010486201208DF817004C
:105A6000DDE00FE0049800680069800748B9FFE7AF
:105A70000499486A40F40010486201208DF817002C
:105A8000CDE0FFE704980068039900EB0110D0F81F
:105A9000B00100F00400029988600298806858B94B
:105AA000FFE704980068039900EB0110D0F8B001FB
:105AB000400D029908600AE004980068039900EB21
:105AC0000110D0F8B001C00802994860FFE70498BF
:105AD0000068039900EB0110D0F8B00100F002005B
