:020000040800F2
:10000000087900209D020008B1B60008A9990008EF
:10001000A5A900088D190008FD33010800000000A3
:10002000000000000000000000000000C1D5000832
:100030002125000800000000A1BC000871E90008AB
:10004000B7020008B7020008B7020008B7020008AC
:10005000B7020008B7020008B7020008B70200089C
:10006000B70200088D270008B7020008B702000891
:10007000D9220008B7020008B7020008B70200083A
:10008000B7020008B7020008B7020008B70200086C
:1000900091190008B7020008B7020008B70200086B
:1000A000B70200087DEA0008B7020008B70200089E
:1000B000B7020008B70200088DEA0008B70200087E
:1000C000B7020008B7020008B7020008B70200082C
:1000D000B7020008B7020008B702000885F8000858
:1000E000B7020008B7020008B7020008B70200080C
:1000F000B70200089DEA0008B7020008B70200082E
:10010000B7020008B7020008B7020008B7020008EB
:10011000B7020008B7020008B7020008B7020008DB
:10012000B7020008B7020008B7020008B7020008CB
:10013000B7020008B7020008B7020008B7020008BB
:10014000B7020008A1190008B702000805B90008A5
:10015000B7020008B7020008E9220008B702000849
:10016000B7020008B7020008B7020008B70200088B
:10017000B7020008B7020008B7020008000000003C
:10018000B7020008B702000800F002F800F076F8A5
:1001900014A696E8000CB244B344DA4501D100F04D
:1001A0006DF8BAE80F000FA696E83000A5EB04053D
:1001B00004EB0607AAEB0704A7F101074FEA1515A0
:1001C0004FEA3414A4F10104AC4201D300F056F814
:1001D00013F0010F18BFFB1A43F0010300F001F800
:1001E000DBE7184774A3010094A301000A444FF011
:1001F000000C10F8013B13F0070408BF10F8014B86
:100200001D1108BF10F8015B641E05D010F8016BCA
:10021000641E01F8016BF9D113F0080F1EBF10F82E
:10022000014BAD1C0C1B09D16D1E58BF01F801CB51
:10023000FAD505E014F8016B01F8016B6D1EF9D5D4
:100240009142D6D37047000070470000002300247D
:1002500000250026103A28BF78C1FBD8520728BFD6
:1002600030C148BF0B6070471FB519F01AFD9DE8FB
:10027000030000F057FA1FBD10B510BD00F0C6FA1C
:100280001146FFF7F1FF14F0C1FF00F0E4FA03B4E8
:10029000FFF7F2FF03BC00F015FB000009488047A0
:1002A00009480047FEE7FEE7FEE7FEE7FEE7FEE758
:1002B000FEE7FEE7FEE7FEE704480549054A064B70
:1002C0007047000069EA00088901000808710020F1
:1002D00008790020087500200875002070B50646D2
:1002E00000F004FA056806F10B0020F00704B442A0
:1002F0009CBF002070BD2B466A68BAB11068A0424E
:1003000010D304F1080188423CBF5068586007D3FD
:100310005168101941601168091B01605860146030
:10032000101D70BD13465268002AE7D121462846A9
:1003300000F0E4F90028DED170BD70B50446051F59
:1003400000F0D4F90068002C14BF446870BD002C84
:1003500018BFAC423CBF20466468F8D301680A1855
:10036000AA4218BF456003D12A68054611440160BE
:1003700028684119A1421CBF6C6070BD616869604A
:1003800021680844286070BD53EA020C00F06980BF
:100390002DE9F04B4FF00006002B1FBFB3FA83F599
:1003A00003FA05F424FA05F65E4012BF1643B2FACA
:1003B00082F502FA05F4C5F120051EBF22FA05FCFC
:1003C00044EA0C04203556EA044C4FEA144418BFA2
:1003D000641C4FF000084FF00009904271EB030CD1
:1003E00039D3002919BFB1FA81F701FA07F6B0FA3B
:1003F00080F700FA07F6C7F120071EBF20FA07FCB6
:1004000046EA0C062037B6FBF4FCA7EB0507103FC5
:1004100007F01F0BCBF120062CFA06F60CFA0BFBAB
:1004200044BFB3460026202FA4BF5E464FF0000B0A
:100430005BEA060C08BF4FF0010B19EB0B0948EB08
:100440000608ABFB027C06FB02CC0BFB03CCC01BFB
:1004500071EB0C01C1E70B46024641464846BDE838
:10046000F08B13B5084318BF4FF0FF300146AFF3D0
:100470000080BDE81C40704770B50D460A46044632
:10048000002100F08FF908B1001B70BD284670BD37
:1004900040EA0103024630B59B0710D14FF001340A
:1004A00000E008C208C91D1B9D4315EAC41FF8D00F
:1004B00013F0FF0102F8011B0DD01B0AF8E711F839
:1004C000013B002B02F8013B05D011F8013B002B4A
:1004D00002F8013BF3D130BD032A40F2308010F026
:1004E000030C00F0158011F8013BBCF1020F6244CF
:1004F00098BF11F801CB00F8013B38BF11F8013B60
:10050000A2F1040298BF00F801CB38BF00F8013B0C
:1005100011F0030300F02580083AC0F0088051F87C
:10052000043B083A51F804CBA0E80810F5E7121D87
:100530005CBF51F8043B40F8043BAFF30080D207A6
:1005400024BF11F8013B11F801CB48BF11F8012B72
:1005500024BF00F8013B00F801CB48BF00F8012B95
:10056000704710B5203AC0F00B80B1E81850A0E8F1
:100570001850B1E81850A0E81850203ABFF4F5AF71
:100580005FEA027C24BFB1E81850A0E8185044BFCD
:1005900018C918C0BDE810405FEA827C24BF51F83A
:1005A000043B40F8043B08BF7047D20728BF31F82E
:1005B000023B48BF11F8012B28BF20F8023B48BF7F
:1005C00000F8012B704702F0FF0343EA032242EADE
:1005D000024200F024B84FF000020429C0F012805B
:1005E00010F0030C00F01B80CCF1040CBCF1020FE6
:1005F00018BF00F8012BA8BF20F8022BA1EB0C01BB
:1006000000F00DB85FEAC17C24BF00F8012B00F8B0
:10061000012B48BF00F8012B70474FF0000200B5D6
:10062000134694469646203922BFA0E80C50A0E815
:100630000C50B1F12001BFF4F7AF090728BFA0E8C3
:100640000C5048BF0CC05DF804EB890028BF40F88F
:10065000042B08BF704748BF20F8022B11F0804FD1
:1006600018BF00F8012B704730B44FF0013C50F830
:10067000042B51F8043BCCFA52F4D51A20D1FCB922
:1006800050F8042B51F8043BCCFA52F4D51A17D188
:10069000B4B950F8042B51F8043BCCFA52F4D51AF3
:1006A0000ED16CB950F8042B51F8043BCCFA52F43B
:1006B000D51A05D1002CDAD030BC4FF000007047BD
:1006C00029BAB1FA81F111F01801D1F1200084406A
:1006D000F2D1CA40CB4012F0FF0213F0FF0330BC4E
:1006E000D01A704770477047704700000048704745
:1006F000F0030020704770477047704738B50446D4
:100700000A4600206946AFF30080002808BF38BDC4
:1007100002460099204600F057F8012038BD01201C
:1007200000F06CB8F8B5AFF30080054600200C4629
:100730000C2000BF0646A819A0420DD932466946D2
:100740000020AFF30080070008BF00F057F80098C2
:10075000A04218BF0546C419FFF7C8FF0560074649
:10076000F01D20F007004619284600F00AF8B442B0
:1007700008BFF8BDA21B31463868BDE8F84000F05C
:1007800023B800210160416070470C20704710B50C
:1007900000F016F8006810BD10B5044600F010F81F
:1007A000046010BDCBB22AB101788B4203D0401C4B
:1007B000521EF9D10020704700487047E80300201E
:1007C00000487047E8030020034640688C46002834
:1007D00018BF88423CBF03464068F8D318681844E5
:1007E000884207D00CF1030020F00700001D411AD9
:1007F000521A0146081D0A60FFF79FBD10B500F0B0
:1008000039F8BDE8104000F02FB870477546FFF783
:10081000D3FFAE4605006946534620F007008546E3
:1008200018B020B5FFF748FDBDE820404FF00006A6
:100830004FF000074FF000084FF0000BAC46ACE85B
:10084000C009ACE8C009ACE8C009ACE8C00921F0B7
:1008500007018D46704710B50446AFF3008020466F
:10086000BDE81040FFF713BD002801D000F02AB802
:100870007047000010B5012805D0002103A000F04A
:1008800027F8012010BD09A1F8E70000534947529D
:10089000544D454D3A204F7574206F662068656150
:1008A00070206D656D6F7279000000003A20486518
:1008B0006170206D656D6F727920636F72727570F3
:1008C0007465640001491820ABBEFEE726000200F3
:1008D00070B505460C460A2000E06D1C00F011F8CA
:1008E00035B128780028F8D102E0641C00F009F83E
:1008F00014B120780028F8D1BDE870400A20AFF389
:10090000008008B569468DF800000320ABBE08BD25
:1009100081B08DED000AFFE79DED000A9FED141AEE
:10092000B4EE410AF1EE10FA09DDFFE79DED000A91
:100930009FED121A30EE010A8DED000AECE7FFE799
:100940009DED000A9FED0B1AB4EE410AF1EE10FA8C
:1009500009DAFFE79DED000A9FED071A30EE010A64
:100960008DED000AECE79DED000A01B0704700BF75
:10097000DC0F4940DC0F49C0DC0FC940DC0FC9C0A7
:1009800080B58AB008908DF81F1006928DF8173048
:10099000089838B1FFE7069820B1FFE79DF81700E7
:1009A00020B9FFE700208DF8270024E00020049004
:1009B0000390029001909DF81F0040F080008DF898
:1009C0000C0008989DF817100231CBB201A903AAB8
:1009D0000CF0FEFE58B1FFE7069801A902319DF820
:1009E0001720FFF779FD01208DF8270003E0002094
:1009F0008DF82700FFE79DF827000AB080BD0000B2
:100A000080B584B002908DF807108DF8062002980A
:100A100020B9FFE700208DF80F000FE09DF80700D8
:100A20008DF804009DF806008DF80500029801A9D4
:100A300002220CF07DFF8DF80F00FFE79DF80F00FC
:100A400004B080BD80B59EB01D901D9808B9FFE729
:100A5000EFE241F27070ADF872004FF07C501B90E5
:100A600049F69A10C3F619601A904DF20A70C3F64F
:100A70002340199001F0E0FD8DED0B0AFFE701F036
:100A8000DBFD9DED0B1A30EE410AB2EE041AB4EE16
:100A9000410AF1EE10FA1BDDFFE71D990020886284
:100AA0001D99C8621D9908631D994CF6CD40C4F28A
:100AB0001C1008641D990020C4F2202048641D9970
:100AC0004FF07E50C8631D9988631D99486396E274
:100AD0001D99002008641D9988621D99C8621D999E
:100AE0000863ADF82A00FFE7BDF82A0041F26F71F4
:100AF000884200F3DA81FFE70020ADF82800099072
:100B00001D980068122109AA0623FFF739FF002863
:100B100069D0FFE74FF0655007909DF824009DF8DD
:100B2000251040EA0120ADF82200BDF9220000EEB8
:100B3000100AB8EEC00A9DED071A20EE010A9FEDDB
:100B4000E41A20EE010A1D9880ED030A9DF82600A4
:100B50009DF8271040EA0120ADF82200BDF92200DF
:100B600000EE100AB8EEC00A9DED072A20EE020A38
:100B700020EE010A1D9880ED040A9DF828009DF8DA
:100B8000291040EA0120ADF82200BDF9220000EE54
:100B9000100AB8EEC00A9DED072A20EE020A20EEE8
:100BA000010A1D9880ED050A1D9890ED031A90ED3D
:100BB000042A90ED050A22EE022A21EE011A31EEF6
:100BC000021A20EE000A30EE010A18F0C7F88DED87
:100BD000120A9DED121A1D9890ED100A30EE010ACE
:100BE00080ED100AFFE70021069105911D984068ED
:100BF00005AA082300F06AFA002866D0FFE79DF8EE
:100C000014000F2860D1FFE74AF25800C3F68B208A
:100C100003909DF816009DF8171040EA0120ADF8EA
:100C20001200BDF9120000EE100AB8EEC00A9DEDE8
:100C3000031A20EE010A1D9880ED060A1D9890ED1A
:100C4000061A90ED0A0A30EE010A80ED0A0A9DF8B4
:100C500018009DF8191040EA0120ADF81200BDF906
:100C6000120000EE100AB8EEC00A9DED031A20EE45
:100C7000010A1D9880ED070A1D9890ED071A90ED66
:100C80000B0A30EE010A80ED0B0A9DF81A009DF860
:100C90001B1040EA0120ADF81200BDF9120000EE71
:100CA000100AB8EEC00A9DED031A20EE010A1D9845
:100CB00080ED080A1D9890ED081A90ED0C0A30EEB0
:100CC000010A80ED0C0AFFE7FFE7BDF82A0050BBE0
:100CD000FFE79DED120A8DED100A8DED110A00203F
:100CE0008DF80B00FFE79DF80B0002281ADCFFE7E8
:100CF0001D989DF80B1000EB810090ED060A13A8DB
:100D000000EB810080ED000A9DF80B1016A800EBA7
:100D1000810080ED000AFFE79DF80B0001308DF89F
:100D20000B00E0E762E09DED120A9DED111AB4EEB2
:100D3000410AF1EE10FA03DDFFE712981190FFE788
:100D40009DED120A9DED101AB4EE410AF1EE10FA73
:100D500003DAFFE712981090FFE700208DF80A00F1
:100D6000FFE79DF80A0002283FDCFFE71D989DF889
:100D70000A1000EB810090ED060A16A800EB810036
:100D800090ED001AB4EE410AF1EE10FA0ADDFFE729
:100D90001D989DF80A2000EB8200806916A941F891
:100DA0002200FFE71D989DF80A1000EB810090EDEE
:100DB000060A13A800EB810090ED001AB4EE410A78
:100DC000F1EE10FA0ADAFFE71D989DF80A2000EB11
:100DD0008200806913A941F82200FFE7FFE79DF830
:100DE0000A0001308DF80A00BBE7FFE79DED110A0C
:100DF0009DED101A30EE410A8DED0C0A00208DF8A1
:100E00000900FFE79DF8090002281ADCFFE79DF8BA
:100E1000091016A800EB810090ED000A13A800EB62
:100E2000810090ED001A30EE410A0DA800EB810020
:100E300080ED000AFFE79DF8090001308DF80900F8
:100E4000E0E79DED0C0AB6EE001AB4EE410AF1EEB1
:100E500010FA1EDCFFE79DED0D0A9FED771AB4EE48
:100E6000410AF1EE10FA14DCFFE79DED0E0A9FED4A
:100E7000721AB4EE410AF1EE10FA0ADCFFE79DEDBA
:100E80000F0A9FED6D1AB4EE410AF1EE10FA01DD82
:100E9000FFE70AE09FED690A01F07CFBFFE7BDF880
:100EA0002A000130ADF82A001EE61D9890ED100AC8
:100EB0009FED631A80EE010A80ED100A00208DF884
:100EC0000800FFE79DF80800022817DC02E000BFD9
:100ED000CDCC1C411D989DF8081000EB810090EDD1
:100EE0000A0A9FED571A80EE010A80ED0A0AFFE711
:100EF0009DF8080001308DF80800E3E71D9951F8CE
:100F0000440B00F043FA9FED4F0A01F043FBFFE76B
:100F10009DED0C0A0120B6EE001AB4EE410AF1EE86
:100F200010FA009065DCFFE71D9890ED100A9FED28
:100F3000461A30EE010AB0EEC00A0120B6EE001AE1
:100F4000B4EE410AF1EE10FA009052DCFFE79DED9D
:100F50000D0A01209FED381AB4EE410AF1EE10FAA5
:100F6000009046DCFFE79DED0E0A01209FED321A4E
:100F7000B4EE410AF1EE10FA00903ADCFFE79DED85
:100F80000F0A01209FED2C1AB4EE410AF1EE10FA7F
:100F900000902EDCFFE71D9890ED0A0AB0EEC00A23
:100FA00001209FED2A1AB4EE410AF1EE10FA0090EA
:100FB0001FDCFFE71D9890ED0B0AB0EEC00A012080
:100FC0009FED221AB4EE410AF1EE10FA009010DC07
:100FD000FFE71D9890ED0C0AB0EEC00A9FED1B1ABA
:100FE0000020B4EE410AF1EE10FAC8BF01200090D3
:100FF000FFE70098C00700287FF441ADFFE71D9888
:1010000090ED101A9FED120A80EE010A8DED010A93
:1010100001981D99486301981D99886301981D994D
:10102000C8631D99012081F84A001D9981F84B0081
:10103000FFE71EB080BD00BF9A99193E6F12033AB8
:101040000080BB450AD7A33BCDCC1CC10AD7233CAB
:10105000C3F51C4180B586B00490039100218DF842
:101060000B108DF80A1004980DF10B020123FFF705
:1010700087FC20B9FFE700208DF8170021E00398D6
:1010800000210DF10A02012300F020F820B9FFE74A
:1010900000208DF8170014E09DF80B1000201E2989
:1010A000019008D1FFE79DF80A000F38B0FA80F0F0
:1010B00040090190FFE7019800F001008DF817004A
:1010C000FFE79DF8170006B080BD000080B588B02E
:1010D00006908DF8171004928DF80F30069838B1ED
:1010E000FFE7049820B1FFE79DF80F0020B9FFE764
:1010F00000208DF81F0026E00020CDF80B000290A4
:10110000CDF8030000909DF8170040F080008DF8A6
:10111000080006989DF80F100131CBB2694602AA6B
:101120000CF056FB58B1FFE70498694601319DF871
:101130000F20FFF7D1F901208DF81F0003E00020F8
:101140008DF81F00FFE79DF81F0008B080BD00006C
:1011500080B584B002908DF807108DF806200298B3
:1011600020B9FFE700208DF80F000FE09DF8070081
:101170008DF804009DF806008DF80500029801A97D
:1011800002220CF0D5FB8DF80F00FFE79DF80F0051
:1011900004B080BD80B582B00090009820B9FFE710
:1011A00000208DF8070055E0009951F80C0B00F075
:1011B00055F820B9FFE700208DF807004AE00098B5
:1011C00090ED030A90ED0D1A20EE010A80ED030A5E
:1011D000009890ED040A90ED0E1A20EE010A80EDC1
:1011E000040A009890ED050A90ED0F1A20EE010A0E
:1011F00080ED050A00994868183100F07BF820B9A5
:10120000FFE700208DF8070024E0009890F84A00DE
:10121000E0B1FFE7009890ED060A90ED0A1A30EE73
:10122000410A80ED060A009890ED070A90ED0B1A2E
:1012300030EE410A80ED070A009890ED080A90ED23
:101240000C1A30EE410A80ED080AFFE701208DF804
:101250000700FFE79DF8070002B080BD80B588B0A9
:10126000069005910020ADF8100003900698122119
:1012700003AA0623FFF784FB20B9FFE700208DF8BF
:101280001F0031E04FF06550029000200190FFE711
:101290000198022824DCFFE7019A03A800EB420131
:1012A000497810F8120040EA0120ADF80200BDF9BB
:1012B000020000EE100AB8EEC00A9DED021A20EE00
:1012C000010A9FED0B1A20EE010A0598019900EB27
:1012D000810080ED000AFFE7019801300190D7E717
:1012E00001208DF81F00FFE79DF81F0008B080BDAA
:1012F000CDCC1C4180B588B00690059100210491A9
:101300000391069803AA0823FFF7E0FE20B9FFE740
:1013100000208DF81F0032E09DF80C000F2804D04B
:10132000FFE700208DF81F0029E000200290FFE772
:10133000029802281FDCFFE7029903A800EB410195
:101340008878C97840EA0120ADF80600BDF90600AA
:1013500000EE100AB8EEC00A9FED0B1A20EE010A4B
:101360000598029900EB810080ED000AFFE70298E2
:1013700001300290DCE701208DF81F00FFE79DF8A7
:101380001F0008B080BD00BF58A08B3A80B586B062
:1013900004900391049818B1FFE7039820B9FFE780
:1013A00000208DF8170048E00020ADF80A000498EE
:1013B00022210DF10A020223FFF7E2FA20B9FFE72A
:1013C00000208DF8170038E09DF80B00802804D12C
:1013D000FFE700208DF817002FE09DF80A009DF828
:1013E0000B10C00040EA5110ADF80800BDF808002D
:1013F000B0F5806F07DBFFE7BDF80800A0F50060DF
:10140000ADF8060004E0BDF80800ADF80600FFE7FF
:10141000BDF9060000EE100AB8EEC00AB4EE001ADC
:1014200020EE010AB3EE071A30EE010A039880EDB0
:10143000000A01208DF81700FFE79DF8170006B09D
:1014400080BD000082B00190019828B1FFE70198AB
:10145000D0F87A0008B9FFE708E00198D0F87A00E0
:1014600000900099012081F84900FFE702B0704721
:1014700080B586B00490049840B1FFE704980068F6
:1014800020B1FFE70498406820B9FFE700208DF8FD
:10149000170067E100218DF80F10049800680DF126
:1014A0000F020123FFF76CFA9FEDB00A01F072F80A
:1014B000049908684968FFF7CDFD20B9FFE70020CF
:1014C0008DF817004EE1049800687E21B622FFF7E0
:1014D00097FA20B9FFE700208DF8170042E19FED51
:1014E000A40A01F057F8049800687C210022FFF755
:1014F00087FA20B9FFE700208DF8170032E1049841
:1015000000687D210422FFF77BFA20B9FFE7002065
:101510008DF8170026E100208DF80E009FED950A4A
:1015200001F038F8049800687D210DF10E020123C6
:10153000FFF726FA20B9FFE700208DF8170011E128
:10154000049800684021AB22FFF75AFA20B9FFE760
:1015500000208DF8170005E100208DF80D009FEDAB
:10156000850A01F017F80498006840210DF10D027A
:101570000123FFF705FA28B1FFE79DF80D00AB281E
:1015800004D0FFE700208DF81700EBE00498006816
:1015900041210122FFF734FA20B9FFE700208DF83E
:1015A0001700DFE000208DF80C009FED720A00F0BC
:1015B000F1FF04980068412103AA0123FFF7E0F935
:1015C00028B1FFE79DF80C00012804D0FFE70020B8
:1015D0008DF81700C6E00498006853210822FFF731
:1015E0000FFA20B9FFE700208DF81700BAE0049841
:1015F000006858210422FFF703FA20B9FFE7002012
:101600008DF81700AEE0049840681421B622FFF769
:101610009FFD20B9FFE700208DF81700A2E09FEDA5
:10162000560A00F0B7FF049840680F210022FFF728
:101630008FFD20B9FFE700208DF8170092E0002011
:101640008DF80B009FED4B0A00F0A4FF0498406852
:101650000F210DF10B020123FFF738FD20B1FFE749
:101660009DF80B0020B1FFE700208DF8170079E00E
:101670000498406810218122FFF76AFD20B9FFE736
:1016800000208DF817006DE00498406811210022B9
:10169000FFF75EFD20B9FFE700208DF8170061E03D
:1016A0000498406815218022FFF752FD20B9FFE71A
:1016B00000208DF8170055E004984068162101229B
:1016C000FFF746FD20B9FFE700208DF8170049E03D
:1016D0000498406818210122FFF73AFD20B9FFE77E
:1016E00000208DF817003DE000200190FFE70198F1
:1016F00002281CDCFFE70498019900EB810100201F
:1017000088620499019A01EB82024FF07E51516385
:101710000499019A01EB8201C8600499019A01EBD6
:1017200082018861FFE7019801300190DFE70498AA
:1017300000214162049A4CF6CD40C4F21C101064A2
:10174000049A0020C4F220205064049880F84B10C2
:10175000049A012082F84800049A82F849108DF812
:101760001700FFE79DF8170006B080BD6F12833A9F
:101770006F12033B0AD7233CA69B443B80B58EB037
:101780000C900C9818B9FFE700200D9096E04C20C3
:1017900014F03CFD0B900B9818B9FFE700200D905A
:1017A0008CE00020ADF82A000B984C21FEF735FFA5
:1017B0000B9941F24540C0F6000088600C99096819
:1017C000CDF815100C994968CDF819100C990989B4
:1017D000ADF81D1008218DF81F108DF820100C9900
:1017E000097B8DF82110CDF822000B99CDF8261039
:1017F0000C99D1F8151000910C99D1F8191001919C
:101800000C99B1F81D10ADF8081007218DF80A10D9
:101810008DF80B100C9991F821108DF80C10CDF863
:101820000D000B98CDF811000DF115000BF0F6FE30
:101830000B99086068460BF0F1FE0B9948600B9815
:10184000006820B1FFE70B98406830B9FFE70B98BC
:1018500014F04CFF00200D9030E00C9890F82A0016
:101860000B9981F84A00FFE70B98FFF701FE01286A
:1018700005D0FFE79FED130A00F08CFEF4E7BDF8FA
:101880002A00642806DBFFE70B9814F02FFF0020E6
:101890000D9013E00B9890F84A0020B1FFE70B98E9
:1018A000FFF7D0F8FFE70B99012081F848000B996A
:1018B000002081F849000B980D90FFE70D980EB0BD
:1018C00080BD00BFCDCCCC3D80B586B005900598DD
:1018D00028B1FFE70598D0F83B0008B9FFE752E0D0
:1018E0000598D0F83B0004900499059AD06A126BD1
:1018F000C1F80D20C1F809000498007A0146019151
:1019000020B1FFE70198012819D03BE00498093085
:1019100003900398007800F00100049981F82000FA
:101920000398408813F016F9049880ED090A03988B
:10193000808813F00FF9049880ED0A0A23E00498D8
:10194000093002900298007804994874029840780F
:1019500000F00100049988740298408813F0FAF8A6
:10196000049880ED050A0298C08813F0F3F80498F3
:1019700080ED060A0298808813F0ECF8049880ED58
:10198000070A00E0FFE706B080BD0000FFE7FEE7C2
:1019900080B542F21020C2F2000002F073FA80BD5E
:1019A00080B542F23820C2F2000002F06BFA80BD2E
:1019B00082B08DF803009DF80300012806D1FFE7EF
:1019C00042F21020C2F2000001900DE09DF80300E9
:1019D000022806D1FFE742F23820C2F2000001904F
:1019E00002E000200190FFE7019802B0704700007C
:1019F00084B08DF80F000291ADF806209DF80F001D
:101A00000146009123281DD80099DFE801F0121348
:101A10001415161B1B1B1B1B1B1B1B1B1B1B1B1B28
:101A20001B1B1B1B1B1B1B1B1B1B1B1B1B1B17180D
:101A3000191A08E007E006E005E004E003E002E030
:101A400001E000E0FFE7002004B07047002070478D
:101A500080B582B041F63470C2F20000009041F2CD
:101A60008411C2F20001002201920EF0B3FA009834
:101A700040F68411C2F200010EF08EFA019802B015
:101A800080BD000080B584B003900291039941F6B7
:101A90003470C2F2000001900EF07EFA01980EF050
:101AA00021FA002004B080BD83B0029001918DF82E
:101AB000032000208DF802009DF9020003B070475A
:101AC00080B596B0012114910020129013910C90D2
:101AD0000D900E900F9011901090FFE742F21020A1
:101AE000C2F200000CA901F08DFFB0B1FFE749F68A
:101AF000D970C0F60100694608604AF2E821C0F6D4
:101B0000010149F6DE72C0F6010249F6D073C0F653
:101B1000010300200AF02AFFE0E701210A910020DA
:101B200008900991069102900390049005900E2070
:101B300007900B90FFE742F23820C2F2000002A9A2
:101B400001F060FFB0B1FFE749F6D970C0F60100BF
:101B5000694608604AF21131C0F6010149F6DE72A9
:101B6000C0F6010249F6D073C0F6010300200AF066
:101B7000FDFEE0E716B080BD80B586B0FFF7A0FFA0
:101B800049F6D970C0F601000290694608604AF231
:101B90000441C0F6010149F6E672C0F60102039263
:101BA00049F6D373C0F601030493002005900AF0B0
:101BB000DDFE00F045FA02990598039A049BEC4675
:101BC000CCF800104AF2BC31C0F601010AF0CEFE9A
:101BD0000299039A049B059840F2C22CC2F2000CB1
:101BE0008CF80000EC46CCF800104AF2E431C0F664
:101BF00001010AF0BBFE06B080BD000080B58CB0CC
:101C00000A9040F2C220C2F200000078C00718B16A
:101C1000FFE7FFF7B1FFFFE70A9800F067F818B990
:101C2000FFE700200B905EE03F2014F0EFFA0990F0
:101C30000998E0B9FFE70A98006849F6D972C0F63A
:101C4000010269464A6008604AF23041C0F601016B
:101C500049F6DE72C0F6010249F6D073C0F6010300
:101C6000002002900AF082FE02980B903BE0099857
:101C70003F21FEF7B0FC0A980068099908600A98AD
:101C80000079FFF795FE099948600A98B0F80500B9
:101C900009990884099808300A99B1F80510039148
:101CA0000021049105910691082207928DF82010D9
:101CB00003A91822FEF710FC0A98B0F8070009994A
:101CC00048850A98D0F809000999C1F837000A98A0
:101CD000D0F80D000999C1F83B00099800F03EF9D1
:101CE00009980B90FFE70B980CB080BD80B58CB0C5
:101CF0000A900A98D0B9FFE749F6D970C0F60100FA
:101D0000694608604AF26101C0F6010149F6DE72D7
:101D1000C0F6010249F6D073C0F601030020089016
:101D20000AF024FE08988DF82F0013E10A98006845
:101D3000A0B1FFE70A98B0F8070078B1FFE70A986A
:101D4000B0F8050050B1FFE70A98007901281FD0CC
:101D5000FFE70A98007902281AD0FFE749F6D97000
:101D6000C0F60100694608604AF25421C0F601013C
:101D700049F6DE72C0F6010249F6D073C0F60103DF
:101D8000002007900AF0F2FD07988DF82F00E1E09F
:101D90000A98007901286AD1FFE741F68860C2F20B
:101DA0000000007808281DD1FFE70A98006849F66E
:101DB000D972C0F6010269464A6008604AF26B11A6
:101DC000C0F6010149F6DE72C0F6010249F6D07391
:101DD000C0F60103002006900AF0C8FD06988DF8B1
:101DE0002F00B7E000208DF82700FFE79DF82700BF
:101DF00041F68861C2F200010978884236DAFFE7CD
:101E00009DF8271041F64460C2F2000050F821000E
:101E1000408D0A99B1F80710884220D1FFE70A994E
:101E20000868B1F8072049F6D973C0F6010369467E
:101E30008B604A6008604AF23A31C0F6010149F607
:101E4000DE72C0F6010249F6D073C0F6010300202D
:101E500005900AF08BFD05988DF82F007AE0FFE7DA
:101E60009DF8270001308DF82700BFE7FFE70A98AB
:101E7000007902286AD1FFE741F68960C2F20000CA
:101E8000007808281DD1FFE70A98006849F6D97242
:101E9000C0F6010269464A6008604AF2AB11C0F61A
:101EA000010149F6DE72C0F6010249F6D073C0F6B0
:101EB0000103002004900AF059FD04988DF82F00CA
:101EC00048E000208DF82600FFE79DF8260041F647
:101ED0008961C2F200010978884236DAFFE79DF88D
:101EE000261041F66460C2F2000050F82100408DD7
:101EF0000A99B1F80710884220D1FFE70A990868CB
:101F0000B1F8072049F6D973C0F6010369468B6022
:101F10004A6008604AF27B31C0F6010149F6DE7280
:101F2000C0F6010249F6D073C0F601030020039009
:101F30000AF01CFD03988DF82F000BE0FFE79DF8D9
:101F4000260001308DF82600BFE7FFE701208DF85D
:101F50002F00FFE79DF82F000CB080BD80B586B044
:101F600005900598406842F21021C2F200018842B3
:101F70002DD1FFE7059841F68861C2F200010B7888
:101F800041F64462C2F2000242F8230008780130B0
:101F90000870059908680A8C4B8D49F6D97CC0F603
:101FA000010C6946C1F80CC08B604A6008604AF2B7
:101FB0009101C0F6010149F6E672C0F6010249F648
:101FC000D373C0F6010300200AF0D0FCFFE70598A8
:101FD000406842F23821C2F2000188422DD1FFE769
:101FE000059841F68961C2F200010B7841F66462FE
:101FF000C2F2000242F82300087801300870059907
:1020000008680A8C4B8D49F6D97CC0F6010C6946EC
:10201000C1F80CC08B604A6008604AF2D701C0F674
:10202000010149F6E672C0F6010249F6D373C0F623
:10203000010300200AF09AFCFFE706B080BD000013
:1020400080B582B0FFE742F21020C2F2000002F039
:1020500099FBB0B1FFE749F6D970C0F601006946B7
:1020600008604AF2EB11C0F6010149F6DE72C0F6D3
:10207000010249F6D073C0F6010300200AF076FC95
:10208000E1E7FFE742F23820C2F2000002F07AFBFB
:10209000B0B1FFE749F6D970C0F6010069460860A3
:1020A0004AF20821C0F6010149F6DE72C0F60102CB
:1020B00049F6D073C0F6010300200AF057FCE1E7AF
:1020C000FFE742F21020C2F20000022101F0C4FB3F
:1020D000B0B1FFE749F6D970C0F601006946086063
:1020E0004AF28A21C0F6010149F6DE72C0F6010209
:1020F00049F6D073C0F6010300200AF037FCE0E790
:10210000FFE742F23820C2F20000102101F0A4FBE8
:10211000B0B1FFE749F6D970C0F601006946086022
:102120004AF2B921C0F6010149F6DE72C0F6010299
:1021300049F6D073C0F6010300200AF017FCE0E76F
:1021400002B080BD80B588B006900698D0B9FFE790
:1021500049F6D970C0F601006946086049F6F67183
:10216000C0F6010149F6DE72C0F6010249F6D073ED
:10217000C0F60103002003900AF0F8FB03988DF8E5
:102180001F0042E000208DF81700FFE70698406826
:1021900001F040FE28BBFFE79DF8170001308DF8E5
:1021A00017009DF8170065281ADBFFE749F6D9707C
:1021B000C0F60100694608604AF22521C0F6010117
:1021C00049F6DE72C0F6010249F6D073C0F601038B
:1021D000002002900AF0CAFB02988DF81F0014E05C
:1021E000D4E701200490069A506802F108012232D7
:1021F00004AB01F05BFB20B9FFE701208DF81F0065
:1022000003E000208DF81F00FFE79DF81F0008B0D5
:1022100080BD000081B08DF803008DF802109DF89C
:1022200003009DF80210884202D0FFE7FFE7FEE7B7
:1022300001B0704780B582B0019001982121FEF76E
:102240001BF9202802D3FFE7FFE7FEE702B080BDBD
:1022500080B586B004908DF80F100498FFF7EAFF60
:1022600040F29800C2F200000290FFE70298406A34
:10227000A0B1FFE70298406A029002980499FEF725
:10228000F3F950B9FFE7029890F821009DF80F107C
:10229000FFF7C0FF029805901AE0E7E72C200190B5
:1022A000FEF71CF80199029A50620298406AFEF704
:1022B000B4F99DF80F000299496A81F8210002984B
:1022C000406A0499FEF7E4F80298406A0590FFE737
:1022D000059806B080BD000080B542F2C020C2F271
:1022E000000002F049FB80BD80B542F26020C2F2DE
:1022F000000002F041FB80BD82B00190019800789F
:1023000010384AF6AB21CAF6AA21A0FB0110000939
:102310000090009949F6F460C0F60100405C019914
:10232000C8650098042807D3FFE7019908680422CC
:1023300062F30900886506E00199086840F2FF32FF
:1023400090438865FFE70198806D02B070470000F8
:1023500086B0059000208DF813000598806A0390E0
:102360000598806910BBFFE70398029003281BD8EB
:102370000299DFE801F0020D0218059890F82F008D
:10238000C00720B1FFE701208DF81300FFE70CE044
:102390000598C06AB0F1C07F04D1FFE701208DF835
:1023A0001300FFE701E000E0FFE745E005988069E2
:1023B000B0F5005F25D1FFE70398019003281ED8F0
:1023C0000199DFE801F00206021101208DF81300E7
:1023D00016E0059890F82F00C00720B1FFE7012014
:1023E0008DF81300FFE70BE00598C06AB0F1C07FDD
:1023F00004D1FFE701208DF81300FFE700E0FFE7BD
:1024000019E003980090032804D3FFE700980328FD
:1024100004D00EE001208DF813000BE0059890F831
:102420002F00C00720B1FFE701208DF81300FFE760
:1024300000E0FFE7FFE7FFE79DF8130006B07047F5
:1024400084B0039002910192009303980168086898
:1024500020F4802008600098039909684860039878
:102460008068402809D1FFE70198039909688860CE
:10247000029803990968C86008E0029803990968FE
:102480008860019803990968C860FFE704B0704745
:1024900080B582B001904EF6FC51CEF20001086882
:1024A00040F08070086041F20401CEF2000100208B
:1024B000086041F20002CEF20002116841F0010111
:1024C0001160019944F24022C0F20F024A4340F2E7
:1024D0009C41C2F200010A600A6844F6D353C1F27B
:1024E0006203A2FB0332920940F2A043C2F200034E
:1024F0001A6009684DF68362C4F21B32A1FB022107
:10250000890C40F2A442C2F20002116040F2B441D0
:10251000C2F20001086000F005F802B080BD0000C2
:102520007047000081B040F2C040C2F20000007865
:1025300070BBFFE740F2C041C2F200010120087009
:1025400041F20400CEF2000000680090009840F2D2
:10255000B041C2F200010968884208D2FFE740F2A8
:10256000B441C2F20001086801300860FFE741F29F
:102570000400CEF20000006840F2B041C2F2000157
:10258000086040F2C041C2F2000100200870FFE77D
:1025900001B0704783B08DED020A41F20400CEF223
:1025A00000000068019002980090FFE741F20400EB
:1025B000CEF2000000680199401A00EE100AB8EE51
:1025C000400A9DED001A40F29C40C2F2000090EDDE
:1025D000002AB8EE422A21EE021AB4EE410AF1EEC8
:1025E00010FA01DAFFE7E1E703B0704780B584B085
:1025F000039041F20400CEF20000006802900298BD
:1026000003990968401A00EE100AB8EE400A40F239
:102610009C40C2F2000090ED001AB8EE411A80EE24
:10262000010A8DED010A029803990860FFF77AFF0D
:102630009DED010A04B080BD80B582B000F028F89D
:1026400040F25450C2F2000090ED000AB8EE401A79
:10265000818800EE101AB8EEC00A9FED0B2A20EE1A
:10266000020A30EE011AC08800EE100AB8EEC00A65
:102670009FED062A20EE020A30EE010A8DED010AD6
:102680009DED010A02B080BD6F12833ABD378635D9
:10269000B0B586B041F20400CEF2000000680590AB
:1026A000FFF740FF40F2B440C2F200000168059815
:1026B000002302934FF0FF3C1A46E1FB0C0240F26C
:1026C000A841C2F2000100914A60086008684968A8
:1026D00040F29C44C2F200042268FDF755FE029BC2
:1026E00002468C46009940F2C840C2F20000C0F891
:1026F00004C00260D1F800C04968D0F800E0426828
:102700002468AEFB04E502FB0452BCEB0E0C61EB4B
:10271000020240F2D041C2F200010391C1F800C0B0
:102720004A60006840F25452C2F200020492106003
:102730000868496840F2A042C2F2000201921268A1
:10274000FDF722FEDDF804C0029B049A01460398BF
:102750009180016840689288DCF800C002FB0CF2AE
:102760008A1A60F1000040F2D841C2F200010A600A
:1027700048600868496840F2A442C2F20002126848
:10278000FDF702FE0499C88006B0B0BD80B50820F0
:1027900002F0ECFB80BD000080B584B00290019196
:1027A000029818B1FFE7019820B9FFE700208DF8E3
:1027B0000F0030E0029807F037F970B1FFE7029997
:1027C0008888431C0A89B3FBF2F000FB1230888032
:1027D0000299888901388881FFE702990A68C888C8
:1027E000498900FB0120009000980199029A5289C2
:1027F000FDF772FE0299C888431C0A89B3FBF2F008
:1028000000FB1230C880029988890130888101203C
:102810008DF80F00FFE79DF80F0004B080BD0000A9
:1028200072B6FFE7FEE7000085B00090009B586994
:102830009969DA691B6A04930392029101909DEDF4
:10284000010ADDED020A9DED031ADDED041A05B063
:102850007047000080B586B0059049F6286CC0F638
:10286000010CDCF80000DCF80410DCF80820DCF8CF
:102870000C30DCF810C0CDF810C003930292019127
:1028800000900598694600F09BF8059800F002F862
:1028900006B080BD10B58BB00A904FF07E52069204
:1028A00000200790089009900A9B0699DDF81CC04B
:1028B000DDF820E0099C1C62C3F81CE0C3F818C0D6
:1028C00059610390049005900A9B0399DDF810C0AC
:1028D000DDF814E0C3F82CE0C3F828C059620A9967
:1028E00081F830000090019002900A9B0099DDF879
:1028F00004C0DDF808E0C3F83CE0C3F838C0596311
:102900000A9981F840000A9948640A9B19699964F8
:102910000A9B4FF08041D9640A9B012183F854102F
:102920000A9991ED011AB0EE000A30EE410AB0EEBC
:10293000081A80EE010A81ED140A42F67021C2F2F3
:1029400000014CF6CD43C3F6CC530B6041F26F2C23
:10295000C3F6033CC1F814C04A608860C8600861CF
:102960004DF20A7CC3F6234CC1F820C04FF07C5CCA
:10297000C1F81CC08B614B634A628862C8620863FD
:102980008863C8630864486488640BB010BD0000A5
:1029900085B0CDED041A8DED031ACDED020A8DED53
:1029A000010A009000990198029A039BDDF810C07B
:1029B000C1F820C0CB618A61486105B07047000052
:1029C00080B584B003900291029800780399087052
:1029D0000298406803994860029890ED020AB5EEAB
:1029E000400AF1EE10FA05D1FFE79FED370A8DEDB1
:1029F000010A09E0029890ED020A9FED321A20EEDA
:102A0000010A8DED010AFFE79DED010A039880EDB3
:102A1000020A029890ED030AB5EE400AF1EE10FAB0
:102A200005D1FFE79FED280A8DED000A11E002981D
:102A300090ED030A11F0C4F916F0C8F8B6EE001ACA
:102A400020EE010AF0EE000A15F08EFD8DED000A71
:102A5000FFE79DED000A039880ED030A02980069E4
:102A600003990861039908698864029890ED010A46
:102A7000B5EE400AF1EE10FA04D0FFE702980069C3
:102A800038B9FFE703994FF6FF70C7F67F70C8604B
:102A9000FFE7039890F85400C00720B9FFE70399B7
:102AA0004868C864FFE7039890ED011AB0EE000A89
:102AB00030EE410AB0EE081A80EE010A80ED140AE9
:102AC00004B080BD48E17A3FFFFF7F7F80B5E2B070
:102AD0008DED611ACDED600A8DED5F0ACDED5E2AB8
:102AE0008DED5D2ACDED5C1A5B908DED5A3A5A98CA
:102AF00042F67021C2F2000148615B995C985D9AD0
:102B00005E9BCB628A6248629DED5F0AB0EEC00AAE
:102B10005B9890ED021AB4EE410AF1EE10FA1ADC5D
:102B2000FFE79DED600AB0EEC00A5B9890ED021AD7
:102B3000B4EE410AF1EE10FA0DDCFFE79DED610AFB
:102B4000B0EEC00A5B9890ED021AB4EE410AF1EEC5
:102B500010FA1CDDFFE75B9B58699969DA691B6A0B
:102B600059935892579156905B98FFF793FE5B9953
:102B70005698579A589BDDF864C1C1F820C0CB61C4
:102B80008A6148615B99012081F83000FFE75B981A
:102B900090F85400C00708B3FFE75B9890ED130A64
:102BA00090ED141A9DED5A2A21EE021A30EE410AD8
:102BB00080ED130A5B9890ED011A90ED130AB4EEC4
:102BC000410AF1EE10FA08DAFFE75B994868C86439
:102BD0005B99002081F85400FFE7FFE75B9810F055
:102BE00031FF8DED551ACDED540A8DED530A0020BD
:102BF0005290519050905B99012081F840005C9870
:102C00005D995E9A4F924E914D909DED4D0ADDED8E
:102C10004E0A9DED4F1A10F0DFFF002840F084802F
:102C2000FFE75C985D995E9A4692459144909DEDD0
:102C3000440ADDED450A9DED461A11F089F88DED47
:102C4000491ACDED480A8DED470A53985499559A83
:102C50004392429141909DED470ADDED480A9DED7A
:102C6000491ADDED411A9DED422ADDED432A11F0AE
:102C70009FFA8DED4C1ACDED4B0A8DED4A0A5B990A
:102C80004A984B9A4C9BCB638A6348635B9A506B20
:102C9000916BD26B40923F913E909DED3E0ADDEDEF
:102CA0003F0A9DED401A11F0BDF95B9890ED031AB3
:102CB000B4EE410AF1EE10FA09DCFFE75B9900205F
:102CC00081F840005B99486C0938486404E05B99DE
:102CD000486C01304864FFE75B99486C896C884216
:102CE00007DDFFE75B99002088645B9981F840006D
:102CF00003E05B9908698864FFE75B980269406CB0
:102D0000002111F03BFA5B9948645B9890F8400011
:102D1000C00740B9FFE75B9A506B916BD26B529240
:102D200051915090FFE7FFE75F986099619A3A925E
:102D3000399138909DED380ADDED390A9DED3A1A4A
:102D4000F6EE001A11F016F98DED3D1ACDED3C0AA4
:102D50008DED3B0A3B983C993D9A349233913290E9
:102D600050985199529A2E922D912C905B98D0EDBB
:102D7000131A9DED2C0ADDED2D0A9DED2E1A11F092
:102D8000F9F88DED311ACDED300A8DED2F0A9DED5C
:102D9000320ADDED330A9DED341ADDED2F1A9DED7B
:102DA000302ADDED312A10F0D5FE8DED371ACDED4C
:102DB000360A8DED350A5B9B58699969DA691B6A99
:102DC00027932692259124905B9B58699969DA692B
:102DD0001B6A1F931E921D911C9035983699379A45
:102DE000189217911690DDED5A1A9DED160ADDED39
:102DF000170A9DED181A11F0BDF88DED1B1ACDEDD7
:102E00001A0A8DED190A9DED1C0ADDED1D0A9DEDD6
:102E10001E1ADDED1F1A9DED192ADDED1A2A9DED12
:102E20001B3A11F031F9CDED231A8DED221ACDEDBB
:102E3000210A8DED200A9DED240ADDED250A9DED88
:102E4000261ADDED271A9DED202ADDED212A9DEDC4
:102E5000223ADDED233A10F0EBFECDED2B1A8DED8D
:102E60002A1ACDED290A8DED280A5B992898299A0E
:102E70002A9BDDF8ACC0C1F820C0CB618A614861F3
:102E80005B9B58699969DA691B6A119310920F91DB
:102E90000E909DED0E0ADDED0F0A9DED101ADDED91
:102EA000111A11F019F8CDED151A8DED141ACDED9A
:102EB000130A8DED120A5B991298139A149BDDF890
:102EC00054C0C1F820C0CB618A61486146F6201029
:102ED000C2F200000068002800F05881FFE75B980C
:102EE00090F84000C007002840F05081FFE79DEDBA
:102EF0005F0ADDED600A9DED611ADDED5C1A9DED66
:102F00005D2ADDED5E2A07F035FA5B9942F6702006
:102F1000C2F2000091ED053A91ED065A91ED071AC3
:102F200091ED080A90ED016A90ED027A90ED034A66
:102F300090ED042A25EE075A23EE063A33EE053AC1
:102F400021EE041A31EE031A20EE020A30EE010AD5
:102F50008DED0D0A9DED0D0AB0EEC01AB7EE000A18
:102F600030EE410A8DED0C0A90ED072A90ED081A1B
:102F70009DED0C0A32EE412A20EE020A30EE010AE3
:102F80008DED0B0A9DED0B0A90ED071AB4EE410A88
:102F9000F1EE10FA07DDFFE742F67020C2F2000002
:102FA000C0690B90FFE742F67020C2F2000000906B
:102FB00090ED013A90ED094A90ED0D0AB7EE001A36
:102FC0008DED011A31EE402A22EE042A20EE030A8A
:102FD00030EE020A80ED090A90ED023A90ED0A4ABD
:102FE00090ED0D0A31EE402A22EE042A20EE030A6B
:102FF00030EE020A80ED0A0A90ED033A90ED0B4A9A
:1030000090ED0D0A31EE402A22EE042A20EE030A4A
:1030100030EE020A80ED0B0A90ED042A90ED0C3A96
:1030200090ED0D0A31EE401A21EE031A20EE020A4D
:1030300030EE010A80ED0C0A90ED092A90ED0A3A73
:1030400090ED0B1A90ED0C0A23EE033A22EE022AC1
:1030500032EE032A21EE011A31EE021A20EE000AA6
:1030600030EE010A10F04EFE0099B0EE401A9DEDD0
:10307000010A8DED0A1A9DED0A2A91ED091A21EE39
:10308000021A81ED091A9DED0A2A91ED0A1A21EE24
:10309000021A81ED0A1A9DED0A2A91ED0B1A21EE12
:1030A000021A81ED0B1A9DED0A2A91ED0C1A21EE00
:1030B000021A81ED0C1A9DED0B2A30EE421A5B9834
:1030C00090ED053A91ED094A22EE042A21EE031A09
:1030D00031EE021A80ED051A9DED0B2A30EE421AF0
:1030E0005B9890ED063A91ED0A4A22EE042A21EE11
:1030F000031A31EE021A80ED061A9DED0B2A30EE0E
:10310000421A5B9890ED073A91ED0B4A22EE042AA1
:1031100021EE031A31EE021A80ED071A9DED0B1A0B
:1031200030EE410A5B9890ED082A91ED0C3A21EEC1
:10313000031A20EE020A30EE010A80ED080A5B9BBA
:1031400058699969DA691B6A0593049203910290A0
:103150009DED020ADDED030A9DED041ADDED051A71
:1031600010F0BAFECDED091A8DED081ACDED070A63
:103170008DED060A5B990698079A089BDDF824C036
:10318000C1F820C0CB618A614861FFE762B080BDB1
:1031900080B58EB08DED0D1ACDED0C0A8DED0B0ABC
:1031A000CDED0A2A8DED092ACDED081A07908DED97
:1031B000063A07980B990C9A0D9B0593049203917C
:1031C0000899099A0A9B0293019200919DED063A93
:1031D0009DED030ADDED040A9DED051ADDED001AF3
:1031E0009DED012ADDED022AFFF770FC0EB080BDD7
:1031F00080B582B08DED000A9DED000ABFEE001A89
:10320000B4EE410AF1EE10FA06DCFFE740F6DB709F
:10321000CBF6C970019016E09DED000AB7EE001ADA
:10322000B4EE410AF1EE10FA06DBFFE740F6DB7080
:10323000C3F6C970019006E09DED000A14F07EFE11
:103240008DED010AFFE79DED010A02B080BD00008F
:1032500085B0049003919DED030AB8EE401AB7EED5
:10326000000A80EE010A9FED0C1A20EE010A049874
:1032700080ED000A03980499486004990020886052
:1032800000900190029004990098019A029B4B6172
:103290000A61C86005B07047FDAD003E80B59EB0C4
:1032A0008DED1A1ACDED190A8DED180A17901898A0
:1032B00019991A9A139212911190179AD06811695C
:1032C000526910920F910E909DED110ADDED120AD8
:1032D0009DED131ADDED0E1A9DED0F2ADDED102A7E
:1032E00010F0E2FC8DED161ACDED150A8DED140AE5
:1032F00014981599169A1A92199118909DED180A1A
:10330000B0EEC00A9FED4D1AB4EE410AF1EE10FA8C
:1033100018DCFFE79DED190AB0EEC00A9FED471AD1
:10332000B4EE410AF1EE10FA0CDCFFE79DED1A0A4B
:10333000B0EEC00A9FED411AB4EE410AF1EE10FA68
:1033400015DDFFE717988068022805D3FFE7179976
:1033500088680138886003E0179900208860FFE7DB
:10336000189819991A9A1D921C911B905EE0179853
:1033700041688068884219D2FFE7179948688968D0
:10338000401A0D900D98032805D3FFE71799886818
:103390000230886003E0179948688860FFE7189852
:1033A00019991A9A1D921C911B903FE0179AD068A8
:1033B00011695269099208910790189819991A9AF7
:1033C0000392029101901798D0ED001A9DED010A29
:1033D000DDED020A9DED031A10F0CCFD8DED061A0D
:1033E000CDED050A8DED040A9DED070ADDED080A15
:1033F0009DED091ADDED041A9DED052ADDED062A85
:1034000010F0A8FB8DED0C1ACDED0B0A8DED0A0A1C
:1034100017990A980B9A0C9B4B610A61C86018981F
:1034200019991A9A1D921C911B90FFE79DED1B0A9A
:10343000DDED1C0A9DED1D1A1EB080BD8FC2F53C4E
:1034400080B588B0CDED041A8DED031ACDED020ADA
:103450008DED010A9DED030A20EE001AB6EE000A7A
:1034600030EE410A8DED000A9DED010A9DED022A24
:103470009DED031A9DED043A21EE031A20EE020A97
:1034800030EE010A9DED001A22EE022A71EE420A88
:1034900014F0EAFD8DED050A9DED010A9DED023A5D
:1034A0009DED032A9DED041A21EE031A20EE020A77
:1034B00030EE410A30EE000AFFF79AFE8DED060A63
:1034C0009DED010A9DED021A9DED033A9DED042A42
:1034D00021EE031A20EE020A30EE010A9DED001AD9
:1034E00022EE022A71EE420A14F0BEFD8DED070AAB
:1034F0009DED050ADDED060A9DED071A08B080BDB9
:1035000080B58AB08DED090A099816F02FFB41ECC1
:10351000100B9FED351B53EC112B51EC100B05914B
:10352000049016F083F8049A059B41EC100B51ECC3
:10353000100B16F07BF8024604980B46059943ECF5
:10354000102B8DED000B9FED2A0B53EC102B16F07A
:103550006DF8049A059B41EC100B51EC100B16F022
:1035600065F89DED000B049A059B41EC110B8DED68
:10357000021B51EC100B16F059F89DED020B53ECA9
:10358000102B41EC100B51EC100B15F039FD0246DD
:1035900004980B46059943EC102B8DED060B9FED1F
:1035A000160B53EC102B16F041F89DED060B53EC67
:1035B000102B41EC100B51EC100B15F021FD41ECE0
:1035C000100B51EC100B9FED0E0B53EC102B15F064
:1035D00017FD41EC100B51EC100B15F0DFFC0890BF
:1035E0009DED080A0AB080BD2FFA0AD28C45F03F43
:1035F0009EF0129CFA00F8BFEEB5A0F7C610B0BF5F
:10360000C84109336DFFC83F80B58AB08DED090A06
:10361000CDED080A07900691059211F04FFE049037
:1036200040F2E440C2F20000006818BBFFE70998CE
:1036300040F2F041C2F20001086040F2E040C2F204
:1036400000000021016040F22002C2F200020120CD
:10365000107040F2E842C2F200021170049940F288
:10366000EC42C2F20002116040F2E441C2F20001F9
:103670000860FFE740F2E840C2F20000007838B38B
:10368000FFE7049840F2EC41C2F200010968401AD9
:10369000059988421BD3FFE740F22001C2F20001E6
:1036A0000878B0FA80F04009087040F2E041C2F2B8
:1036B00000010020086040F2E841C2F200010870F9
:1036C000049840F2EC41C2F200010860FFE739E0E3
:1036D000049840F2EC41C2F200010968401A0699D0
:1036E00088422ED3FFE740F2E040C2F200000068BB
:1036F000079988420EDAFFE740F2E041C2F200018A
:10370000086801300860049840F2EC41C2F2000100
:103710000860FFE740F2E040C2F20000006807994D
:1037200088420DDBFFE740F2E841C2F200010120D0
:103730000870049840F2EC41C2F200010860FFE713
:10374000FFE7FFE740F22000C2F20000007828B156
:10375000FFE79DED090A8DED010A04E09DED080AE1
:103760008DED010AFFE79DED010A8DED030A40F2A0
:103770002000C2F20000007828B1FFE79DED080AA2
:103780008DED000A04E09DED090A8DED000AFFE7CA
:103790009DED000A8DED020A079801281FDBFFE767
:1037A0009DED031A9DED020A30EE410A40F2E04021
:1037B000C2F2000090ED002AB8EEC22A9DED073A51
:1037C000B8EEC33A82EE032A20EE020A30EE010A76
:1037D00040F2F040C2F2000080ED000A06E00398DB
:1037E00040F2F041C2F200010860FFE740F2F04011
:1037F000C2F2000090ED000A0AB080BD80B584B02E
:1038000047F61020C1F6FF700068039047F61420B9
:10381000C1F6FF700068029047F61820C1F6FF70ED
:10382000006801900199039808440390039888B1B7
:10383000FFE7039840F2F411C2F200010091023157
:10384000082206F0B3F8009902981231042206F01B
:10385000ADF8FFE704B080BD84B0029001910298FA
:1038600090F820008DF803009DF80300012805D092
:10387000FFE79DF8030002280AD1FFE7019A0298AA
:10388000016848691043486100208DF80F0008E086
:103890000299486A40F48020486201208DF80F00A8
:1038A000FFE79DF80F0004B07047000088B0069055
:1038B000059104920393069890F820008DF8070074
:1038C00006980068806800900598806808B9FFE74E
:1038D00000E0FFE79DF80700012806D0FFE79DF80C
:1038E0000700022840F08080FFE79DF803004007B2
:1038F00000280CD4FFE79DF803000007002806D439
:10390000FFE79DF80300C006002864D5FFE7009894
:10391000C0F3016002900299012088400399086079
:103920000598806868B9FFE705980168C06840EAB3
:10393000415006990968029A01EB0211C1F8800111
:103940000EE005994A688868C96840EAC2000843E1
:1039500006990968029A01EB0211C1F88001FFE79C
:103960000598006906990968029A01EB0211C1F8ED
:1039700084010598007D01280CD1FFE706980068B6
:10398000029900EB0111D1F8840140F48070C1F874
:103990008401FFE70498406806990968029A01EBE0
:1039A0000211C1F88C010498006806990968029A0E
:1039B00001EB0211C1F8880106980068029900EB3A
:1039C0000111D1F8800140F00100C1F88001002010
:1039D0008DF81F0011E00699486A40F40010486213
:1039E00001208DF81F0008E00699486A40F4802005
:1039F000486201208DF81F00FFE79DF81F0008B006
:103A00007047000086B004900391049890F820005D
:103A10008DF803009DF80300012806D0FFE79DF80C
:103A20000300022840F0B080FFE746F20040C4F2F5
:103A3000000001900199D1F8000240F00100C1F8A6
:103A400000020199D1F8000220F47C50C1F8000274
:103A50000398426A0199D1F8000240EA0220C1F8B5
:103A600000020398406900F01F0101208840029085
:103A7000029A0199D1F81C029043C1F81C020398E4
:103A8000C069F0B9FFE7029A0199D1F80C0290439E
:103A9000C1F80C02039A9088D168526940EA01404B
:103AA000019901EBC201C1F84002039A10889168A4
:103AB000526940EA0140019901EBC201C1F8440298
:103AC000FFE70398C06901281ED1FFE7029A019918
:103AD000D1F80C021043C1F80C02039A90881168C7
:103AE000526940EA0140019901EBC201C1F840026C
:103AF000039A90899168526940EA0140019901EB6B
:103B0000C201C1F84402FFE70398806940B9FFE7AA
:103B1000029A0199D1F804029043C1F8040207E027
:103B2000029A0199D1F804021043C1F80402FFE798
:103B30000398006940B9FFE7029A0199D1F814028D
:103B40009043C1F8140207E0029A0199D1F81402D7
:103B50001043C1F81402FFE70398006A012808D156
:103B6000FFE7029A0199D1F81C021043C1F81C0228
:103B7000FFE70199D1F8000220F00100C1F800022E
:103B800000208DF8170008E00499486A40F480206E
:103B9000486201208DF81700FFE79DF8170006B076
:103BA0007047000081B0009001B0704784B003906E
:103BB000029100200190039890F820008DF80300F6
:103BC0009DF80300012805D0FFE79DF803000228B7
:103BD00012D1FFE7029838B9FFE703980068C06880
:103BE00000F00300019006E003980068006900F00F
:103BF00003000190FFE7FFE7019804B07047000061
:103C000086B00490039102920193049890F82000EA
:103C10008DF803009DF80300012806D0FFE79DF80A
:103C20000300022840F0E880FFE7039880B9FFE72F
:103C300004980068C068800748B9FFE70499486A9B
:103C400040F40010486201208DF81700DDE00FE01D
:103C5000049800680069800748B9FFE70499486A3A
:103C600040F40010486201208DF81700CDE0FFE716
:103C700004980068039900EB0110D0F8B00100F03F
:103C80000400029988600298806858B9FFE7049898
:103C90000068039900EB0110D0F8B001400D0299C3
:103CA00008600AE004980068039900EB0110D0F85E
:103CB000B001C00802994860FFE7049800680399C2
:103CC00000EB0110D0F8B00100F002000299C860CA
:103CD00004980068039900EB0110D0F8B40100F0DB
:103CE0000F00082804D3FFE70299082008610BE0C1
:103CF00004980068039900EB0110D0F8B40100F0BB
:103D00000F0002990861FFE704980068039900EB2F
:103D10000110D0F8B40180B2000A029988610498B9
:103D20000068039900EB0110D0F8B401000C02996F
:103D3000486104980068039900EB0110D0F8B801BD
:103D40000199087004980068039900EB0110D0F8FD
:103D5000B801000A0199487004980068039900EBC3
:103D60000110D0F8B801000C01998870049800681F
:103D7000039900EB0110D0F8B801000E0199C8704A
:103D800004980068039900EB0110D0F8BC01019978
:103D9000087104980068039900EB0110D0F8BC0189
:103DA000000A0199487104980068039900EB01101A
:103DB000D0F8BC01000C019988710498006803993F
:103DC00000EB0110D0F8BC01000E0199C8710398F6
:103DD00038B9FFE704980168C86840F02000C8605F
:103DE00006E004980168086940F020000861FFE7D8
:103DF00000208DF8170008E00499486A40F48020FC
:103E0000486201208DF81700FFE79DF8170006B003
:103E10007047000083B0029000200190029890F853
:103E200020008DF803009DF80300012805D0FFE76E
:103E30009DF80300022822D1FFE7029800688068FD
:103E40004001002804D5FFE7019801300190FFE709
:103E50000298006880680001002804D5FFE70198F7
:103E600001300190FFE7029800688068C0000028D8
:103E700004D5FFE7019801300190FFE7FFE70198C3
:103E800003B0704780B58AB0099000200890099867
:103E90000068406907900998006840680690099892
:103EA00000688068059009980068C06804900998C7
:103EB00000680069039009980068806902909DF885
:103EC0001C00C007002800F09480FFE79DF8140054
:103ED000C00758B3FFE709980168012088609DF882
:103EE00014008007002804D5FFE7099800F094FC2F
:103EF0001BE09DF814004007002805D5FFE708984F
:103F000040F4006008900FE09DF8140000070028BE
:103F100005D5FFE7089840F48050089003E0099821
:103F200000F076FCFFE7FFE7FFE7FFE79DF81500ED
:103F3000C00760B3FFE7099801684FF4807088609C
:103F40009DF815008007002804D5FFE7099800F0C8
:103F50006BFC1BE09DF815004007002805D5FFE726
:103F6000089840F4005008900FE09DF815000007F5
:103F7000002805D5FFE7089840F48040089003E04A
:103F8000099800F04DFCFFE7FFE7FFE7FFE79DF82A
:103F90001600C00760B3FFE7099801684FF480304E
:103FA00088609DF816008007002804D5FFE709986F
:103FB00000F042FC1BE09DF816004007002805D5E4
:103FC000FFE7089840F4004008900FE09DF81600C5
:103FD0000007002805D5FFE7089840F480300890D6
:103FE00003E0099800F024FCFFE7FFE7FFE7FFE7A5
:103FF000FFE79DF81C000007002810D5FFE79DF89B
:104000001000C006002809D5FFE7089840F40070AA
:104010000890099801681020C860FFE7FFE79DF845
:104020001C00400700280FD5FFE79DF8100000078F
:10403000002808D5FFE7099801680820C86009989A
:1040400000F0CCFAFFE7FFE79DF81C00800700288E
:104050000BD5FFE709980068C068800720B1FFE72B
:10406000099800F0BFFAFFE7FFE79DF81C00400643
:10407000002810D5FFE79DF80C00C006002809D5E0
:10408000FFE7089840F480600890099801681020C4
:104090000861FFE7FFE79DF81C00800600280FD5A8
:1040A000FFE79DF80C000007002808D5FFE70998F6
:1040B000016808200861099800F0F8FAFFE7FFE7B7
:1040C0009DF81C00C00600280BD5FFE70998006882
:1040D0000069800720B1FFE7099800F0EBFAFFE7DD
:1040E000FFE79DF81E00800700280FD5FFE79DF829
:1040F0001800C006002808D5FFE7099801681020BD
:104100004860099800F03AFBFFE7FFE79DF81E00C2
:10411000C00778B1FFE79DF818000007002808D510
:10412000FFE70998016808204860099800F088FBBB
:10413000FFE7FFE79DF81D000006002840F18D8095
:10414000FFE79DF818004007002840F18180FFE755
:104150009DF81D00C00750B1FFE79DF80800C0079B
:1041600028B1FFE7089840F001000890FFE79DF8AC
:104170001D00800700280BD5FFE79DF80800800789
:10418000002805D5FFE7089840F002000890FFE7F7
:104190009DF81D00400700280BD5FFE79DF808009B
:1041A0004007002805D5FFE7089840F00400089074
:1041B000FFE79DF81D000007002848D5FFE79DF8A0
:1041C000080010F0700F42D0FFE7029800F0700076
:1041D00001460191102814D0FFE70198202815D03E
:1041E000FFE70198302816D0FFE70198402817D044
:1041F000FFE70198502818D0FFE70198602819D0F0
:104200001DE0089840F00800089019E0089840F078
:104210001000089014E0089840F0200008900FE08B
:10422000089840F0400008900AE0089840F08000AC
:10423000089005E0089840F48070089000E0FFE7DF
:1042400009980168886920F070008861FFE7FFE73E
:104250000998016804204860FFE7089848B1FFE723
:10426000089A0999486A104348620998FFF79AFC2E
:10427000FFE70AB080BD000080B584B002900298CC
:1042800020B9FFE701208DF80F00E0E0029890F8D8
:10429000200020B9FFE7029800F0DEF8FFE702985F
:1042A0000168086840F00100086001F087F801909B
:1042B000FFE7029800684068C007A8B9FFE701F06F
:1042C0007DF80199401A0B280DD3FFE70299486A3F
:1042D00040F4003048620299052081F82000012056
:1042E0008DF80F00B3E0E4E702980168086820F059
:1042F0000200086001F062F80190FFE70298006890
:1043000040688007002815D5FFE701F057F80199AC
:10431000401A0B280DD3FFE70299486A40F4003099
:1043200048620299052081F8200001208DF80F00D5
:104330008DE0E3E70298007E012807D1FFE70298AD
:104340000168086840F08000086006E00298016893
:10435000086820F080000860FFE70298407E01288E
:1043600007D1FFE702980168086840F04000086044
:1043700006E002980168086820F040000860FFE746
:104380000298807E012807D1FFE70298016808683B
:1043900040F02000086006E002980168086820F0FC
:1043A00020000860FFE70298C07E012807D1FFE7E0
:1043B00002980168086820F01000086006E0029882
:1043C0000168086840F010000860FFE70298007F6D
:1043D000012807D1FFE702980168086840F008004B
:1043E000086006E002980168086820F0080008608C
:1043F000FFE70298407F012807D1FFE70298016894
:10440000086840F00400086006E002980168086847
:1044100020F004000860FFE7029B19685A6898685A
:10442000D3F80CC040EA0C00D3F810C040EA0C00EE
:104430005B691843013A1043C86102990020486241
:10444000029A012182F820108DF80F00FFE79DF8F5
:104450000F0004B080BD000080B590B00F90002028
:104460000E900D900C900B900A900F98006846F2F9
:104470000041C4F20001884249D1FFE740F21050E8
:10448000C2F200000168013101600068012812D108
:10449000FFE7FFE70020099043F64000C4F2020066
:1044A000016841F000710160006800F0007009903F
:1044B0000998FFE7FFE7FFE70020089043F6300088
:1044C000C4F20200016841F008010160006800F0D8
:1044D000080008900898FFE703200A9002210B913A
:1044E000002103910C910D9009200E9040F60040A0
:1044F000C4F202000AA900F055FD039A14200490AA
:10450000052101F0FFF9049801F0F2F964E00F9839
:10451000006846F60001C4F2000188425BD1FFE763
:10452000FFE70020079043F64000C4F20200016854
:1045300041F080610160006800F08060079007989A
:10454000FFE740F21050C2F2000001680131016043
:104550000068012812D1FFE7FFE70020069043F62C
:104560004000C4F20200016841F00071016000687F
:1045700000F0007006900698FFE7FFE7FFE70020D5
:10458000059043F63000C4F20200016841F00201D8
:104590000160006800F0020005900598FFE76020C8
:1045A0000A9002200B90002001900C9003200D90A7
:1045B00009200E9040F20040C4F202000AA900F067
:1045C000F1FC019A41200290052101F09BF902982B
:1045D00001F08EF9FFE7FFE710B080BD81B00090D9
:1045E00001B0704780B584B0039003980021FFF7B5
:1045F000DDFA8DF80B009DF80B00072819DBFFE7AB
:104600009DF80B0049F6D972C0F6010269464A606E
:1046100008604AF21D11C0F6010149F6EE72C0F6BB
:10462000010249F6D673C0F60103002008F09EF996
:10463000FFE7039840F25442C2F2000202F11C0369
:104640000021FFF7DDFA039842F21021C2F20001C7
:10465000884210D1FFE741F68860C2F2000001787D
:1046600040F25440C2F2000041F64462C2F200023D
:104670000EF082FDFFE7039842F23821C2F20001FA
:10468000884210D1FFE741F68960C2F2000001784C
:1046900040F25440C2F2000041F66462C2F20002ED
:1046A0000EF06AFDFFE704B080BD000081B000900D
:1046B00001B0704780B584B0039003980121FFF7E3
:1046C00075FA8DF80B009DF80B00072819DBFFE742
:1046D0009DF80B0049F6D972C0F6010269464A609E
:1046E00008604AF24411C0F6010149F6EE72C0F6C4
:1046F000010249F6D673C0F60103002008F036F92E
:10470000FFE7039840F27842C2F2000202F11C0374
:104710000121FFF775FA039842F21021C2F200015D
:10472000884210D1FFE741F68860C2F200000178AC
:1047300040F27840C2F2000041F64462C2F2000248
:104740000EF01AFDFFE7039842F23821C2F2000191
:10475000884210D1FFE741F68960C2F2000001787B
:1047600040F27840C2F2000041F66462C2F20002F8
:104770000EF002FDFFE704B080BD000081B00090A4
:1047800001B0704780B584B00290029890F8200084
:1047900001282FD1FFE70299022081F8200002981A
:1047A0000168086820F00100086000F007FE019031
:1047B000FFE7029800684068C007A8B1FFE700F073
:1047C000FDFD0199401A0B280DD3FFE70299486AB5
:1047D00040F4003048620299052081F82000012051
:1047E0008DF80F000FE0E4E70299002048628DF891
:1047F0000F0008E00299486A40F400204862012056
:104800008DF80F00FFE79DF80F0004B080BD000099
:1048100081B0009001B0704781B0009001B0704746
:1048200081B0009001B0704781B0009001B0704736
:1048300081B0009001B0704781B0009001B0704726
:1048400081B0009001B0704780B584B002900298AA
:10485000806D019000F0B2FD0090029890F8350054
:1048600002280DD0FFE7029980204865FFE70299F2
:10487000002081F83400FFE701208DF80F0055E09B
:1048800002980168086820F0160008600298016824
:10489000486920F0800048610298006C20B9FFE769
:1048A0000298806C38B1FFE702980168086820F030
:1048B00008000860FFE702980168086820F001001E
:1048C0000860FFE7029800680068C007C8B1FFE70A
:1048D00000F074FD0099401A062811D3FFE70299F1
:1048E000202048650299032081F83500FFE70299EE
:1048F000002081F83400FFE703208DF80F0015E059
:10490000E0E70298C16D3F208840019988600299D4
:10491000012081F83500FFE70299002081F834007A
:10492000FFE7FFE700208DF80F00FFE79DF80F007D
:1049300004B080BD82B00090009890F83500022845
:1049400007D0FFE700998020486501208DF8070017
:104950000EE00099052081F835000098016808688C
:1049600020F001000860FFE700208DF80700FFE756
:104970009DF8070002B0704780B586B00590002012
:10498000039040F23C10C2F20000006848F2B511FA
:10499000C1F64E31A0FB0110800A02900598806D8F
:1049A000019001980068049004980599C96DC84069
:1049B000000700281AD5FFE705980068006840073F
:1049C000002812D5FFE705980168086820F0040068
:1049D00008600598C16D0820884001998860059994
:1049E000486D40F001004865FFE7FFE7049805992E
:1049F000C96DC840C007A0B1FFE7059800684069CD
:104A0000000600280CD5FFE70598C16D01208840FD
:104A1000019988600599486D40F002004865FFE7FC
:104A2000FFE704980599C96DC8404007002814D5D0
:104A3000FFE7059800680068800700280CD5FFE7AD
:104A40000598C16D04208840019988600599486DDA
:104A500040F004004865FFE7FFE704980599C96D39
:104A6000C840C006002847D5FFE7059800680068E1
:104A7000000700283FD5FFE70598C16D102088404A
:104A800001998860059800680068400300281AD5DD
:104A9000FFE70598006800680003002809D4FFE7D5
:104AA0000598006C20B1FFE70598016C8847FFE787
:104AB00008E00598806C20B1FFE70598816C884775
:104AC000FFE7FFE716E0059800680068C0050028CA
:104AD00007D4FFE705980168086820F0080008601F
:104AE000FFE70598006C20B1FFE70598016C884747
:104AF000FFE7FFE7FFE7FFE704980599C96DC840A6
:104B00008006002840F18D80FFE705980068006866
:104B1000C006002840F18480FFE70598C16D202081
:104B2000884001998860059890F83500052834D1AF
:104B3000FFE705980168086820F0160008600598EE
:104B40000168486920F0800048610598006C20B930
:104B5000FFE70598806C38B1FFE7059801680868A1
:104B600020F008000860FFE70598C16D3F208840ED
:104B7000019988600599012081F83500FFE70599C2
:104B8000002081F83400FFE70598006D20B1FFE7B1
:104B90000598016D8847FFE77BE00598006800688D
:104BA000400300281AD5FFE7059800680068000355
:104BB000002809D4FFE70598406C20B1FFE705986D
:104BC000416C8847FFE708E00598C06B20B1FFE71C
:104BD0000598C16B8847FFE7FFE720E0059800686C
:104BE0000068C005002811D4FFE70598016808682F
:104BF00020F0100008600599012081F83500FFE7DA
:104C00000599002081F83400FFE7FFE70598C06BA5
:104C100020B1FFE70598C16B8847FFE7FFE7FFE793
:104C2000FFE70598406DA0B3FFE70598406DC0070A
:104C300030B3FFE70599052081F835000598016834
:104C4000086820F001000860FFE703980130039036
:104C50000299884201D9FFE707E0FFE7059800685D
:104C60000068C0070028F0D1FFE70599012081F80E
:104C70003500FFE70599002081F83400FFE7FFE7E2
:104C80000598C06C20B1FFE70598C16C8847FFE725
:104C9000FFE706B080BD000080B586B0049000201C
:104CA000039000F08BFB0290049820B9FFE70120ED
:104CB0008DF81700A3E00498406A08B1FFE7FFE70A
:104CC0000499022081F83500FFE70499002081F85B
:104CD0003400FFE704980168086820F001000860CC
:104CE000FFE7049800680068C00790B1FFE700F094
:104CF00065FB0299401A06280AD3FFE70499202091
:104D000048650499032081F835008DF8170076E096
:104D1000E7E70498006800680390039848F23F01B1
:104D2000CFF2100108400390049900914868D1F82F
:104D300008C0CB680A6940EA0C00184310434A696E
:104D400010438A691043CA691043096A01430398F2
:104D5000084303900498406A042808D1FFE70499A7
:104D6000C86A096B0143039808430390FFE703985F
:104D700004990968086004980068406903900398E2
:104D800020F0070003900498416A039808430390B9
:104D90000498406A04281AD1FFE70498816A0398AE
:104DA000084303900498C06A80B1FFE70498FDF7B8
:104DB000CFFA50B1FFE704994020486504990120DB
:104DC00081F835008DF8170019E0FFE7FFE7039839
:104DD0000499096848610498FDF78EFA01900498D7
:104DE000C16D3F2088400199886004990020486582
:104DF000049A012182F835108DF81700FFE79DF81D
:104E0000170006B080BD000080B588B006900591FF
:104E10000492039300208DF80B000698806D01909A
:104E2000FFE7069890F83400012804D1FFE702203C
:104E30008DF81F0045E00699012081F83400FFE756
:104E4000FFE7069890F8350001282BD1FFE7069977
:104E5000022081F8350006990020486506980599DA
:104E6000049A039BFDF7ECFA0698C16D3F20884039
:104E70000199886006980168086840F0160008608B
:104E80000698006C38B1FFE706980168086840F0A2
:104E900008000860FFE706980168086840F0010014
:104EA000086009E0FFE70699002081F83400FFE779
:104EB00002208DF80B00FFE79DF80B008DF81F0016
:104EC000FFE79DF81F0008B080BD000080B584B0EA
:104ED000039000F073FA029003980190019801305A
:104EE00048B1FFE740F2D930C2F2000001780198E2
:104EF00008440190FFE7FFE700F060FA0299401ACA
:104F00000199884201D2FFE7F6E704B080BD0000B6
:104F100080B584B0ADF80E0000200190FFE7019845
:104F200042F66321C2F20001097888421CD2FFE7F1
:104F3000019941F60C70C2F2000050F82100029075
:104F40000298C088BDF80E10884208D1FFE7029889
:104F5000806820B1FFE702988168884704E0FFE796
:104F6000019801300190DAE704B080BD80B582B0CD
:104F7000ADF8060043F61440C4F201000068BDF825
:104F8000061008420CD0FFE7BDF8060043F61441B6
:104F9000C4F201010860BDF80600FFF7B9FFFFE7A2
:104FA00002B080BD8EB00D900C9100200A90099047
:104FB00008900B90FFE70B980F2800F2CC81FFE7D9
:104FC0000B99012088400A900C9800680A990840C3
:104FD000099009980A99884240F0B881FFE70C9837
:104FE000406800F00300012807D0FFE70C984068F4
:104FF00000F0030002282FD1FFE70D988068089089
:105000000B984100032000FA01F1089888430890AA
:105010000C98C0680B99490000FA01F10898084300
:10502000089008980D9988600D98406808900B9931
:10503000012000FA01F10898884308900C98406814
:10504000C0F300100B9900FA01F10898084308908A
:1050500008980D994860FFE70C98406800F003003D
:10506000032818D0FFE70D98C06808900B984100FE
:10507000032000FA01F10898884308900C98806892
:105080000B99490000FA01F1089808430890089824
:105090000D99C860FFE70C98406800F003000228F3
:1050A00026D1FFE70D980B996FF0030202EA510138
:1050B0000844006A08900B9800F0070081000F2058
:1050C00000FA01F10898884308900C9800690B9940
:1050D00001F00701890000FA01F1089808430890DF
:1050E00008980D990B9B02EA530211440862FFE7EE
:1050F0000D98006808900B984100032000FA01F118
:105100000898884308900C98406800F003000B99B9
:10511000490000FA01F108980843089008980D9991
:1051200008600C9880798007002800F00E81FFE766
:10513000FFE70020079043F64400C4F20200016834
:1051400041F480410160006800F4804007900798B6
:10515000FFE70B9820F0030043F60801C4F20101B9
:10516000405808900B9800F0030081000F2000FACF
:1051700001F10898884308900D980021C4F20201BB
:10518000884203D1FFE7002006905EE00D9840F2D0
:105190000041C4F20201884203D1FFE701200590DB
:1051A00050E00D9840F60001C4F20201884203D19C
:1051B000FFE70220049042E00D9840F60041C4F25F
:1051C0000201884203D1FFE70320039034E00D98E9
:1051D00041F20001C4F20201884203D1FFE704203A
:1051E000029026E00D9841F20041C4F2020188428B
:1051F00003D1FFE70520019018E00D9841F600016A
:10520000C4F20201884203D1FFE7062000900AE0C1
:105210000D9941F60042C4F202020820914208BFF3
:1052200007200090FFE700980190FFE701980290A7
:10523000FFE702980390FFE703980490FFE70498C4
:105240000590FFE705980690FFE70698C0B20B9916
:1052500001F00301890000FA01F108980843089061
:1052600008980B9921F0030143F60802C4F20102E9
:10527000885043F60840C4F201000068089009997C
:105280000898884308900C988079C006002805D5B6
:10529000FFE70999089808430890FFE7089843F644
:1052A0000841C4F20101086043F60C40C4F2010059
:1052B0000068089009990898884308900C988079AC
:1052C0008006002805D5FFE709990898084308904B
:1052D000FFE7089843F60C41C4F20101086043F669
:1052E0000440C4F2010000680890099908988843B6
:1052F00008900C9880798007002805D5FFE7099968
:10530000089808430890FFE7089843F60441C4F260
:105310000101086043F60040C4F2010000680890F3
:1053200009990898884308900C988079C00728B19B
:10533000FFE70999089808430890FFE7089843F6A3
:105340000041C4F201010860FFE7FFE7FFE70B98A7
:1053500001300B902FE60EB07047000082B0019034
:10536000ADF8021001980069BDF80210084204D09F
:10537000FFE701208DF8010003E000208DF8010017
:10538000FFE79DF8010002B07047000082B0019075
:10539000ADF802108DF801209DF8010028B1FFE75B
:1053A000BDF802000199886105E0BDF80200000423
:1053B00001998861FFE702B07047000046F62410AB
:1053C000C2F200000068704780B58EB00C900C9857
:1053D00020B9FFE701208DF8370043E10C9890F8E1
:1053E0003D0040B9FFE70C99002081F83C000C9883
:1053F00000F03CF9FFE70C99242081F83D000C985F
:105400000168086820F0010008600C9801680868CD
:1054100040F4004008600C980168086820F40040DF
:10542000086001F067FD0A900C98406848F2A0619E
:10543000C0F2010188420BD8FFE70A9948F2804286
:10544000C0F21E020020914238BF012009900AE0FC
:105450000A9940F60012C0F23D020020914238BF86
:1054600001200990FFE70998012804D1FFE70120F6
:105470008DF83700F6E00A984DF68361C4F21B31CF
:10548000A0FB0110800C0B900C980068406820F085
:105490003F000B9908430C99096848600C98006814
:1054A000006A20F03F0008900C98406848F2A06124
:1054B000C0F20101884204D8FFE70B980130079041
:1054C0000EE00B984FF49671484344F6D351C1F265
:1054D0006201A0FB0101012000EB91100790FFE7A2
:1054E0000898079908430C99096808620C980068A5
:1054F000C0694CF6FF71884306900C98406848F2EA
:10550000A061C0F2010188421FD8FFE70A98013864
:105510000C9949684900B0FBF1F001306FF31F307E
:10552000032803D8FFE7042005900BE00A98013810
:105530000C9949684900B0FBF1F001306FF31F305E
:105540000590FFE7059804904CE00C98806868B9D6
:10555000FFE70A9801380C99496801EB4101B0FB5B
:10556000F1F001306FF31F3003900DE00A9801381D
:105570000C99496819225143B0FBF1F00130042124
:1055800061F31F300390FFE70398000518B9FFE7A8
:105590000120029023E00C98806868B9FFE70A9820
:1055A00001380C99496801EB4101B0FBF1F0013081
:1055B0006FF31F3001900DE00A9801380C9949688B
:1055C00019225143B0FBF1F00130042161F31F3087
:1055D0000190FFE7019840F400400290FFE7029835
:1055E0000490FFE70698049908430C990968C8617C
:1055F0000C980068006820F0C0000C9B1968DA69FC
:105600001B6A1A43104308600C980068806848F2CF
:10561000FF3188430C9A1168D36812691A4310430A
:1056200088600C980068C06820F0FF000C9B196827
:105630005A699B691A431043C8600C98016808684E
:1056400040F0010008600C99002008640C9A2021A9
:1056500082F83D100C9908630C9981F83E008DF892
:105660003700FFE79DF837000EB080BD80B58EB0E3
:105670000D9000200C900B900A90099008900D98C6
:10568000006845F60041C4F2000188425FD1FFE79F
:10569000FFE70020079043F63000C4F202000168E3
:1056A00041F004010160006800F0040007900798D1
:1056B000FFE7FFE70020069043F63000C4F2020047
:1056C000016841F001010160006800F001000690EE
:1056D0000698FFE74FF400700890122000900990A0
:1056E000002001900A90032002900B900420039068
:1056F0000C9040F60000C4F2020008A90491FFF7E4
:1057000051FCDDF800C0019B029A039804994FF404
:10571000807ECDF820E0CDF824C00A930B920C9047
:105720000020C4F20200FFF73DFCFFE700200590D7
:1057300043F64000C4F20200016841F40001016038
:10574000006800F4000005900598FFE7FFE70EB041
:1057500080BD000040F2D930C2F20000027846F667
:105760002411C2F20001086810440860704700006C
:1057700080B543F60041C4F20201086840F40070AD
:105780000860086840F480600860086840F4807031
:105790000860032000F0D0F80F2000F005F800F0BA
:1057A0007BF8002080BD000080B58CB00B900020FD
:1057B00004900390FFE70020009043F64000C4F2FD
:1057C0000200016841F480710160006800F480709B
:1057D00000900098FFE706A802A901F05BFB09987A
:1057E0000490049820B9FFE701F084FB059004E0E1
:1057F00001F080FB40000590FFE705984DF68361BE
:10580000C4F21B31A0FB01014FF0FF3000EB9140CF
:10581000039042F6F800C2F2000042F20001C4F226
:105820000001016040F2E731C1600399416000214D
:1058300001618160816102F07FFF8DF807009DF8B2
:10584000070028BBFFE742F6F800C2F2000003F0B1
:1058500029F88DF807009DF80700C0B9FFE72D2053
:1058600000F046F80B980F280CD8FFE70B992D2075
:10587000002200F047F80B9840F2DC31C2F2000140
:10588000086003E001208DF80700FFE7FFE7FFE76E
:105890009DF807000CB080BD80B582B0FFE7002006
:1058A000019043F64400C4F20200016841F48041D3
:1058B0000160006800F4804001900198FFE7FFE775
:1058C0000020009043F64000C4F20200016841F05D
:1058D00080510160006800F0805000900098FFE760
:1058E0006FF001000F21002200F00CF802B080BD23
:1058F00080B582B08DF807009DF907000EF0DEFC40
:1059000002B080BD80B586B08DF817000491039277
:10591000002002900EF0EAFC02909DF91700019021
:1059200002980499039A05F0C5FE014601980EF00D
:10593000E5FC06B080BD000080B582B00190019802
:105940000EF0FEFC02B080BD82B001908DF8031015
:1059500002B0704782B00190ADF80210BDF80200AD
:10596000019909684862002002B0704784B0039032
:105970008DF80B10ADF8082003980068406A00907D
:105980009DF80B0048B9FFE7BDF80810009840EA01
:10599000014003990968886233E003980068816ACE
:1059A000009800EB1140009000208DF80700FFE701
:1059B0009DF807009DF80B100139884213D2FFE7CC
:1059C000039800689DF8071000EB8100D0F80411DF
:1059D000009800EB11400090FFE79DF807000130B0
:1059E0008DF80700E4E7BDF80810009840EA014090
:1059F000039909689DF80B2001EB8201C1F80001B1
:105A0000FFE7002004B0704780B582B00190019894
:105A1000D0F8E0040BF058FA02B080BD80B582B037
:105A200001908DF80310019AD2F8E0049DF803105C
:105A300001EBC10302EB8302126A0BF099F802B08A
:105A400080BD000080B582B001908DF80310019AEE
:105A5000D2F8E0049DF8031001EBC10302EB8302CE
:105A6000D2F860220BF052F902B080BD80B582B04E
:105A700001900198D0F8E0040BF02CFA02B080BD40
:105A800080B584B003908DF80B109DF80B000006D4
:105A900000280CD5FFE703989DF80B1001F00F01CB
:105AA00001EBC10100EB8100143001900CE0039880
:105AB0009DF80B1001F00F0101EBC10100EB81001B
:105AC00000F515700190FFE70398006801990CF04C
:105AD0008BFF8DF80A009DF80A0004B080BD00001D
